:020000040800F2
:1000000000000220454C0008994B00089B4B00085B
:100010009D4B00089F4B0008A14B0008000000000A
:10002000000000000000000000000000412800085F
:10003000A34B000800000000D12800083529000863
:10004000954C0008954C0008954C0008954C00080C
:10005000954C0008954C0008A54B0008954C0008ED
:10006000954C0008954C0008954C0008954C0008EC
:10007000954C0008AD4B0008954C0008B94B0008A2
:10008000C54B0008D14B0008954C0008954C000862
:10009000DD4B0008954C0008954C0008954C000875
:1000A000954C0008E94B0008954C0008954C000859
:1000B000954C0008954C0008954C0008954C00089C
:1000C000954C0008954C0008954C0008954C00088C
:1000D000954C0008954C0008954C0008954C00087C
:1000E000954C0008954C0008954C0008954C00086C
:1000F000954C0008954C0008954C0008954C00085C
:10010000954C0008954C0008954C0008954C00084B
:10011000954C0008954C0008954C0008954C00083B
:10012000954C0008954C0008954C0008954C00082B
:10013000954C0008954C0008954C0008954C00081B
:10014000954C0008954C0008954C0008954C00080B
:10015000954C0008954C0008954C0008954C0008FB
:10016000954C0008954C0008954C0008954C0008EB
:10017000954C0008954C0008954C000800000000C4
:08018000954C0008954C0008A5
:1001900010B5054C237833B9044B13B10448AFF3C1
:1001A00000800123237010BD7400002000000000B7
:1001B0003855000808B5034B1BB103490348AFF39A
:1001C000008008BD000000007800002038550008BD
:1001D000034613F8012B002AFBD1181A0138704787
:1001E00001F0FF01102A2BDB10F0070F08D010F8E8
:1001F000013B013A8B422DD010F0070F42B3F6D1EC
:10020000F0B441EA012141EA014122F007047FF004
:1002100000070023F0E80256083C85EA010586EA5B
:10022000010685FA47F5A3FA87F586FA47F6A5FA97
:1002300087F68EB9EED1F0BC01F0FF0102F00702A3
:1002400032B110F8013B013A83EA010313B1F8D14E
:100250000020704701387047002D06BF354603382F
:10026000073815F0010F07D1013015F4807F02BF68
:10027000013015F4C03F0130F0BC0138704700BFB9
:1002800053B94AB9002908BF00281CBF4FF0FF31FD
:100290004FF0FF3000F07AB9ADF1080C6DE904CEF3
:1002A00000F006F8DDF804E0DDE9022304B0704751
:1002B0002DE9F0478C460D460446089E002B51D18F
:1002C0008A4217466DD9B2FA82FEBEF1000F0BD0FA
:1002D000CEF1200C01FA0EF520FA0CFC02FA0EF712
:1002E0004CEA050C00FA0EF44FEA174A250CBCFB49
:1002F000FAF81FFA87F90AFB18CC45EA0C4508FB07
:1003000009F3AB420AD9ED1908F1FF3280F02381DD
:10031000AB4240F22081A8F102083D44ED1AA4B29C
:10032000B5FBFAF00AFB105544EA054400FB09F955
:10033000A14509D9E41900F1FF3380F00A81A145F4
:1003400040F2078102383C44A4EB090440EA08402B
:100350000021002E61D024FA0EF400233460736073
:10036000BDE8F0878B4207D9002E54D0002186E8E3
:1003700021000846BDE8F087B3FA83F1002940F078
:100380008E80AB4202D3824200F2FA80841A65EB7F
:1003900003050120AC46002E3FD086E81010BDE8D2
:1003A000F08712B90127B7FBF2F7B7FA87FEBEF163
:1003B000000F34D1EB1B3A0C1FFA87FC0121B3FB71
:1003C000F2F8250C02FB183345EA03450CFB08F351
:1003D000AB4207D9ED1908F1FF3002D2AB4200F26F
:1003E000D1808046ED1AA3B2B5FBF2F002FB1055A6
:1003F00043EA05440CFB00FCA44507D9E41900F1CD
:10040000FF3302D2A44500F2B8801846A4EB0C04D6
:1004100040EA08409DE731463046BDE8F087CEF11E
:10042000200405FA0EF307FA0EF720FA04F83A0C46
:1004300025FA04F448EA0308B4FBF2F14FEA184540
:1004400002FB11441FFA87FC45EA044501FB0CF34B
:10045000AB4200FA0EF409D9ED1901F1FF3080F03A
:100460008A80AB4240F2878002393D44EB1A1FFA82
:1004700088F5B3FBF2F002FB103345EA034500FBBD
:100480000CF3AB4207D9ED1900F1FF386FD2AB4244
:100490006DD902383D44EB1A40EA01418FE7C1F1C2
:1004A000200722FA07F88B4005FA01F448EA030313
:1004B00020FA07FE4FEA134CFD404EEA040EB5FB4E
:1004C000FCF94FEA1E440CFB19551FFA83F844EA65
:1004D000054509FB08F4AC4202FA01F200FA01FA00
:1004E00008D9ED1809F1FF3043D2AC4241D9A9F146
:1004F00002091D442D1B1FFA8EFEB5FBFCF00CFB00
:1005000010554EEA054400FB08F8A04507D9E41849
:1005100000F1FF3529D2A04527D902381C4440EA12
:100520000940A4EB0804A0FB02894C45C6464D4691
:1005300015D312D056B1BAEB0E0364EB050404FADE
:1005400007F7CB401F43CC40376074600021BDE803
:10055000F0871846F8E69046E0E6C245EAD2B8EBE6
:10056000020E69EB03050138E4E72846D7E7404669
:1005700091E78146BEE7014678E702383C4445E70B
:10058000084608E7A8F102083D442BE7704700BF82
:1005900008B50B4B1A6842F400721A601A6842F4EC
:1005A00080621A601A6842F480721A60032000F0B8
:1005B000EFFA002004F0B2FA04F01EF9002008BDA2
:1005C000003C0240034A044B11681B780B44136043
:1005D000704700BFA049002000000020014B1868B0
:1005E000704700BFA049002038B50446FFF7F6FF6A
:1005F000631C1CBF054B1B78054618BFE418FFF7AA
:10060000EDFF401B8442FAD838BD00BF0000002037
:1006100038B5044600286ED090F820300BB904F0AD
:100620000DF92268136823F002031360FFF7D6FF69
:10063000054623685A68910751D41A6842F00102AE
:100640001A60FFF7CBFF054623685A68D20754D5D6
:10065000227E012A1A680CBF42F0800222F080023A
:100660001A60627E012A1A680CBF42F0400222F032
:1006700040021A60A27E012A1A680CBF42F02002D2
:1006800022F020021A60E27E012A1A680CBF22F0D2
:10069000100242F010021A60227F012A1A680CBF71
:1006A00042F0080222F008021A60627F012A1A68EA
:1006B0000CBF42F0040222F004021A60E168A26852
:1006C0000A4321690A4361690A43616801390A439F
:1006D000DA6100200123606284F8203038BDFFF722
:1006E0007DFF401B0A28A4D9636A43F40033636288
:1006F000052384F82030012038BDFFF76FFF401B31
:100700000A28A1D9F0E7000090F82030013B012B26
:1007100030B579D83F4BD3F8002242F00102C3F83C
:100720000022D3F8002222F47C52C3F80022D3F82E
:100730000022486A42EA0022C3F800224869D3F83E
:100740001C5200F01F0201249440E2431540C3F8FC
:100750001C52CD69002D36D1D3F80C521540C3F888
:100760000C52C000CD688B8800F1804000F5C84075
:1007700043EA0543C0F840328D680B8843EA0543DD
:10078000C0F844328869234B002835D1D3F80402DD
:100790001040C3F80402086990BBD3F81402024069
:1007A000C3F814220B6A1B4A012B02BFD2F81C3279
:1007B0002343C2F81C32D2F8003223F00103C2F8FE
:1007C0000032002030BD012DDCD1D3F80C5225437E
:1007D000C3F80C520B688D8845EA0345C30003F14A
:1007E000804303F5C8438889C3F840528D6840EAC6
:1007F0000540C3F84402C5E7D3F804022043C8E724
:10080000D3F814222243CBE7436A43F480234362A4
:10081000012030BD0064004038B590F82030012B35
:1008200004461FD10268022380F82030136823F0A9
:1008300001031360FFF7D2FE05462368586810F0E5
:10084000010001D1606238BDFFF7C8FE401B0A28D5
:10085000F3D9636A43F400336362052384F82030DC
:10086000012038BD436A43F400234362F8E7F0B542
:1008700090F82040013C012C6BD8066841B9F4681F
:10088000A40707D1436A43F4001343620120F0BD7B
:100890003469F5E70C013519D5F8B07107F0040794
:1008A0009760002F4BD1D5F8B0717F0D1760D5F848
:1008B000B07107F00207D760D5F8B47107F00F07E1
:1008C0001761D5F8B471D5F8B4512644C7F307279A
:1008D0002D0C97615561D6F8B8211A700268224430
:1008E000D2F8B821120A5A7002682244D2F8B8210C
:1008F000120C9A7002682244D2F8B821120EDA70F3
:1009000002682244D2F8BC211A7102682244D2F84B
:10091000BC21120A5A7102682244D2F8BC21120C7E
:100920009A7102681444D4F8BC21120EDA7103687B
:1009300051B9DA6842F02002DA600020F0BDD5F843
:10094000B071FF085760B2E71A6942F020021A61DD
:10095000F3E7436A43F4802397E790F82030013BA4
:10096000012B05D802685369194351610020704773
:10097000436A43F480234362012070477047704705
:1009800070477047704770477047704770477047AF
:10099000704770472DE9F84F03685E69D3F80490FB
:1009A0009F68D3F80CB0D3F810A0D3F8188016F0D5
:1009B0000104054622D017F0010407D00122B9072F
:1009C0009A6040F1A380FFF7D9FF0024FB0509D509
:1009D0002B684FF48072B8059A6040F1A5802846D4
:1009E000FFF7CDFFFB0309D52B684FF48032B80326
:1009F0009A6040F1A7802846FFF7C2FF330707D56A
:100A00001BF0100F1FBF2B68102244F40074DA6033
:100A1000770708D51BF0080F05D02B680822DA608D
:100A20002846FFF7B1FFB00706D52B68DB689907AA
:100A300002D0284603F078FE720607D51AF0100F90
:100A40001FBF2B68102244F480641A61B30608D5D6
:100A50001AF0080F05D02B6808221A612846FFF704
:100A600095FFF70606D52B681B69980702D0284624
:100A7000FFF78BFFB10308D519F0100F05D02B68D5
:100A800010225A602846FFF782FFF20308D519F0BA
:100A9000080F05D02B6808225A602846FFF778FF18
:100AA00033042AD519F0040F2A6824D0F70504D599
:100AB00018F0010F18BF44F00104B00504D518F078
:100AC000020F18BF44F00204710504D518F0040F9A
:100AD00018BF44F0040433050DD518F070030AD094
:100AE000302B4CD03CD8102B43D0202B44D09369D2
:100AF00023F070039361042353602CB16B6A1C4391
:100B00006C622846FFF745FFBDE8F88F7A0705D4E9
:100B100017F0080405D1FFF734FF57E74FF40064DE
:100B200054E74FF4805451E7790502D544F400545A
:100B300058E73A0502D544F4804453E72846FFF7C6
:100B400021FF4FE7790302D544F4004456E73A0306
:100B500002D544F4803451E72846FFF714FF4DE7EF
:100B6000502B0FD0602B10D0402BC0D144F040044C
:100B7000BDE744F00804BAE744F01004B7E744F0D6
:100B80002004B4E744F08004B1E744F48074AEE795
:100B9000074AD36823F4E0631B041B0C43F0BF63D4
:100BA000000243F4003300F4E0600343D360704775
:100BB00000ED00E0174B30B5DC68C4F30224C4F14B
:100BC0000703251D042B28BF0423062D4FF0010524
:100BD00005FA03F303F1FF338CBF033C00241940F3
:100BE000A14005FA04F4013C2240002842EA010237
:100BF0004FEA0212ADBF00F1604000F00F00064B5B
:100C000000F56140B5BFD2B2D2B21A5480F80023C9
:100C100030BD00BF00ED00E014ED00E0002808DB6F
:100C20004209012300F01F0003FA00F0014B43F8D2
:100C30002200704700E100E00368DAB223F47F731A
:100C400023F003031821103AB2FBF1F20449032AFE
:100C500088BF0433895C8365C165806D704700BFC0
:100C60005055000870B50446FFF7B8FC0546002C47
:100C700071D0002384F834302268022384F83530A0
:100C8000136823F00103136021680B68D8073CD474
:100C90000B68324D6268A0691D40A3681343E26887
:100CA00013432269134362691343E2690343134305
:100CB000226A1343626A042A43EA050301BF266BD2
:100CC000E56A35432B430B604B69042A23F0070385
:100CD00043EA02030BD1A26AE56A13433DB1F8B9B6
:100CE000012A2DD001D3022A01D1EA012BD44B6174
:100CF0002046FFF7A1FFE26D3F2393408360002071
:100D00000123606584F8353070BDFFF767FC401B38
:100D10000528B9D920236365032084F8350070BD08
:100D2000B0F5005F13D1032AE1D801A050F822F0FA
:100D3000470D0008EB0C0008470D0008410D0008A6
:100D4000B5F1C07FD3D1402363650120E5E7022AD6
:100D5000F9D9032AC8E7012070BD00BF3F8010F019
:100D6000F7B5002301935A4B856D1F68C36D2E683C
:100D700008229A40164204460CD0016808684007D1
:100D800008D5086820F004000860AA60626D42F08F
:100D90000102626501229A40164208D02168496921
:100DA000090641BFAA60626D42F002026265042238
:100DB0009A40164208D021680968880741BFAA6096
:100DC000626D42F00402626510229A40164210D011
:100DD0002368196809070CD5AA601A68500335D52D
:100DE0001B68190301D4236C00E0A36C0BB12046EF
:100DF0009847E16D20228A40164238D0236818684F
:100E0000C60634D5AA6094F83520052A1A6825D17B
:100E100022F016021A605A6922F080025A61226C8E
:100E20000AB9A26C1AB11A6822F008021A603F23AC
:100E30008B40AB60002384F83430012384F83530D4
:100E4000236D0BB12046984703B0F0BD1A68D20558
:100E50005EBF1A6822F008021A60C4E7500328D562
:100E60001B68190332D4636C0BB120469847636D3D
:100E7000002BE9D0636DDA0719D50523226884F8C1
:100E80003530136823F0010313604FF41653B7FB9A
:100E9000F3F7019B01339F42019302D31368DB07F1
:100EA000F7D4002384F83430012384F83530E36C20
:100EB000C7E71A6812F4807208D1196821F010018E
:100EC0001960012384F8342084F83530E36BCBE7D4
:100ED0000C0000202DE9F04F85B00B68DFF8AC81E5
:100EE000684ADFF8AC91019300230124019D9C40E6
:100EF0002540AC4240F0B0804C6824F0100C0CF15E
:100F0000FF36012E4FEA430E12D88768032606FAF1
:100F10000EF627EA0607CE6806FA0EF63E4386600E
:100F20004768C4F3001627EA05079E403E43466023
:100F30000326C76806FA0EF6F64307EA060A8F6824
:100F400007FA0EF747EA0A07BCF1020FC76016D18D
:100F50004FEAD30A00EB8A0A03F0070BDAF8207095
:100F60004FEA8B0B4FF00F0C0CFA0BFC27EA0C0C22
:100F70000F6907FA0BF747EA0C07CAF820700768F1
:100F80003E4004F0030707FA0EFE4EEA060606602E
:100F9000E60061D54FF0000BCDF80CB0D8F84470E6
:100FA000394E47F48047C8F84470D8F8447007F4C5
:100FB00080470397039F23F0030707F1804707F556
:100FC0009C3703F0030CD7F808A04FEA8C0C4FF0C5
:100FD0000F0E0EFA0CFEB0422AEA0E0E43D006F5B2
:100FE0008066B04241D006F58066B0423FD006F53B
:100FF0008066B0423DD006F58066B0423BD04845A1
:101000003BD006F50066B04239D006F58066B042A6
:1010100014BF0826072606FA0CF646EA0E06BE603E
:101020001668EF4314F4803F0CBF3E402E43166019
:10103000566814F4003F0CBF3E402E43566096683D
:1010400014F4801F0CBF3E402E439660D668A40265
:1010500054BF3E402E43D6600133102B7FF445AF82
:1010600005B0BDE8F08F5E46D5E70126D3E702263E
:10107000D1E70326CFE70426CDE70526CBE70626F2
:10108000C9E700BF003C01400000024000380240B8
:10109000001402400AB1816170470904FBE7704700
:1010A00008B5044B5969014202D05861FFF7F7FFB8
:1010B00008BD00BF003C01402DE9F341044608B9DA
:1010C00001203FE00368DD0710D4236898075AD455
:1010D00023681A0700F19C8023685B0700F1BA803F
:1010E000A069002840F01B8100202BE0A44B9A68E7
:1010F00002F00C02042A07D09A6802F00C02082AB7
:101100000AD15B68590207D59D4B1B689A03DCD551
:101110006368002BD9D1D3E76368994DB3F5803F5D
:1011200013D12B6843F480332B60FFF757FA944DAB
:1011300006462B689B03C8D4FFF750FA801B64282F
:10114000F7D9032002B0BDE8F081B3F5A02F04D198
:101150002B6843F480232B60E3E72A6822F4803273
:101160002A602A6822F480222A60002BDDD1FFF752
:1011700035FA06462B689F03A7D5FFF72FFA801B89
:101180006428F7D9DDE77E4B9A6812F00C0F07D080
:101190009A6802F00C02082A11D15B685E020ED434
:1011A000774B1A68950702D5E268012A88D11A6838
:1011B000216922F0F80242EAC1021A6088E7E26877
:1011C000704BB2B101221A60FFF708FA6C4D064667
:1011D0002B68980707D52B68226923F0F80343EAA8
:1011E000C2032B6074E7FFF7F9F9801B0228EFD9DF
:1011F000A7E71A60FFF7F2F9614D06462B689907D9
:101200007FF566AFFFF7EAF9801B0228F6D998E769
:1012100062695D4B7AB101221A60FFF7DFF9584D20
:1012200006466B6F9F073FF557AFFFF7D7F9801B57
:101230000228F6D985E71A60FFF7D0F9504D064627
:101240006B6F98077FF548AFFFF7C8F9801B02283E
:10125000F6D976E74A4B1A6C12F0805228D10192E7
:101260001A6C42F080521A641B6C03F08053019395
:10127000019B0126454D2B68D9051BD5A368404D20
:10128000012B27D12B6F43F001032B67FFF7A6F942
:101290003B4D074641F288382B6F9B0739D5002E0E
:1012A0003FF41EAF364A136C23F08053136417E7E4
:1012B0000026DFE72B6843F480732B60FFF78EF97D
:1012C00007462B68DA05D9D4FFF788F9C01B022836
:1012D000F7D936E7052B04D12B6F43F004032B67B6
:1012E000D0E72A6F22F001022A672A6F22F0040257
:1012F0002A67002BCAD1FFF771F941F288380746F7
:101300002B6F9807CBD5FFF769F9C01B4045F7D97C
:1013100017E7FFF763F9C01B4045BDD911E7184D2A
:10132000AB6803F00C03082B47D0194E00230228AA
:10133000336035D1FFF752F907462B68990129D45C
:10134000226AE3691343626A43EA8213E26A43EA68
:101350000263A26A0A4C5208013A43EA02436B60F4
:1013600001233360FFF73AF9054623689A013FF5F8
:10137000BBAEFFF733F9401B0228F6D9E1E600BF08
:101380000038024000004742800E47420070004093
:1013900060004742FFF722F9C01B0228CDD9D0E6F2
:1013A000FFF71CF904462B689B017FF59DAEFFF704
:1013B00015F9001B0228F6D9C3E601283FF4C2AE96
:1013C000A868E36900F480029A427FF479AE226A49
:1013D00000F03F0393427FF473AE626A47F6C07336
:1013E000034093427FF46CAEA26A00F44033934210
:1013F0007FF466AEE36A00F07060C01A18BF012087
:10140000A0E600BF134908B58B6803F00C03042B5A
:1014100003D0082B03D0104808BD104808BD4A6807
:101420004B68496813F4800314BF0C480A48C1F3A1
:10143000881118BF002302F03F02A1FB0001FEF754
:101440001FFF044B5B68C3F3014301335B00B0FB38
:10145000F3F008BD003802400024F40000127A00C6
:101460002DE9F0410D46044610B90120BDE8F08198
:10147000444B1A6802F00F028A4229D321688F0771
:101480002ED4C80741D43F4B1A6802F00F02954290
:1014900067D3226851076DD4130707D53A4A2169EB
:1014A000936823F4604343EAC1039360FFF7AAFF04
:1014B000354B364A9B68C3F30313D35CD840344B97
:1014C0001860344B186803F029FB0020BDE8F08158
:1014D000CAB21A701B6803F00F039942C5D1CDE759
:1014E000294B11F0040F1EBF9A6842F4E0529A6033
:1014F0000E0742BF9A6842F460429A609A68A068F8
:1015000022F0F00202439A60BBE762681E4B012A98
:101510001DD11B6813F4003FA7D01B4EB36823F006
:1015200003031343B360FFF759F841F288380746C5
:10153000B368626803F00C03B3EB820FA3D0FFF72C
:101540004DF8C01B4045F3D90320BDE8F081911E42
:1015500001291B6802D813F0007FDDE713F0020FAA
:10156000DAE7EAB21A701B6803F00F039D427FF4BA
:101570007CAF8EE70449E0688B6823F4E0530343B3
:101580008B6089E7003C0240003802401F5600088B
:101590000C00002004000020044B054A9B68C3F3A4
:1015A0008223D35C034A1068D84070470038024059
:1015B0002F5600080C000020044B054A9B68C3F31B
:1015C0004233D35C034A1068D84070470038024069
:1015D0002F5600080C0000200F2303600B4B9A6865
:1015E00002F0030242609A6802F0F00282609A6898
:1015F00002F4E052C2609B68DB0803F4E05303612D
:10160000034B1B6803F00F030B6070470038024068
:10161000003C0240F8B504460E4615461F462168B8
:101620008A6836EA020301D00020F8BD6B1CF7D0AF
:10163000FEF7D4FFC01B8542F1D823685A6822F018
:10164000E0025A606268B2F5827F0AD1A268B2F500
:10165000004F02D0B2F5806F03D11A6822F0400229
:101660001A60A26AB2F5005F07D11A6822F400522C
:101670001A601A6842F400521A60012384F851304B
:10168000002384F850300320F8BD38B51346426873
:10169000B2F5827F04461FD18268B2F5004F02D0B6
:1016A000B2F5806F07D125682868B2F5806F20F009
:1016B0004000286007D00A4680212046FFF7AAFF95
:1016C00020B9002038BD0A460121F6E7636D43F0DA
:1016D00020036365032038BD0A460121EEE70000C0
:1016E00073B51346134A144E15684268B5FBF6F6F7
:1016F0004FF47A757543B2F5827F044601950DD19A
:101700000A468021FFF786FF10B9002002B070BDA5
:10171000636D43F0200363650320F7E7019B002B13
:10172000F3D0019B013B019323689B681B06F5D412
:10173000EBE700BF0C00002000366E0110B5044638
:10174000002836D00023836290F8513003F0FF0266
:101750001BB980F8502003F0ADF82168A068A26999
:10176000022384F851300B6823F040030B60636858
:101770000343E06803432069034360690343E0696E
:101780000343206A0343A06A034302F40070034347
:101790000B60120C636A02F004021A434A60CB69C0
:1017A00023F40063CB6100200123606584F851308D
:1017B00010BD012010BD2DE9F3411E4690F85030B8
:1017C000012B04460D46904600F09B80012380F8D3
:1017D0005030FEF703FF074694F85100C0B20128CD
:1017E00040F08D80002D5DD0B8F1000F5AD003235A
:1017F00084F851300020A3686065A063A4F83680A7
:10180000A087E0876064206420682563B3F5004FFB
:1018100008BF0368A4F8348004BF43F48043036026
:1018200003685B065EBF036843F040030360E36840
:10183000B3F5006F63683ED113B1B8F1010F07D162
:1018400035F8023BC3602563E38E013B9BB2E38620
:10185000E38E9BB2A3B93A4631462046FFF740FFDC
:10186000002849D1A36833B901932368DA6801924B
:101870009B680193019B606D003018BF012011E04F
:1018800022689368980705D5236B33F8021BD16053
:101890002363D9E7FEF7A2FEC01BB042D8D3711C68
:1018A000D6D00320012384F85130002384F850302F
:1018B00002B0BDE8F08113B1B8F1010F08D12B7867
:1018C0000373236B01332363E38E013B9BB2E386F7
:1018D000E38E9BB2002BBED023689A68920703D593
:1018E000226B12781A73ECE7FEF778FEC01B864273
:1018F000EED8731CECD0D4E720236365B2E7022056
:10190000D0E70220D4E72DE9F7431E4690F8503087
:101910000A9F012B04460D46914600F0E280012308
:1019200080F85030FEF75AFE94F851306168DBB20F
:10193000012B80460AD0B1F5827F40F0D080A068AC
:10194000002840F0CC80042B40F0C980002D00F02E
:10195000C480B9F1000F00F0C080002E00F0BD80FF
:1019600094F85130C4F83890042B1CBF052384F838
:10197000513000236365236463642368E687E68649
:101980001A68A687500658BF1A68256358BF42F0E8
:101990004002A68658BF1A60E268B2F5006F58D1BF
:1019A00009B1012E07D135F8022BDA60E38E2563E9
:1019B000013B9BB2E3860125E38E9BB2ABB9E38F7B
:1019C0009BB293B9424639462046FFF789FE00286C
:1019D00040F08180A368002B32D123680190DA683F
:1019E00001929B680193019B2AE022689368990702
:1019F0000DD5E38E9BB253B14DB1236B33F8021B6F
:101A0000D1602363E38E013B9BB2E386002593689C
:101A1000DB070CD5E38F9BB24BB1A36BD26823F8E5
:101A2000022BA363E38F013B9BB2E3870125FEF703
:101A3000D5FDA0EB08008742BED87E1CBCD0032099
:101A4000012384F85130002384F8503003B0BDE8FE
:101A5000F08309B1012E08D12A781A73236B013360
:101A60002363E38E013B9BB2E3860125E38E9BB2A9
:101A70001BB9E38F9BB2002BA4D022689368980710
:101A80000ED5E38E9BB25BB155B1236B1B781373FC
:101A9000236B01332363E38E013B9BB2E386002576
:101AA00022689368D9070DD5E38F9BB253B1A36B1E
:101AB000D2681A70A36B0133A363E38F013B9BB21F
:101AC000E3870125FEF78AFDA0EB08008742CDD809
:101AD0007B1CCBD0B3E7202363650120B0E7022055
:101AE000AEE70220B2E72DE9F3411D464368B3F5A6
:101AF000827F0446884617460CD1836853B9042375
:101B000080F85130134600950A46FFF7FCFE02B0FC
:101B1000BDE8F08194F85030012B79D0012384F88E
:101B20005030FEF75BFD064694F85100C0B2012824
:101B30006CD1B8F1000F57D0002F55D0042384F892
:101B40005130002363652363E787A386E38623641C
:101B50006364A368A787B3F5004F2368C4F838808F
:101B600002BF1A6822F480421A601A6857065EBFE4
:101B70001A6842F040021A60E368F3B1E38F9BB247
:101B8000FBB123689A68D20735D5DA68A36B23F8CE
:101B9000022BA363E38F013B9BB2E387EEE723684D
:101BA0009A68D00718D5A26B1B7B1370A36B013307
:101BB000A363E38F013B9BB2E387E38F9BB2002BD0
:101BC000EDD1324629462046FFF75FFDD8B9606D5A
:101BD000003018BF012007E0FEF700FD801B8542A2
:101BE000EBD8691CE9D00320012384F8513000238D
:101BF00084F850308BE7FEF7F1FC801B8542BDD89E
:101C00006B1CBBD0EFE720236365E0E70220EBE726
:101C100002207CE7036A23F001030362036A70B5C4
:101C2000446882690D6822F073022A438D6823F0AC
:101C300002032B430E4DA84202D00E4EB04210D1EB
:101C4000CE6823F008033343A84223F0040302D0F4
:101C5000084DA84205D14D698E6924F4407435437E
:101C60002C43446082614A684263036270BD00BFD6
:101C70000000014000040140036A23F48073036202
:101C8000036A70B54468C2690D6822F073022A4382
:101C90008D6823F4007343EA0523114DA84203D055
:101CA00005F58065A84214D1CD6823F4006343EAAA
:101CB00005230B4DA84223F4806303D005F580650E
:101CC000A84206D14D698E6924F44054354344EA54
:101CD00005144460C2614A68C263036270BD00BFFC
:101CE00000000140036A23F480530362036A30B5A5
:101CF0004468C2690D6822F4E64242EA05228D6812
:101D000023F4005343EA0533084DA84203D005F5F8
:101D10008065A84204D14D6924F4804444EA8514C6
:101D20004460C2614A680264036230BD0000014041
:101D30000368DA6842F00102DA609A6802F007028A
:101D4000062A1EBF1A6842F001021A60002070477E
:101D50007047704770477047704703681A6991076A
:101D600010B504460ED5DA6892070BD56FF0020263
:101D70001A619B6901229B07027777D0FFF7EAFF80
:101D80000023237723681A69500710D5DA685107B2
:101D90000DD56FF004021A619B69022213F4407F93
:101DA0002277204668D0FFF7D5FF002323772368EA
:101DB0001A6912070FD5DA6810070CD56FF0080200
:101DC0001A61DB6904229907227720465AD0FFF76F
:101DD000C1FF0023237723681A69D20610D5DA6879
:101DE000D0060DD56FF010021A61DB69082213F4DA
:101DF000407F227720464BD0FFF7ACFF00232377AC
:101E000023681A69D10708D5DA68D20705D56FF0BB
:101E100001021A61204602F0E3FC23681A691006E9
:101E200008D5DA68110605D56FF080021A612046E0
:101E300000F049FA23681A69520608D5DA68500694
:101E400005D56FF040021A612046FFF785FF236831
:101E50001A69910622D5DA6892061FD56FF0200222
:101E600020461A61BDE8104000F02CBAFFF771FF60
:101E70002046FFF770FF83E7FFF76BFF2046FFF771
:101E80006AFF92E7FFF765FF2046FFF764FFA0E7D0
:101E9000FFF75FFF2046FFF75EFFAFE710BD0000D2
:101EA000304A0368904212D0B0F1804F0FD0A2F5B3
:101EB0007C4290420BD002F58062904207D002F53E
:101EC0008062904203D002F57842904219D14A686C
:101ED00023F070031343234A904229D0B0F1804F7E
:101EE00026D0A2F57C42904222D002F58062904238
:101EF0001ED002F5806290421AD002F578429042DC
:101F000016D0194A904213D002F5806290420FD049
:101F100002F5806290420BD0A2F59832904207D031
:101F200002F58062904203D002F58062904203D1B4
:101F3000CA6823F4407313434A6923F080031343B0
:101F400003608B68C3620B688362064B984203D0C0
:101F500003F58063984201D10B6903630123436158
:101F6000704700BF000001400040014010B504462A
:101F7000A0B190F83D3003F0FF021BB980F83C207F
:101F800002F0CEFC022384F83D302068211DFFF7CB
:101F900087FF012384F83D30002010BD012010BDD3
:101FA00010B50446A0B190F83D3003F0FF021BB914
:101FB00080F83C20FFF7CCFE022384F83D302068F7
:101FC000211DFFF76DFF012384F83D30002010BD77
:101FD000012010BD036A23F010030362036A70B589
:101FE000446882690D6822F4E64242EA05228D685F
:101FF00023F0200343EA0513104DA84203D005F552
:102000008065A84214D1CD6823F0800343EA05130C
:102010000A4DA84223F0400303D005F58065A8428D
:1020200006D14D698E6924F44064354344EA850441
:10203000446082614A688263036270BD00000140AF
:1020400038B590F83C30012B04464FF0020025D003
:10205000012384F83C3084F83D000C2A18D8DFE8CE
:1020600002F0071717171E1717172F17171740001B
:102070002068FFF7CFFD236809699A6942F00802DA
:102080009A619A6922F004029A619A690A439A61F4
:102090000123002084F83D3084F83C0038BD2068DE
:1020A000FFF798FF236809699A6942F400629A6110
:1020B0009A6922F480629A619A6942EA0122E6E70B
:1020C0002068FFF7D9FD23680969DA6942F0080240
:1020D000DA61DA6922F00402DA61DA690A43DA6164
:1020E000D6E72068FFF7FEFD23680969DA6942F444
:1020F0000062DA61DA6922F48062DA61DA6942EA5E
:102100000122ECE710B584680A4324F47F4442EAD4
:1021100003232343836010BD90F83C30012B70B53E
:1021200004464FF0020019D084F83D0020680123D6
:1021300084F83C30836823F47F4323F07703836083
:102140000B68402B65D015D8102B0CD007D853B195
:102150000123002084F83D3084F83C0070BD202B22
:1021600001D0302BF4D1826843F0070322F07002D3
:1021700013431AE0602B34D019D8502BE8D14A68A9
:10218000CE68016A056A25F001050562836921F0C0
:102190000A0123F0F00343EA06130A438361026253
:1021A000836823F0700343F057038360D0E7702BFC
:1021B0000CD0B3F5005FCBD1CB684A688968FFF7D4
:1021C000A1FF2268936843F4804308E0CB684A6823
:1021D0008968FFF797FF2268936843F0770393605D
:1021E000B6E74D68CE68016A21F01001016282698C
:1021F000036A22F4704223F0A00343EA051342EA83
:10220000063282610362836823F0700343F0670340
:10221000CBE74A68CE68016A056A25F001050562C8
:10222000836921F00A0123F0F00343EA06130A430D
:1022300083610262836823F0700343F04703B4E7CD
:1022400090F83C30012B30B54FF0020335D080F8C8
:102250003D3003680D685C6824F0700401222C4353
:1022600080F83C209A685C60154CA3421AD0B3F108
:10227000804F17D0A4F57C44A34213D004F58064AA
:10228000A3420FD004F58064A3420BD004F5784438
:10229000A34207D004F57054A34203D0A4F59434AC
:1022A000A34204D1496822F080020A439A600123C4
:1022B00080F83D30002380F83C30184630BD00BF28
:1022C000000001407047704738B50368C1681A695B
:1022D000044622F440520A431A612569A268D9686B
:1022E000C0692A43656921F416412A4321F00C0193
:1022F00002430A43DA605A69A16922F440720A4330
:10230000B0F5004F5A61254A29D1934203D002F516
:102310008062934220D1FFF74FF9626825689218D6
:102320004FF000034FF019015B41A0FB0101FDF7E5
:10233000A7FF6421B0FBF1F401FB1403DB0032338F
:10234000B3FBF1F303F007025B0002EB041203F4AA
:10235000F8731344AB6038BDFFF71EF9DDE7934215
:1023600002D00F4A934216D1FFF726F96368256819
:1023700019219A00A0FB01019B0FFDF781FF642248
:10238000B0FBF2F102FB11031B013233B3FBF2F39A
:1023900003EB0113DEE7FFF7FFF8E7E7001001406A
:1023A00000140140F8B504460E4617461D46216844
:1023B0000B6836EA030301D10020F8BD6B1CF7D08F
:1023C00095B92368DA6822F4D072DA605A6922F08B
:1023D00001025A61202384F8393084F83A3000230E
:1023E00084F838300320F8BDFEF7F8F8C01B8542AA
:1023F000DDD2E6E710B5044640B390F8393003F07B
:10240000FF021BB980F8382002F0CCFA226824239E
:1024100084F83930D36823F40053D3602046FFF7A3
:1024200053FF23681A6922F490421A615A6922F014
:102430002A025A61DA6842F40052DA60002020234E
:10244000E06384F8393084F83A3010BD012010BDC3
:102450002DE9F8431F4690F83930202B04460D46ED
:10246000904651D100294CD0002A4AD090F83830FB
:10247000012B49D0012380F838304FF00009212387
:10248000C0F83C9080F83930FEF7A8F8A4F8248012
:102490000646A4F8268084F83890E38C9BB25BB99A
:1024A0003B46324640212046FFF77CFFA0B920235F
:1024B00084F83930BDE8F883E38C013B9BB2E384B8
:1024C000A368B3F5805F32463B464FF0800120465B
:1024D0000ED1FFF767FF10B10320BDE8F8832B880A
:1024E0002268C3F308035360236943B90235D4E774
:1024F000FFF758FF0028EFD123682A785A6001358A
:10250000CBE70120BDE8F8830220BDE8F88310B5D1
:1025100001F048FE20B103684068BDE8104018474C
:1025200010BD0000EFF3058313B16FF00500704795
:10253000EFF31083002BF8D1074B1868022806D15F
:10254000EFF31183002BF0D14FF0FF3070470028DC
:10255000FAD101221A607047EC02002010B5EFF3A7
:10256000058313B16FF0050010BDEFF31084002C4C
:10257000F8D1094B1A68022A06D1EFF31183002B18
:10258000F0D14FF0FF3010BD012AFAD102221A60BB
:1025900001F06AF8204610BDEC020020F0B587B0CB
:1025A000144600220B460592EFF3058272BBEFF34F
:1025B00010825ABB284A1268022A02D1EFF3118214
:1025C00022BB18B300228DF81320002C3CD02168C8
:1025D00009B90DF11301A569002D08BF18256A1E60
:1025E000372A2F4635D86268D20732D4666986B159
:1025F000B208D4F808E0D4F80CC0BEF1000F0AD03D
:10260000BCF15B0F02D9246904B1AEB9059807B0DB
:10261000F0BD8022EDE7BCF1000FF7D12469002C5A
:10262000F4D105AC0194009792B200F0F0FF0128BC
:102630001CBF00230593E9E7CDF808E0019400955D
:1026400000F0AEFF0590E1E7182780220DF113019D
:10265000E7E70020DBE700BFEC020020F7B5064605
:102660000D4617461C46EFF3058313B1002003B057
:10267000F0BDEFF31083002BF8D1164B1B68022B33
:1026800003D1EFF31183002BF0D1002EEED0082000
:1026900000F058FA03460028E8D02A1C80E8C00061
:1026A00018BF0122A4B1A1682068E46841B12F2CB1
:1026B000DCD9019108490091012101F0DAFBD6E74C
:1026C000002CD3D104490091012101F0ABFBCEE7EE
:1026D0002046F7E7EC0200200F250008034B0360BB
:1026E000034B0B6080231360704700BF90020020F3
:1026F00090000020034B0360034B0B604FF480738A
:1027000013607047F0060020F002002000F108037B
:1027100043604FF0FF32C3600361002382600360B7
:10272000704700230361704743684B609A688A6072
:102730009A685160996003680861013303607047CB
:102740000A68531C30B50AD103695A684A6091601F
:102750008B605960036808610133036030BD00F18C
:1027600008035C682568AA42EFD32346F9E741686D
:10277000826803698A60826851605968884208BF2C
:102780005A60002202611A68013A1A60186870479C
:1027900082B0002301930D4B1B68013308D04FF02A
:1027A000500383F31188BFF36F8FBFF34F8FFEE7A2
:1027B0004FF0500383F31188BFF36F8FBFF34F8F38
:1027C000019B002BFCD002B0704700BF0800002026
:1027D00008480068006880F308884FF0000080F324
:1027E000148862B661B6BFF34F8FBFF36F8F00DFFF
:1027F00000BF000008ED00E0DFF80C00016841F4C4
:10280000700101607047000088ED00E04FF08073B8
:1028100040F8043C074B40F80C3C21F001016FF0FC
:10282000020340F8081C40F8202C40F8243C4438AF
:10283000704700BF91270008000000000000000062
:10284000074B19680868B0E8F04F80F30988BFF3B8
:102850006F8F4FF0000080F311887047AFF3008056
:102860006C4300204FF0500383F31188BFF36F8F48
:10287000BFF34F8F0A4A13680133012B13600DD148
:10288000084B1B6813F0FF0F08D04FF0500383F381
:102890001188BFF36F8FBFF34F8FFEE7704700BF04
:1028A0000800002004ED00E0084A136843B94FF027
:1028B000500383F31188BFF36F8FBFF34F8FFEE791
:1028C000013B13600BB983F31188704708000020A7
:1028D000EFF30980BFF36F8F154B1A681EF0100FCE
:1028E00008BF20ED108A20E9F04F10602DE90900A3
:1028F0004FF0500080F31188BFF34F8FBFF36F8FFD
:1029000001F054F84FF0000080F3118809BC1968F9
:102910000868B0E8F04F1EF0100F08BFB0EC108A46
:1029200080F30988BFF36F8F704700BFAFF300805B
:102930006C43002008B54FF0500383F31188BFF3B8
:102940006F8FBFF34F8F00F0E1FE18B1034B4FF0D4
:1029500080521A60002383F3118808BD04ED00E063
:10296000084A0949002313600B60084B4FF47A7141
:102970001B68B3FBF1F30649013B0B6007231360AF
:10298000704700BF10E000E018E000E00C000020FD
:1029900014E000E0394B3A4A13B51968914208D166
:1029A0004FF0500383F31188BFF36F8FBFF34F8F46
:1029B000FEE71A68334B9A4208D14FF0500383F375
:1029C0001188BFF36F8FBFF34F8FFEE72E4B1A783E
:1029D000D2B20192FF221A701B782C4ADBB28DF81A
:1029E00003309DF8033003F050031370284B072287
:1029F0001A6000219DF80300000602F1FF340DD497
:102A000001B11A601A68032A11D04FF0500383F302
:102A10001188BFF36F8FBFF34F8FFEE79DF8032040
:102A20005200D2B28DF8032001212246E2E71202C1
:102A300002F4E0621A60019B134ADBB21370154B7B
:102A40001A6842F470021A601A6842F070421A6002
:102A5000FFF786FF104B00241C60FFF7CDFE0F4AE6
:102A6000136843F040431360FFF7B2FE00F09EFF8F
:102A7000FFF78EFE204602B010BD00BF00ED00E063
:102A800071C20F4170C20F4100E400E04C0700200A
:102A90005007002020ED00E00800002034EF00E0A7
:102AA000EFF305830F2B0ED9104A9B5C104A127866
:102AB0009A4208D94FF0500383F31188BFF36F8F08
:102AC000BFF34F8FFEE70B4B0B4A1B68126803F4F2
:102AD000E063934208D94FF0500383F31188BFF3AA
:102AE0006F8FBFF34F8FFEE7704700BFF0E300E04A
:102AF0004C0700200CED00E05007002010B50F4BF4
:102B00001A68824218D35C681919884201BF41686B
:102B1000184609195960446801198A4207D10849C1
:102B200009688A421FBF51681268091941609842BA
:102B3000026018BF186010BD1346E1E7644300202F
:102B4000540700202DE9F041044600F0D1FD3E4934
:102B50003E4D0B680BBB3E4A56071FBFD01D20F0F1
:102B6000070002F570531B1A14BF02464FF470534E
:102B70001344083B23F00703364E0B6000207060BF
:102B8000326058601860981A1360334B50601860B8
:102B9000324B18604FF000432B602F68274216D14C
:102BA000002C41D004F1080358071CBF23F0070391
:102BB000083363B1294A1668B342904607D8254ABC
:102BC00015686868834204D809688D4207D10024DB
:102BD0002AE02C68002CF7D02A462546F1E7296820
:102BE00014681160C21A102A0FD9E818410708D0DA
:102BF0004FF0500383F31188BFF36F8FBFF34F8FF4
:102C0000FEE742606B60FFF779FF13496B68086865
:102C1000F61A1F4386424FF00003C8F8006038BF21
:102C20000E6008346F602B6000F000FE630708D070
:102C30004FF0500383F31188BFF36F8FBFF34F8FB3
:102C4000FEE72046BDE8F0815407002058430020ED
:102C50005807002064430020604300205C430020AC
:102C600010B5044670B3184A50F8043C1268134279
:102C700008D14FF0500383F31188BFF36F8FBFF378
:102C80004F8FFEE750F8081C41B14FF0500383F31B
:102C90001188BFF36F8FBFF34F8FFEE723EA020364
:102CA00040F8043C00F024FD084A54F8043C116844
:102CB000A4F108000B441360FFF720FFBDE81040AB
:102CC00000F0B4BD10BD00BF584300205C4300209D
:102CD00010B50446FFF7C6FDA46BFFF7E5FDB4FA97
:102CE00084F0400910BD70B51546026C866B044631
:102CF00042B905689DB9406800F06AFF6560013619
:102D0000A66370BD6DB9806801F0F0FFA368226C06
:102D100013446268A360934201D32368A360002038
:102D2000EDE7C06801F0E2FF236CE26821685B42D6
:102D30001A448A42E2603EBF62689B18E360022D3B
:102D4000EDD10EB1013EEAE73046D8E7034610B4B4
:102D50001A6C084662B1D9685C681144A142D96016
:102D600024BF1968D960D9685DF8044B01F0BEBF73
:102D70005DF8044B704770B50446FFF773FD94F897
:102D8000455004F124066DB2002D14DCFF2384F8B5
:102D90004530FFF789FDFFF765FD94F8445004F1D5
:102DA00010066DB2002D12DCFF2384F84430BDE81C
:102DB0007040FFF779BD636A002BE7D0304600F022
:102DC00069FE08B100F0EEFE013D6DB2DCE723695B
:102DD000002BE9D0304600F05DFE08B100F0E2FEC5
:102DE000013D6DB2DEE7000038B50D46044640B93E
:102DF0004FF0500383F31188BFF36F8FBFF34F8FF2
:102E0000FEE7FFF72FFD206CE36B2268A2604343CF
:102E1000D1181B1A13446160E3600021FF23A163F2
:102E200084F8443084F8453095B9236963B104F1DE
:102E3000100000F02FFE38B10A4B4FF080521A609C
:102E4000BFF34F8FBFF36F8FFFF72EFD012038BD0B
:102E500004F11000FFF75AFC04F12400FFF756FCC0
:102E6000F2E700BF04ED00E013B51C4640B94FF097
:102E7000500383F31188BFF36F8FBFF34F8FFEE7CB
:102E800043B94FF0500383F31188BFF36F8FBFF343
:102E90004F8FFEE74AB1D9B94FF0500383F3118841
:102EA000BFF36F8FBFF34F8FFEE789B14FF0500331
:102EB00083F31188BFF36F8FBFF34F8FFEE74FF09F
:102EC000500383F31188BFF36F8FBFF34F8FFEE77B
:102ED00050230193019B502BF1D10123002908BFFE
:102EE000224684F84630E063216422601946204679
:102EF000FFF77AFF9DF8103084F84C30204602B07E
:102F000010BD00002DE9FF47894601921F46044687
:102F100040B94FF0500383F31188BFF36F8FBFF3B5
:102F20004F8FFEE7002940F08880036C002B00F0F3
:102F300084804FF0500383F31188BFF36F8FBFF38A
:102F40004F8FFEE7019E002E00F082804FF050036D
:102F500083F31188BFF36F8FBFF34F8FFEE7019D9F
:102F60001DB9FFF7A1FC002058E016B902A800F037
:102F7000D1FDFFF799FC00F0BBFBFFF773FC94F861
:102F80004430FF2B08BF84F8448094F84530FF2B71
:102F900008BF84F84580FFF787FC01A902A800F06C
:102FA000C5FD002843D1FFF75DFCA66BE56BFFF77D
:102FB0007BFCAE4235D1019904F1100000F032FDE6
:102FC0002046FFF7D8FE00F031FC38B94FF08053AF
:102FD000CAF80030BFF34F8FBFF36F8F0126FFF7A2
:102FE00041FCA26BE36B9A4201D3022FB7D13A4660
:102FF00049462046FFF777FE636A1BB104F12400BF
:1030000000F048FD38B1194B4FF080521A60BFF301
:103010004F8FBFF36F8FFFF747FC012004B0BDE86F
:10302000F0872046FFF7A7FE00F000FCD6E7204619
:10303000FFF7A1FE00F0FAFB95E7022F02D1E36B48
:10304000012B0AD100F0B4FD00283FF47BAF00262D
:103050004FF00008DFF814A0C1E74FF0500383F3EE
:103060001188BFF36F8FBFF34F8FFEE704ED00E0D1
:103070002DE9F843884691461F46044640B94FF073
:10308000500383F31188BFF36F8FBFF34F8FFEE7B9
:1030900009BB036CFBB14FF0500383F31188BFF3FE
:1030A0006F8FBFF34F8FFEE704F1240000F0F2FCB6
:1030B000002834D0B9F1000F31D00120C9F8000048
:1030C00086F31188BDE8F88301356DB284F8455068
:1030D00025E00020F4E7022F02D1E36B012B20D181
:1030E000FFF7DEFCEFF311864FF0500383F31188F6
:1030F000BFF36F8FBFF34F8FA26BE36B9A4201D385
:10310000022FE6D194F845503A466DB2414620462A
:10311000FFF7E9FD6B1CD7D1636A002BC4D10120F6
:10312000CEE74FF0500383F31188BFF36F8FBFF3E7
:103130004F8FFEE72DE9F04385B0884601920446A3
:1031400040B94FF0500383F31188BFF36F8FBFF383
:103150004F8FFEE7002940F08680036C002B00F0C3
:1031600082804FF0500383F31188BFF36F8FBFF35A
:103170004F8FFEE7019E002E7AD04FF0500383F36D
:103180001188BFF36F8FBFF34F8FFEE7019D1DB90D
:10319000FFF78AFB002052E016B902A800F0BAFC43
:1031A000FFF782FB00F0A4FAFFF75CFB94F84430D1
:1031B000FF2B08BF84F8447094F84530FF2B08BFFC
:1031C00084F84570FFF770FB01A902A800F0AEFC7F
:1031D00000283DD12046FFF77BFD98B3019904F10B
:1031E000240000F01FFC2046FFF7C5FD00F01EFB89
:1031F00038B94FF08053C9F80030BFF34F8FBFF399
:103200006F8F0126FFF72EFBA56B002DBED0414628
:103210002046013DFFF79AFDA563236963B104F1E0
:10322000100000F037FC38B1134B4FF080521A6099
:10323000BFF34F8FBFF36F8FFFF736FB012005B051
:10324000BDE8F0832046FFF796FD00F0EFFAD8E7DF
:103250002046FFF790FD00F0E9FA2046FFF738FD21
:103260000028CED096E700F0A3FC002882D00026EC
:103270000027DFF80490C5E704ED00E030B5074A09
:10328000002352F8335002EBC3041DB942F8331047
:10329000606030BD0133082BF3D130BDA44900205C
:1032A00070B504460D461646FFF7DCFA94F8443034
:1032B000FF2B04BF002384F8443094F84530FF2BE3
:1032C00004BF002384F84530FFF7EEFAA36B2BB957
:1032D0003246294604F1240000F0BEFB2046BDE83A
:1032E0007040FFF748BD00002DE9F0410446FFF7AC
:1032F000B9FA2E4B2E4D1A682E4F01321A602E68E5
:10330000002E47D12C601B68012B1DD1B819143633
:10331000FFF7FCF9B6F58C6FF8D1DFF8C480264EC4
:103320004046FFF7F3F93046FFF7F0F92348FFF77F
:10333000EDF92348FFF7EAF92248FFF7E7F9224BB6
:10334000C3F80080214B1E60214A136801331360CB
:10335000204A63641168E36A14208B4200FB037007
:1033600004F1040188BF1360FFF7DEF9FFF79CFA50
:10337000194B1B6863B12B68DA6AE36A9A4207D279
:10338000164B4FF080521A60BFF34F8FBFF36F8F11
:10339000BDE8F081104B1B68002BD5D12B68DA6A91
:1033A000E36A9A4298BF2C60CEE700BFD84700205E
:1033B0006C4300207843002004480020204800206F
:1033C0004C480020384800207043002074430020FF
:1033D000E8470020EC4700203448002004ED00E0DE
:1033E000F0470020064A13681968064B19B94FF0D8
:1033F000FF321A6070471268D268D2685268F8E7E4
:1034000070430020184800202DE9F0470A9C099FCE
:1034100096000D4632468046A521206B994601F064
:1034200070FC236B043E1E4426F007066B1E04F15D
:1034300034020F35597802F8011B13F8011F09B146
:10344000AB42F7D1089D372D28BF37254FF0000A32
:10345000E562E564201D84F843A0C4F850A0FFF79E
:1034600060F9C5F1380504F11800FFF75AF9C4F8FE
:1034700054A02461A561646284F858A04A4641467C
:103480003046FFF7C3F9206007B13C60BDE8F08724
:1034900010B590F8593004463BB9006BFFF7E0FBDC
:1034A0002046BDE81040FFF7DBBB012BF9D0022B13
:1034B00008D04FF0500383F31188BFF36F8FBFF331
:1034C0004F8FFEE710BD000080B5DFF85C80124F23
:1034D000124C134D236863B9124B1B68012BF8D9AA
:1034E0004FF08053C8F80030BFF34F8FBFF36F8F9A
:1034F000EEE7FFF7B7F9FB68DE68301DFFF737F935
:103500002B68013B2B602368013B2360FFF7CCF95C
:103510003046FFF7BDFFDDE74C480020DC470020C8
:10352000D84700207843002004ED00E0F8B5164BA2
:10353000164D1E680446286804300F46FFF717F939
:10354000631C2B4607D137B1296811480431BDE807
:10355000F840FFF7E9B834441A68A642546007D926
:103560000C4A10681968BDE8F8400431FFF7E8B864
:10357000094A106819680431FFF7E2F8074B1A6826
:10358000944238BF1C60F8BD604800206C430020A6
:103590003848002074430020704300201848002061
:1035A00070B586B00B9D0C9C45B94FF0500383F36A
:1035B0001188BFF36F8FBFF34F8FFEE744B94FF011
:1035C000500383F31188BFF36F8FBFF34F8FFEE774
:1035D0005C260496049E5C2E08D04FF0500383F3C3
:1035E0001188BFF36F8FBFF34F8FFEE7256302256E
:1035F00084F8595005AD01950A9D02940095FFF796
:1036000003FF2046FFF770FE059806B070BD2DE958
:10361000F043074685B09000884616469946FFF766
:1036200091FA0546E8B15C20FFF78CFA0446A8B190
:10363000002380F859300D9B056301930C9B029089
:10364000009332464B4641463846FFF7DDFE2046A2
:10365000FFF74AFE012005B0BDE8F0832846FFF7DA
:10366000FFFA4FF0FF30F6E710B588B0002407AA44
:1036700006A905A805940694FFF730F8059B029368
:10368000069B019300942346079A14491448FFF7B8
:1036900087FFA0B908B010BD4FF0500383F3118825
:1036A000BFF36F8FBFF34F8F0E4B4FF0FF321A6097
:1036B0000D4B18600D4B1C60FFF76CF9EAE700F04A
:1036C0007DFB0128E8D00130E4D14FF0500383F3B3
:1036D0001188BFF36F8FBFF34F8FFEE75855000877
:1036E000C9340008184800203448002060480020F1
:1036F000024A136801331360704700BFE44700209B
:10370000014B1868704700BF604800202DE9F84F52
:103710003B4B1B68002B51D13A4B1C6801341C6099
:10372000BCB9394B1A68126842B14FF0500383F3A9
:103730001188BFF36F8FBFF34F8FFEE7334A1968CD
:10374000106818601160324A136801331360FFF784
:1037500049FE304D304F2B689C424FF0000B3CD35C
:10376000DFF8A480DFF8C090D8F80020126862BBB0
:103770004FF0FF322A6030E006F1040A5046FEF7AF
:10378000F6FFB16A19B106F11800FEF7F0FFF06A12
:10379000D9F80010214B88424FF0140288BFC9F8B5
:1037A0000000514602FB0030FEF7BEFF3868F16AA8
:1037B000C26A914228BF4FF0010BD5E7184A13683F
:1037C000013313604FF0000B11E0D8F80020D268ED
:1037D000D66871688C42CFD229603A680F4BD16AA3
:1037E00014224A439A58022A28BF4FF0010B0D4A6F
:1037F0001268002A18BF4FF0010B5846BDE8F88F39
:10380000E4470020604800207043002074430020FB
:103810001C480020184800206C43002078430020FA
:10382000E047002064480020EC4700202DE9F041EB
:103830002F4C236843B94FF0500383F31188BFF333
:103840006F8FBFF34F8FFEE7FFF70CF82368013B44
:10385000236024682CB10024FFF726F82046BDE839
:10386000F081244B1B68002BF5D0234E234FDFF84B
:10387000A0803368E3B90CB1FFF7B4FD204D2C688C
:1038800044B1204E0127FFF741FF00B13760013CF2
:10389000F9D12C601B4B1B68002BDCD01A4B4FF06E
:1038A00080521A60BFF34F8FBFF36F8F0124D3E7AD
:1038B000F368DC68251D04F11800FEF758FF284660
:1038C000FEF755FFE36A3A681420934200FB038039
:1038D000294688BF3B60FEF727FF0C4BE26A1B6856
:1038E000DB6A9A4222BF074B01221A60C1E700BF80
:1038F000E4470020D847002020480020EC47002063
:10390000E04700206448002004ED00E06C43002004
:103910007843002038B540B94FF0500383F3118845
:10392000BFF36F8FBFF34F8FFEE741B94FF05003E6
:1039300083F31188BFF36F8FBFF34F8FFEE7184BF0
:103940001C6844B14FF0500383F31188BFF36F8FAD
:10395000BFF34F8FFEE7FFF7CBFE124B02681D68E7
:10396000954201EB020317D29A4203D99D422CBF24
:103970000024012403601CB10021581BFFF7D6FD71
:10398000FFF754FF38B9084B4FF080521A60BFF36D
:103990004F8FBFF36F8F38BD9A42E7D90124E9E713
:1039A000E44700206048002004ED00E0184B1A684E
:1039B000184BF0B512B101221A60F0BD164D1A6015
:1039C000164A2B681427164607FB03F15018545863
:1039D0008CB144680831646844600A44944204BF6E
:1039E00062684260142202FB03625268D1680C4A8A
:1039F00011602B60F0BD43B94FF0500383F3118881
:103A0000BFF36F8FBFF34F8FFEE7013BDCE700BFD3
:103A1000E447002064480020EC4700207843002061
:103A20006C43002010B50C4640B94FF0500383F3AF
:103A30001188BFF36F8FBFF34F8FFEE7054B1968F7
:103A40001831FEF77DFE20460121BDE81040FFF74A
:103A50006DBD00BF6C43002038B50D46144640B91B
:103A60004FF0500383F31188BFF36F8FBFF34F8F75
:103A7000FEE7074B19681831FEF756FE002C214669
:103A80000CBF28464FF0FF30BDE83840FFF74EBD71
:103A90006C43002038B5C368DC6844B94FF050036C
:103AA00083F31188BFF36F8FBFF34F8FFEE704F1ED
:103AB00018052846FEF75BFE104B1B68DBB9251D79
:103AC0002846FEF754FE0E4AE36A11688B4288BF0F
:103AD00013600C4A1420294600FB0320FEF724FE45
:103AE000094BE26A1B68DB6A9A4283BF074B0120DD
:103AF0001860002038BD29460548EFE7E44700205C
:103B0000EC470020784300206C43002064480020EC
:103B100020480020034B1B680360034B1B68436075
:103B2000704700BF1C4800206048002070B50C465C
:103B3000054640B94FF0500383F31188BFF36F8FF0
:103B4000BFF34F8FFEE741B94FF0500383F3118865
:103B5000BFF36F8FBFF34F8FFEE7FEF783FE0F4B70
:103B600069681A682368581C0ED00D482E680068D2
:103B7000864201D08A420ED2521A9A4209D29B1A28
:103B800023602846FFF7C6FF0024FEF78DFE20467F
:103B900070BD002323600124F7E700BF60480020C8
:103BA0001C480020014B01221A6070476448002025
:103BB000054B1B6833B1054B1B68002B0CBF022063
:103BC000002070470120704734480020E44700205F
:103BD00038B5044608B9002038BD1B4B1B68984215
:103BE00008D04FF0500383F31188BFF36F8FBFF3FA
:103BF0004F8FFEE7036D43B94FF0500383F31188F5
:103C0000BFF36F8FBFF34F8FFEE7C16AC26C013BFA
:103C100091420365DFD0002BDDD1051D2846FEF75C
:103C2000A6FDE36CE362C3F13802A261074A1168A2
:103C30008B4288BF1360064A142000FB03202946EC
:103C4000FEF772FD012038BD6C430020EC470020D8
:103C500078430020F8B50D46044640B94FF05003B4
:103C600083F31188BFF36F8FBFF34F8FFEE7FEF72B
:103C700017FFEFF311874FF0500383F31188BFF361
:103C80006F8FBFF34F8F022394F8582084F8583079
:103C9000636D012A03F10103636527D1A36A43B170
:103CA0004FF0500383F31188BFF36F8FBFF34F8F33
:103CB000FEE7134B1B68E3B9261D3046FEF757FDA0
:103CC000104AE36A11688B4288BF13600E4A1420C1
:103CD000314600FB0320FEF727FD0C4BE26A1B6810
:103CE000DB6A9A4202D901233DB12B6087F3118828
:103CF000F8BD04F118010648EDE7064A1360F5E740
:103D0000E4470020EC470020784300206C4300206B
:103D10002048002064480020F7B5114CFEF7A2FDB2
:103D20002568BDB90F4F104E3846FEF7EFFC304600
:103D3000FEF7ECFC0D4B0E4A1F600E4B10211E606F
:103D40000A2000950C4BFFF78FF8206010B10B494B
:103D5000FFF794FA03B0BDE8F040FEF7A5BD00BF41
:103D60008C49002010490020244900206848002088
:103D7000704800206C4800203C4900205D55000838
:103D8000914208B5416000610AD8D21A83699A420B
:103D90000DD2084B011D1868FEF7D2FC002008BDAB
:103DA0009A4201D2994202D2011D034BF3E701204E
:103DB00008BD00BF6C4800206848002010B588B0DE
:103DC000FFF7AAFF134B1B6843B94FF0500383F36F
:103DD0001188BFF36F8FBFF34F8FFEE7002407AA50
:103DE00006A905A805940694FEF784FC059B02939A
:103DF000069B019302230093079A0749074823462D
:103E0000FFF7CEFB064B18600028DED0012008B07B
:103E100010BD00BF8C49002062550008C13F00085A
:103E2000904900202DE9F041804630200D4617468C
:103E30001E46FEF787FE0446C0B145B94FF0500359
:103E400083F31188BFF36F8FBFF34F8FFEE7FFF748
:103E500063FF069B6362C4F80080A561E761266288
:103E6000201DFEF75EFC002384F82C302046BDE8C0
:103E7000F0812DE9F3411E4630230193019B099CFB
:103E8000302B80460D46174608D04FF0500383F381
:103E90001188BFF36F8FBFF34F8FFEE744B94FF028
:103EA000500383F31188BFF36F8FBFF34F8FFEE78B
:103EB00041B94FF0500383F31188BFF36F8FBFF305
:103EC0004F8FFEE7FFF728FF089B6362201DC4F8B1
:103ED0000080A561E7612662FEF723FC01232046EE
:103EE00084F82C3002B0BDE8F081000030B51546F2
:103EF00085B01A46034640B94FF0500383F311884A
:103F0000BFF36F8FBFF34F8FFEE70D4C206880B17A
:103F100005298DE8220002930DDCFFF749FE0023FE
:103F2000022808BF089A206818BF1A466946FEF79B
:103F3000E9FF05B030BD00236946FFF799F8F8E7BF
:103F40008C4900202DE9F3411B4D4FF000082B68F0
:103F50001A6832B9194A11682960136002B0BDE8C5
:103F6000F081DB68DC681E68271D3846FEF7FFFB22
:103F7000636A20469847E369012BE8D1A36933447B
:103F80009E4206D26360246139462868FEF7D8FB5A
:103F9000DDE70023CDF80080324619462046FFF7C2
:103FA000A5FF0028D3D14FF0500383F31188BFF34E
:103FB0006F8FBFF34F8FFEE7684800206C480020EA
:103FC0002DE9F04F724DDFF8D88189B02F462B686C
:103FD000D3F800B0BBF1000F44D0DB68D3F80090F9
:103FE000FFF786FBFFF78CFB6A4B1A68904282460C
:103FF0001E4639D20393FFF7A5FF039B0124C3F8A4
:1040000000A0002C40F08A80BBF1000F6BD0D1459E
:1040100000F28280FFF70AFC3B68DB68D3F80CB043
:104020000BF10400FEF7A3FBDBF81C30012B1DD1C4
:10403000DBF818104B46524649445846FFF7A0FE9D
:10404000A0B1009423464A4621465846FFF74EFF4A
:1040500060B94FF0500383F31188BFF36F8FBFF344
:104060004F8FFEE7D946BBE70024C8E7DBF82430D2
:1040700058469847DFF82491D9F80000002204A997
:10408000FFF758F80028A2D0049B002B03DA079909
:104090000698059B9847049B002BEDDB069C636903
:1040A00013B1201DFEF763FBFFF72AFB336898422C
:1040B000834601D2FFF746FF049AC6F800B0092AEA
:1040C000DAD80123934013F4047A4ED113F0C70FCA
:1040D00027D19B06D0D594F82C30002BCCD120468C
:1040E000FEF7BEFDC8E72C4B1B681A68B2FA82F2D5
:1040F00052092A4BA9EB0A011868FFF7D1F8FFF71C
:1041000095FB0028B6D14FF08053C8F80030BFF3BC
:104110004F8FBFF36F8FADE72246EAE7FFF786FBCD
:10412000A8E7A169059B5A4619442046FFF728FED7
:104130000028A1D0636A20469847E369012B9BD1F0
:10414000A2690599CDF800A00A445346514620467D
:10415000FFF7CCFE00288FD14FF0500383F3118876
:10416000BFF36F8FBFF34F8FFEE70599A16141B990
:104170004FF0500383F31188BFF36F8FBFF34F8F5E
:10418000FEE75B465A4659442046FFF7F9FD73E7C0
:1041900068480020384900206C4800208C490020E5
:1041A00004ED00E010B5044640B94FF0500383F32E
:1041B0001188BFF36F8FBFF34F8FFEE7FEF752FBFF
:1041C000246AFEF771FB204610BD704773B5FFF7F8
:1041D00097FA0A230190062243494448444D454E2C
:1041E000FEF736F9444C284600220821FCF752FF1E
:1041F0002023237017236370214632230222304686
:10420000FDF7D9FA284601220821FCF743FF28468A
:1042100000220821FCF73EFFA02323702146322311
:1042200001223046FDF7C7FA3223012233493046D6
:10423000FDF759FC284601220821FCF72BFF2846F0
:1042400000220821FCF726FFA923237021463223F0
:1042500001223046FDF7AFFA3223012228493046C9
:10426000FDF741FC012208212846FCF713FF0A2034
:10427000FCF7BAF9284600220821FCF70BFFAB2314
:1042800023702146322301223046FDF794FA32236F
:1042900001221C493046FDF726FC01220821284650
:1042A000FCF7F8FE0A20FCF79FF9284600220821B7
:1042B000FCF7F0FEAD232370214632230122304665
:1042C000FDF779FA322301220F493046FDF70BFC46
:1042D000284601220821FCF7DDFE4FF47A7101A87F
:1042E000FFF718FB7EE700BFD0550008A84B002061
:1042F00000100240E84B00202C4D0020C84C00204C
:10430000D04A00202E4D0020424C002010B594B021
:104310003022002108A800F0F4FC1422002103A898
:1043200000F0EFFC1F4B002101911A6C42F080520B
:104330001A641B6C03F080530193019B1A4B02918A
:104340001A6842F480421A601B6803F480430293A7
:10435000029B012308934FF4803309934FF48003A9
:104360000F930423109354230224119308A80723C6
:104370000E9412941393FCF79FFE00B1FEE70F23F7
:1043800003934FF480530590069321464FF4A053B6
:1043900003A804940793FDF763F800B1FEE714B097
:1043A00010BD00BF003802400070004080B598B0DA
:1043B0000024A84DDFF8D082FCF7EAF8FFF7A6FF4B
:1043C000142200210EA800F09CFC02942B6BA24842
:1043D00043F010032B632B6B03F010030293029B3B
:1043E00003942B6B43F080032B632B6B03F0800350
:1043F0000393039B04942B6B43F001032B632B6B00
:1044000003F001030493049B05942B6B43F0020318
:104410002B632B6B03F002030593059B06942B6B18
:1044200043F008032B632B6B03F008030693069BF2
:1044300007942B6B43F004032B632B6B03F00403F3
:10444000079322460821079BFCF724FE22464FF4DF
:1044500040418248FCF71EFE012608230EA97E4833
:104460000E930F96109411940227FCF733FD0EA9BA
:104470007B480E97CDF83C801094FCF72BFD4FF451
:1044800040430EA975480E930F9610941194FCF7B3
:1044900021FD4FF480730EA972480E930F9410946F
:1044A000FCF718FD0EA96C480E96CDF83C801094D0
:1044B000FCF710FD224605210620FCF77BFB0620B9
:1044C000FCF7ACFB01942B6B43F400132B632B6BB9
:1044D00003F400132246052101930D20019BFCF7F4
:1044E00069FB0D20FCF79AFB224605210F20FCF703
:1044F00061FB0F20FCF792FB224605211020FCF700
:1045000059FB1020FCF78AFB224605211120FCF7FD
:1045100051FB1120FCF782FB5348544B84604FF44D
:10452000827580E828004FF4007383611823C3610B
:104530000A23C46004614461046244628462C36209
:10454000FDF7FCF8054600B1FEE74FF01008014604
:1045500042460AA800F0D5FB1C2229460EA8444C6E
:104560000895099500F0CDFB424BA56084E8080151
:1045700020466423E3602561A561FDF7F7FC00B1E7
:10458000FEE74FF480530AA920460A93FDF7C4FDC5
:1045900000B1FEE72046FDF703FD00B1FEE70890FD
:1045A000099008A92046FDF74BFE024600B1FEE740
:1045B00060230E931090322312900EA920460F9381
:1045C000FDF73EFD00B1FEE704220EA9204610973C
:1045D000FDF736FD054600B1FEE7204600F0B8F9CC
:1045E0002548264B85604FF4E13480E818004FF4ED
:1045F0000053C3600C23056143618561C561FDF70C
:10460000F9FE00B1FEE71E4C1E49A0607E2384E83F
:104610000A004FF43023E060236120764FF440130A
:104620006076A076E0762077607720466361FBF7BE
:10463000EFFF00B1FEE7139012900E900F901090D4
:10464000119014900EA9204616961596FCF75CF86A
:10465000E0B1FEE70038024000100240000C0240CA
:104660000004024000080240E84B002000300140F6
:10467000F44A002000040040444C00200044004064
:10468000844C002000640040000011101C48FCF71E
:10469000C3F800B1FEE702211948FCF75EF900B14A
:1046A000FEE7184C184AA0604FF4E13384E80C0090
:1046B0004FF40053E36020610C23A061E0612046C9
:1046C0006361FDF797FE054600B1FEE70A2320224D
:1046D0000E492046FDF7BCFEFDF724FF0C4B0D48AC
:1046E0002A460121FDF7BAFF0B4B0C4A18602946F8
:1046F0000B48FDF753FF0B4B1860FDF72FFFFEE74C
:10470000844C0020A84B0020004C0040D9550008E4
:10471000FC550008CB410008A04B0020AC55000818
:10472000CD410008CC4A002038B5224C224905462C
:104730000A230C222148FDF78BFE28462346204AF7
:104740000021FCF794F8054600B1FEE70A230D228C
:104750001C491A48FDF77CFE22781B491B4800F0D3
:10476000D9FA62781A491B4800F0D4FA1948FBF7C5
:104770002FFD0A2382B217491048FDF769FE13483E
:10478000FBF726FD0A2382B210490C48FDF760FEB4
:1047900022461149114800F0BDFA0A230F49074883
:1047A0000F22FDF755FE29462846BDE83840FFF7A1
:1047B00051BA00BF404C00206A550008A84B0020A9
:1047C000AC4C00207655000883550008E94A0020CB
:1047D0008B550008944B002096550008D24A0020C3
:1047E0000268034B9A4201D1FBF7ECBE704700BF51
:1047F00000000140FEE7000007B50F4B00220092C9
:10480000596C41F480415964596C01F48041009124
:1048100000990192196C41F0805119641B6C03F0EE
:10482000805301930F216FF00100019BFCF7C2F947
:1048300003B05DF804FB00BF0038024010B5044629
:1048400088B01422002103A800F05BFA2268174BFD
:104850009A4229D103F5EA33002401941A6C1448D2
:1048600042F000721A641A6C02F000720192019A0E
:1048700002941A6B42F008021A631B6B03F00803E0
:104880000293029B032302220393069303A90923A5
:1048900004920793FCF71EFB142022460521FCF727
:1048A00089F91420FCF7BAF908B010BD0064004083
:1048B000000C024010B5044688B01422002103A861
:1048C00000F01FFA2268144B9A4222D103F5843378
:1048D000002101915A6C114842F480525A645A6C7A
:1048E00002F480520192019A02911A6B42F0010285
:1048F0001A631B6B03F001030293029BE0230393F3
:10490000022304930323069303A905230793FCF7CB
:10491000E1FA08B010BD00BF0030014000000240C5
:104920000268094B9A4282B00BD100230193074BD6
:104930001A6C42F002021A641B6C03F0020301932A
:10494000019B02B0704700BF0004004000380240E5
:1049500010B5044686B01422002101A800F0D1F958
:1049600022680D4B9A4214D1002300930B4B0C4844
:104970001A6B42F004021A631B6B03F004030093EA
:10498000009BC023019301A9022302930593FCF726
:10499000A1FA06B010BD00BF00040040003802407C
:1049A0000008024070B514228AB0054600210DEBC4
:1049B000020000F0A6F92B684C4A934256D100261B
:1049C0004B4B01961A6C4B484B4C42F400221A6434
:1049D0001A6C02F400220192019A02961A6B42F0BC
:1049E00001021A631B6B03F001030293029B022274
:1049F00003230593069208930122082305A909932E
:104A00000792FCF767FA3D49A6604FF0006384E81F
:104A10000A0020464FF48063E66023616661A66168
:104A2000E66126626662FCF71DF908B1FFF7E2FE57
:104A30006C63334BA563334C23604FF000636360BA
:104A40004023A3604FF480620023E360226163612E
:104A5000A361E361236263622046FCF703F908B1B6
:104A6000FFF7C8FE2C63A5630AB070BD264A9342C7
:104A7000FAD100261E4B03961A6C1E48234C42F4B2
:104A800000321A641A6C02F400320392039A0496FC
:104A90001A6B42F001021A631B6B03F001030493CB
:104AA000049B0C230593022306930323089305A973
:104AB00007230993FCF70EFA154AA6604FF000632E
:104AC00084E80C0020464FF48063E6602361666151
:104AD000A661E66126626662FCF7C4F808B1FFF7DA
:104AE00089FE6C630B4BA5630B4CA5E7004C0040A3
:104AF00000380240000002400C4A002040600240A2
:104B000070600240CC4C0020004400406C4A002001
:104B100088600240A0600240344B002030B501465E
:104B200089B000221920FCF745F81920FCF776F827
:104B30000025154B02955A6C144C42F001025A6440
:104B40005B6C03F00103029301A903A8029BFCF72D
:104B500043FDFCF731FD0E4B236040F2E733E36089
:104B600040000C4BB0FBF3F001386060204625613B
:104B7000A560FDF7FBF920B92046FDF7D9F809B08B
:104B800030BD0120FBE700BF00380240304D00205F
:104B90000000014040420F007047FEE7FEE7FEE7DD
:104BA000FEE770470120FCF77BBA00000148FCF7E4
:104BB000D7B800BF0C4A00200148FCF7D1B800BFAD
:104BC000CC4C00200148FCF7CBB800BF6C4A002059
:104BD0000148FCF7C5B800BF344B00200148FBF783
:104BE000D9BE00BF844C00200148FDF7B6B800BF15
:104BF000304D002008B50A4B1968024609B9094929
:104C000019601868694602448A4206D900F044F8DF
:104C10000C2303604FF0FF3008BD1A6008BD00BFD1
:104C200094490020744D0020054BD3F8882042F4AD
:104C30007002C3F888204FF000629A60704700BF8E
:104C400000ED00E0DFF834D0002103E00C4B5B58AE
:104C5000435004310B480C4B42189A42F6D30B4A8E
:104C600002E0002342F8043B094B9A42F9D3FFF7D4
:104C7000DBFF00F017F8FFF799FB704700000220F8
:104C80007C56000800000020740000207400002002
:104C9000744D0020FEE70000014B1868704700BF0C
:104CA0001000002070B50D4E0D4CA41BA410002563
:104CB000A54209D10B4E0C4C00F03EFCA41BA410E5
:104CC0000025A54205D170BD56F82530984701351D
:104CD000EEE756F8253098470135F2E7745600089C
:104CE00074560008745600087856000810B5431E24
:104CF0000A44914200D110BD11F8014B03F8014F55
:104D0000F7E702440346934200D1704703F8011BC2
:104D1000F9E700000EB400B59CB04FF402711DAB72
:104D2000ADF81410029006906FF000410A4804910B
:104D300007914FF6FF7153F8042BADF81610006879
:104D4000019302A900F066F8029B00221A701CB0C1
:104D50005DF804EB03B07047100000202DE9F04728
:104D60008E689E4282460C469146984635D88A897E
:104D700012F4906F31D0256809696F1A65690223B2
:104D800005EB450595FBF3F508F101033B449D4216
:104D900038BF1D46530531D5294600F02DFB064688
:104DA00050B90C23CAF80030A38943F04003A38113
:104DB0004FF0FF30BDE8F0873A462169FFF796FFD4
:104DC000A38923F4906343F08003A3812661656186
:104DD0003E44ED1B2660A5604646464528BF464634
:104DE00032464946206800F09FFAA3689B1BA360E7
:104DF00023681E4426600020BDE8F0872A4600F0A4
:104E000059FB06460028E1D12169504600F0A6FA78
:104E1000C7E700002DE9F04F9DB0804603938B89D2
:104E20001C060D4616460FD50B696BB9402100F0E4
:104E3000E3FA2860286128B90C23C8F800304FF045
:104E4000FF30C5E040236B610023099320238DF8D8
:104E5000293030238DF82A304FF0010B37463C467D
:104E600014F8013B002B3CD1B7EB060A0BD053469C
:104E7000324629464046FFF771FF013000F0A3801B
:104E8000099B534409933B78002B00F09C8000233E
:104E90004FF0FF3204930793059206938DF8533039
:104EA0001A93052221785048FBF79AF9671C049B56
:104EB000D8B9D90644BF20228DF853201A0744BF21
:104EC0002B228DF8532022782A2A16D0079A002107
:104ED0000A20274601343B78303B092B51D9C9B110
:104EE00011E0252BC0D02746B9E73F4A801A0BFABC
:104EF00000F0184304903C46D3E7039A111D126852
:104F00000391002A01DB079204E0524243F00203BE
:104F1000079204933B782E2B0ED17B782A2B07F136
:104F2000010132D1039B1A1D1B680392002BB8BFED
:104F30004FF0FF33023705932C4C3978032220467B
:104F4000FBF74EF938B14023001B03FA00F0049B35
:104F5000034304930137397825488DF82810062239
:104F60007E1CFBF73DF9002835D0224BFBB9039B93
:104F7000073323F0070308330393099B4B4409933A
:104F80006CE700FB02320121A3E7002305931846DA
:104F90000A240F4601313A78303A092A03D9002B06
:104FA000CAD00590C8E704FB00200123F1E703AB5A
:104FB00000932A46104B04A94046AFF30080B0F19D
:104FC000FF3F8146D9D1AB895B063FF538AF0998E1
:104FD0001DB0BDE8F08F03AB00932A46064B04A931
:104FE000404600F081F8EAE7375600083D560008D1
:104FF00041560008000000005D4D00082DE9F04713
:1050000091461F468A680B69DDF820809342B8BF3D
:105010001346C9F8003091F8432006460C4612B1F9
:105020000133C9F800302368990642BFD9F800302F
:105030000233C9F80030256815F0060507D104F1E0
:10504000190AE368D9F800209B1A9D4229DB94F8DD
:1050500043302268003318BF012392062ED404F196
:10506000430239463046C047013021D02368E56805
:10507000D9F8002003F00603042B08BFAD1AA3687B
:1050800022690CBF25EAE57500259342C4BF9B1A2F
:10509000ED184FF000091A344D451BD10020BDE832
:1050A000F0870123524639463046C047013003D1CC
:1050B0004FF0FF30BDE8F0870135C2E7E1185A1C18
:1050C000302081F84300224494F8451082F84310C0
:1050D0000233C4E70123224639463046C047013037
:1050E000E6D009F10109D7E72DE9F04317460A7E1A
:1050F00085B06E2A984606460C460C9B01F1430E7D
:1051000000F0BC801AD8632A2ED00AD8002A00F0FA
:10511000C880582A00F08A8004F1420584F84220B1
:105120002AE0642A01D0692AF6D121681A6811F0B0
:10513000800F23D0111D1960136827E0732A00F037
:10514000B48008D86F2A2AD0702AE5D10A6842F0C4
:1051500020020A6003E0752A21D0782ADCD1782267
:1051600084F845206E4964E01A6801F14205111D7A
:105170001960136884F842300123A3E011F0400F56
:1051800002F104011960D7D0B2F90030002B03DA24
:105190002D225B4284F8432062490A2217E02068EE
:1051A000196810F0800F03D0081D18600B6806E026
:1051B00010F0400F01F104001860F7D00B88594936
:1051C0006F2A14BF0A220822002084F84300656871
:1051D000A560002DC0F29C80206820F004002060B3
:1051E000002B3FD1002D40F095807546082A0BD149
:1051F0002368DA0708D5236962689A42DEBF302344
:1052000005F8013C05F1FF35AEEB05032361CDF850
:1052100000803B4603AA21463046FFF7EFFE0130EF
:1052200055D14FF0FF3005B0BDE8F08381F845203F
:105230003C492268186812F0800F00F104051D60D7
:1052400001D0036802E05506FBD50388D00744BFB0
:1052500042F0200222601BB9226822F02002226064
:105260001022B1E77546B3FBF2F002FB1033CB5CC2
:1052700005F8013D03460028F5D1B7E708681A682C
:10528000496910F0800F04D0101D18601368196070
:1052900007E010F0400F02F1040018601368F6D028
:1052A0001980002323617546B1E71A68111D196042
:1052B0001568626800212846FAF792FF08B1401B82
:1052C000606063682361002384F843309FE72369AB
:1052D0002A4639463046C0470130A2D023689B0792
:1052E00007D5002504F11909E368039A9B1A9D422A
:1052F00005DBE068039B9842B8BF184693E701239B
:105300004A4639463046C04701308AD00135EBE77E
:10531000002BA7D10B7884F8423004F1420565E7F1
:105320005956000848560008884210B501EB0203A0
:1053300003D8421E99420CD110BD9842F9D281186F
:10534000D21AD34200D110BD13F8014D01F8014D1E
:10535000F7E711F8014B02F8014FEBE738B50546C6
:10536000002945D051F8043C0C1F002BB8BFE418AD
:1053700000F0D6F81F4A1368104633B96360146012
:105380002846BDE8384000F0CCB8A3420CD92168CB
:105390006218934204BF1A685B68636004BF5218C6
:1053A00022600460ECE713465A680AB1A242FAD9B7
:1053B00019685818A0420BD120680144581882423D
:1053C0001960DDD1106852685A6001441960D7E74E
:1053D00002D90C232B60D3E7206821188A4204BF2E
:1053E00011685268626004BF091821605C60C7E7F9
:1053F00038BD00BF9849002070B5CD1C25F00305CD
:1054000008350C2D38BF0C25002D064601DBA942BE
:1054100003D90C233360002070BD00F081F8234ACB
:105420001468214691B9224C23681BB9304600F01C
:1054300067F820602946304600F062F8431C26D108
:105440000C233360304600F06CF8E4E70B685B1B1C
:105450001AD40B2B0FD90B60CD50CC18304600F06E
:1054600060F804F10B00231D20F00700C31A1BD0C5
:105470005A42E25070BD8C420DBF63684B68636056
:10548000136018BF0C46E9E70C464968CAE7C41C1C
:1054900024F00304A04205D0211A304600F030F871
:1054A0000130CDD02560D9E770BD00BF98490020FC
:1054B0009C490020F8B5074614460E4621B911460E
:1054C000BDE8F840FFF798BF22B9FFF747FF254630
:1054D0002846F8BD00F026F884420FD92146384608
:1054E000FFF78AFF05460028F2D031462246FFF733
:1054F000FDFB31463846FFF731FFE9E73546E7E780
:1055000038B5064C0023054608462360FFF772FBBA
:10551000431C02D1236803B12B6038BD704D0020BD
:105520007047704751F8040C0028A0F10400BCBF7C
:105530000B58C01870470000F8B500BFF8BC08BC95
:105540009E467047F8B500BFF8BC08BC9E46704741
:10555000000610160006101649444C4500546D72A2
:105560005100546D722053766300496E2043414EC2
:105570002052780D0A00496E2043414E2052783166
:105580000D0A0074656D703D25750049525F6461B8
:1055900074613D25750044617461205265636569DD
:1055A0007665642025730A0D000000001656000879
:1055B00000000000000000000000000000000000EB
:1055C0008000000018000000000000000000000043
:1055D000496E205350490D0A005265616C20546990
:1055E0006D65204163636964656E7420416C65720A
:1055F000742053797374656D0D0A00000C56000811
:105600000000000000000000000000006D795469F7
:105610006D65723031005350495F5461736B000007
:105620000000000000000001020304060708090052
:1056300000000001020304232D302B2000686C4C75
:1056400000656667454647003031323334353637BA
:1056500038394142434445460030313233343536DF
:0C56600037383961626364656600000041
:08566C0044ACFF7F01000000C7
:04567400B501000874
:045678009101000894
:10567C000100000010000000AAAAAAAA0024F4004D
:10568C0014000020000000000000000000000000DA
:10569C0000000000000000000000000000000000FE
:1056AC0000000000000000000000000000000000EE
:1056BC0000000000000000000000000000000000DE
:1056CC0000000000000000000000000000000000CE
:1056DC0000000000000000000000000000000000BE
:0456EC0000000000BA
:0400000508004C455E
:00000001FF
