:020000040800F2
:10000000000002200D320008CD310008CF31000879
:10001000D1310008D3310008D531000800000000BC
:1000200000000000000000000000000001140008B3
:10003000D73100080000000091140008F5140008F2
:100040005D3200085D3200085D3200085D32000854
:100050005D3200085D3200085D3200085D32000844
:100060005D3200085D3200085D3200085D32000834
:100070005D3200085D3200085D3200085D32000824
:100080005D3200085D3200085D3200085D32000814
:100090005D3200085D3200085D3200085D32000804
:1000A0005D320008D93100085D3200085D32000879
:1000B0005D3200085D3200085D3200085D320008E4
:1000C0005D3200085D3200085D3200085D320008D4
:1000D0005D3200085D3200085D3200085D320008C4
:1000E0005D3200085D3200085D3200085D320008B4
:1000F0005D3200085D3200085D3200085D320008A4
:100100005D3200085D3200085D3200085D32000893
:100110005D3200085D320008E53100085D320008FC
:100120005D3200085D3200085D3200085D32000873
:100130005D3200085D3200085D3200085D32000863
:100140005D3200085D3200085D3200085D32000853
:100150005D3200085D3200085D3200085D32000843
:100160005D3200085D3200085D3200085D32000833
:100170005D3200085D3200085D32000800000000BA
:080180005D3200085D32000849
:1001900010B5054C237833B9044B13B10448AFF3C1
:1001A00000800123237010BD10000020000000001B
:1001B000D032000808B5034B1BB103490348AFF325
:1001C000008008BD0000000014000020D0320008AC
:1001D00053B94AB9002908BF00281CBF4FF0FF31AE
:1001E0004FF0FF3000F07AB9ADF1080C6DE904CEA4
:1001F00000F006F8DDF804E0DDE9022304B0704702
:100200002DE9F0478C460D460446089E002B51D13F
:100210008A4217466DD9B2FA82FEBEF1000F0BD0AA
:10022000CEF1200C01FA0EF520FA0CFC02FA0EF7C2
:100230004CEA050C00FA0EF44FEA174A250CBCFBF9
:10024000FAF81FFA87F90AFB18CC45EA0C4508FBB7
:1002500009F3AB420AD9ED1908F1FF3280F023818E
:10026000AB4240F22081A8F102083D44ED1AA4B24D
:10027000B5FBFAF00AFB105544EA054400FB09F906
:10028000A14509D9E41900F1FF3380F00A81A145A5
:1002900040F2078102383C44A4EB090440EA0840DC
:1002A0000021002E61D024FA0EF400233460736024
:1002B000BDE8F0878B4207D9002E54D0002186E894
:1002C00021000846BDE8F087B3FA83F1002940F029
:1002D0008E80AB4202D3824200F2FA80841A65EB30
:1002E00003050120AC46002E3FD086E81010BDE883
:1002F000F08712B90127B7FBF2F7B7FA87FEBEF114
:10030000000F34D1EB1B3A0C1FFA87FC0121B3FB21
:10031000F2F8250C02FB183345EA03450CFB08F301
:10032000AB4207D9ED1908F1FF3002D2AB4200F21F
:10033000D1808046ED1AA3B2B5FBF2F002FB105556
:1003400043EA05440CFB00FCA44507D9E41900F17D
:10035000FF3302D2A44500F2B8801846A4EB0C0487
:1003600040EA08409DE731463046BDE8F087CEF1CF
:10037000200405FA0EF307FA0EF720FA04F83A0CF7
:1003800025FA04F448EA0308B4FBF2F14FEA1845F1
:1003900002FB11441FFA87FC45EA044501FB0CF3FC
:1003A000AB4200FA0EF409D9ED1901F1FF3080F0EB
:1003B0008A80AB4240F2878002393D44EB1A1FFA33
:1003C00088F5B3FBF2F002FB103345EA034500FB6E
:1003D0000CF3AB4207D9ED1900F1FF386FD2AB42F5
:1003E0006DD902383D44EB1A40EA01418FE7C1F173
:1003F000200722FA07F88B4005FA01F448EA0303C4
:1004000020FA07FE4FEA134CFD404EEA040EB5FBFE
:10041000FCF94FEA1E440CFB19551FFA83F844EA15
:10042000054509FB08F4AC4202FA01F200FA01FAB0
:1004300008D9ED1809F1FF3043D2AC4241D9A9F1F6
:1004400002091D442D1B1FFA8EFEB5FBFCF00CFBB0
:1004500010554EEA054400FB08F8A04507D9E418FA
:1004600000F1FF3529D2A04527D902381C4440EAC3
:100470000940A4EB0804A0FB02894C45C6464D4642
:1004800015D312D056B1BAEB0E0364EB050404FA8F
:1004900007F7CB401F43CC40376074600021BDE8B4
:1004A000F0871846F8E69046E0E6C245EAD2B8EB97
:1004B000020E69EB03050138E4E72846D7E740461A
:1004C00091E78146BEE7014678E702383C4445E7BC
:1004D000084608E7A8F102083D442BE7704700BF33
:1004E00008B50B4B1A6842F400721A601A6842F49D
:1004F00080621A601A6842F480721A60032000F069
:100500001BF8002002F024FE02F0E2FD002008BDEE
:10051000003C0240034A044B11681B780B441360F3
:10052000704700BF3049002000000020014B1868D0
:10053000704700BF30490020074AD36823F4E063C6
:100540001B041B0C43F0BF63000243F4003300F4B0
:10055000E0600343D360704700ED00E0174B30B517
:10056000DC68C4F30224C4F10703251D042B28BF53
:100570000423062D4FF0010505FA03F303F1FF33C1
:100580008CBF033C00241940A14005FA04F4013C4F
:100590002240002842EA01024FEA0212ADBF00F1F8
:1005A000604000F00F00064B00F56140B5BFD2B2CD
:1005B000D2B21A5480F8002330BD00BF00ED00E035
:1005C00014ED00E0002808DB4209012300F01F00C1
:1005D00003FA00F0014B43F82200704700E100E00D
:1005E0002DE9F04F85B00B68DFF8AC81684ADFF881
:1005F000AC91019300230124019D9C402540AC4215
:1006000040F0B0804C6824F0100C0CF1FF36012E45
:100610004FEA430E12D88768032606FA0EF627EA39
:100620000607CE6806FA0EF63E4386604768C4F3B6
:10063000001627EA05079E403E4346600326C7682A
:1006400006FA0EF6F64307EA060A8F6807FA0EF76F
:1006500047EA0A07BCF1020FC76016D14FEAD30A76
:1006600000EB8A0A03F0070BDAF820704FEA8B0BD5
:100670004FF00F0C0CFA0BFC27EA0C0C0F6907FA71
:100680000BF747EA0C07CAF8207007683E4004F0F1
:10069000030707FA0EFE4EEA06060660E60061D57D
:1006A0004FF0000BCDF80CB0D8F84470394E47F439
:1006B0008047C8F84470D8F8447007F4804703971F
:1006C000039F23F0030707F1804707F59C3703F0EA
:1006D000030CD7F808A04FEA8C0C4FF00F0E0EFA5F
:1006E0000CFEB0422AEA0E0E43D006F58066B042F8
:1006F00041D006F58066B0423FD006F58066B04234
:100700003DD006F58066B0423BD048453BD006F56B
:100710000066B04239D006F58066B04214BF0826A4
:10072000072606FA0CF646EA0E06BE601668EF4388
:1007300014F4803F0CBF3E402E431660566814F4FC
:10074000003F0CBF3E402E435660966814F4801F55
:100750000CBF3E402E439660D668A40254BF3E4074
:100760002E43D6600133102B7FF445AF05B0BDE8B2
:10077000F08F5E46D5E70126D3E70226D1E70326B0
:10078000CFE70426CDE70526CBE70626C9E700BF5D
:10079000003C0140000002400038024000140240CA
:1007A0000369194214BF0120002070470AB181611A
:1007B00070470904FBE700002DE9F341044608B93E
:1007C00001203FE00368DD0710D4236898075AD45E
:1007D00023681A0700F19C8023685B0700F1BA8048
:1007E000A069002840F01B8100202BE0A44B9A68F0
:1007F00002F00C02042A07D09A6802F00C02082AC0
:100800000AD15B68590207D59D4B1B689A03DCD55A
:100810006368002BD9D1D3E76368994DB3F5803F66
:1008200013D12B6843F480332B60FFF77FFE944D88
:1008300006462B689B03C8D4FFF778FE801B64280C
:10084000F7D9032002B0BDE8F081B3F5A02F04D1A1
:100850002B6843F480232B60E3E72A6822F480327C
:100860002A602A6822F480222A60002BDDD1FFF75B
:100870005DFE06462B689F03A7D5FFF757FE801B3A
:100880006428F7D9DDE77E4B9A6812F00C0F07D089
:100890009A6802F00C02082A11D15B685E020ED43D
:1008A000774B1A68950702D5E268012A88D11A6841
:1008B000216922F0F80242EAC1021A6088E7E26880
:1008C000704BB2B101221A60FFF730FE6C4D064644
:1008D0002B68980707D52B68226923F0F80343EAB1
:1008E000C2032B6074E7FFF721FE801B0228EFD9BB
:1008F000A7E71A60FFF71AFE614D06462B689907B5
:100900007FF566AFFFF712FE801B0228F6D998E745
:1009100062695D4B7AB101221A60FFF707FE584DFC
:1009200006466B6F9F073FF557AFFFF7FFFD801B34
:100930000228F6D985E71A60FFF7F8FD504D064604
:100940006B6F98077FF548AFFFF7F0FD801B02281B
:10095000F6D976E74A4B1A6C12F0805228D10192F0
:100960001A6C42F080521A641B6C03F0805301939E
:10097000019B0126454D2B68D9051BD5A368404D29
:10098000012B27D12B6F43F001032B67FFF7CEFD1F
:100990003B4D074641F288382B6F9B0739D5002E17
:1009A0003FF41EAF364A136C23F08053136417E7ED
:1009B0000026DFE72B6843F480732B60FFF7B6FD5A
:1009C00007462B68DA05D9D4FFF7B0FDC01B022813
:1009D000F7D936E7052B04D12B6F43F004032B67BF
:1009E000D0E72A6F22F001022A672A6F22F0040260
:1009F0002A67002BCAD1FFF799FD41F288380746D4
:100A00002B6F9807CBD5FFF791FDC01B4045F7D959
:100A100017E7FFF78BFDC01B4045BDD911E7184D07
:100A2000AB6803F00C03082B47D0194E00230228B3
:100A3000336035D1FFF77AFD07462B68990129D439
:100A4000226AE3691343626A43EA8213E26A43EA71
:100A50000263A26A0A4C5208013A43EA02436B60FD
:100A600001233360FFF762FD054623689A013FF5D5
:100A7000BBAEFFF75BFD401B0228F6D9E1E600BFE5
:100A80000038024000004742800E4742007000409C
:100A900060004742FFF74AFDC01B0228CDD9D0E6CF
:100AA000FFF744FD04462B689B017FF59DAEFFF7E1
:100AB0003DFD001B0228F6D9C3E601283FF4C2AE73
:100AC000A868E36900F480029A427FF479AE226A52
:100AD00000F03F0393427FF473AE626A47F6C0733F
:100AE000034093427FF46CAEA26A00F44033934219
:100AF0007FF466AEE36A00F07060C01A18BF012090
:100B0000A0E600BF134908B58B6803F00C03042B63
:100B100003D0082B03D0104808BD104808BD4A6810
:100B20004B68496813F4800314BF0C480A48C1F3AA
:100B3000881118BF002302F03F02A1FB0001FFF75C
:100B400047FB044B5B68C3F3014301335B00B0FB1D
:100B5000F3F008BD003802400024F40000127A00CF
:100B60002DE9F0410D46044610B90120BDE8F081A1
:100B7000444B1A6802F00F028A4229D321688F077A
:100B80002ED4C80741D43F4B1A6802F00F02954299
:100B900067D3226851076DD4130707D53A4A2169F4
:100BA000936823F4604343EAC1039360FFF7AAFF0D
:100BB000354B364A9B68C3F30313D35CD840344BA0
:100BC0001860344B186802F0C3FA0020BDE8F081C9
:100BD000CAB21A701B6803F00F039942C5D1CDE762
:100BE000294B11F0040F1EBF9A6842F4E0529A603C
:100BF0000E0742BF9A6842F460429A609A68A06801
:100C000022F0F00202439A60BBE762681E4B012AA1
:100C10001DD11B6813F4003FA7D01B4EB36823F00F
:100C200003031343B360FFF781FC41F288380746A2
:100C3000B368626803F00C03B3EB820FA3D0FFF735
:100C400075FCC01B4045F3D90320BDE8F081911E1F
:100C500001291B6802D813F0007FDDE713F0020FB3
:100C6000DAE7EAB21A701B6803F00F039D427FF4C3
:100C70007CAF8EE70449E0688B6823F4E0530343BC
:100C80008B6089E7003C024000380240B133000825
:100C90000C00002004000020044B054A9B68C3F3AD
:100CA0004233D35C034A1068D84070470038024092
:100CB000C13300080C0000200F2303600B4B9A681F
:100CC00002F0030242609A6802F0F00282609A68C1
:100CD00002F4E052C2609B68DB0803F4E053036156
:100CE000034B1B6803F00F030B6070470038024092
:100CF000003C02400368DA6842F00102DA609A6858
:100D000002F00702062A1EBF1A6842F001021A60AA
:100D100000207047704770477047704703681A6932
:100D2000910710B504460ED5DA6892070BD56FF01F
:100D300002021A619B6901229B07027777D0FFF7B5
:100D4000EAFF0023237723681A69500710D5DA6871
:100D500051070DD56FF004021A619B69022213F44A
:100D6000407F2277204668D0FFF7D5FF0023237706
:100D700023681A6912070FD5DA6810070CD56FF0CF
:100D800008021A61DB6904229907227720465AD0AB
:100D9000FFF7C1FF0023237723681A69D20610D515
:100DA000DA68D0060DD56FF010021A61DB690822EF
:100DB00013F4407F227720464BD0FFF7ACFF00238F
:100DC000237723681A69D10708D5DA68D20705D5D1
:100DD0006FF001021A61204602F070F923681A6967
:100DE000100608D5DA68110605D56FF080021A6181
:100DF000204600F0F8F823681A69520608D5DA6828
:100E0000500605D56FF040021A612046FFF785FFB6
:100E100023681A69910622D5DA6892061FD56FF009
:100E2000200220461A61BDE8104000F0DBB8FFF751
:100E300071FF2046FFF770FF83E7FFF76BFF204647
:100E4000FFF76AFF92E7FFF765FF2046FFF764FFB1
:100E5000A0E7FFF75FFF2046FFF75EFFAFE710BD9B
:100E6000304A0368904212D0B0F1804F0FD0A2F503
:100E70007C4290420BD002F58062904207D002F58E
:100E80008062904203D002F57842904219D14A68BC
:100E900023F070031343234A904229D0B0F1804FCE
:100EA00026D0A2F57C42904222D002F58062904288
:100EB0001ED002F5806290421AD002F5784290422C
:100EC00016D0194A904213D002F5806290420FD09A
:100ED00002F5806290420BD0A2F59832904207D082
:100EE00002F58062904203D002F58062904203D105
:100EF000CA6823F4407313434A6923F08003134301
:100F000003608B68C3620B688362064B984203D010
:100F100003F58063984201D10B69036301234361A8
:100F2000704700BF000001400040014010B504467A
:100F3000A0B190F83D3003F0FF021BB980F83C20CF
:100F400002F0E8F8022384F83D302068211DFFF705
:100F500087FF012384F83D30002010BD012010BD23
:100F600090F83C30012B30B54FF0020335D080F8BB
:100F70003D3003680D685C6824F0700401222C4346
:100F800080F83C209A685C60154CA3421AD0B3F1FB
:100F9000804F17D0A4F57C44A34213D004F580649D
:100FA000A3420FD004F58064A3420BD004F578442B
:100FB000A34207D004F57054A34203D0A4F594349F
:100FC000A34204D1496822F080020A439A600123B7
:100FD00080F83D30002380F83C30184630BD00BF1B
:100FE000000001407047704710B501F029FF20B1A3
:100FF00003684068BDE81040184710BDEFF3058353
:1010000013B16FF005007047EFF31083002BF8D198
:10101000074B1868022806D1EFF31183002BF0D19B
:101020004FF0FF3070470028FAD101221A60704754
:101030008802002010B5EFF3058313B16FF00500AF
:1010400010BDEFF31084002CF8D1094B1A68022A66
:1010500006D1EFF31183002BF0D14FF0FF3010BD1C
:10106000012AFAD102221A6001F06EF9204610BD61
:1010700088020020F0B587B0144600220B46059286
:10108000EFF3058272BBEFF310825ABB284A126855
:10109000022A02D1EFF3118222BB18B300228DF88D
:1010A0001320002C3CD0216809B90DF11301A5696A
:1010B000002D08BF18256A1E372A2F4635D86268CA
:1010C000D20732D4666986B1B208D4F808E0D4F801
:1010D0000CC0BEF1000F0AD0BCF15B0F02D924692D
:1010E00004B1AEB9059807B0F0BD8022EDE7BCF1C0
:1010F000000FF7D12469002CF4D105AC01940097BE
:1011000092B201F0F4F801281CBF00230593E9E72F
:10111000CDF808E00194009501F0B2F80590E1E700
:10112000182780220DF11301E7E70020DBE700BF5D
:101130008802002008B5EFF3058313B16FF00500B6
:1011400008BDEFF31083002BF8D1064B1B68022B70
:1011500003D1EFF31183002BF0D110B101F096FA17
:10116000002008BD88020020F7B506460D46174648
:101170001C46EFF3058313B1002003B0F0BDEFF37D
:101180001083002BF8D1164B1B68022B03D1EFF311
:101190001183002BF0D1002EEED0082000F0B2FA1F
:1011A00003460028E8D02A1C80E8C00018BF0122AE
:1011B000A4B1A1682068E46841B12F2CDCD9019169
:1011C00008490091012101F0A2FCD6E7002CD3D1FF
:1011D00004490091012101F073FCCEE72046F7E7B6
:1011E00088020020E90F000873B50E461546EFF39C
:1011F00005831BB10024204602B070BDEFF31083BD
:10120000002BF7D1234B1B68022B03D1EFF3118383
:10121000002BEFD10028EDD0B042EBD37DB1AB680D
:10122000EA6853B14F2AE5D9012810D01A46314651
:1012300000F06EFC044630BBDCE7002ADAD101285E
:101240001AD103220021012000F03BFC05E003221B
:1012500000920022114600F0E7FB04460028C9D0A6
:1012600086B100231A46194600F092FC012809D0E5
:10127000204600F06FFEBDE7314600F06BFC0446EF
:101280000028B7D025B12968204600F03DFEB2E71E
:101290002946F9E788020020034B0360034B0B60EB
:1012A00080231360704700BF2C0200202C00002018
:1012B000034B0360034B0B604FF480731360704764
:1012C0008C0600208C02002000F1080343604FF0E0
:1012D000FF32C36003610023826003607047002314
:1012E0000361704743684B609A688A609A685160EE
:1012F0009960036808610133036070470A68531CF2
:1013000030B50AD103695A684A6091608B605960B0
:10131000036808610133036030BD00F108035C68B5
:101320002568AA42EFD32346F9E74168826803693A
:101330008A60826851605968884208BF5A600022FA
:1013400002611A68013A1A601868704782B0002377
:1013500001930D4B1B68013308D04FF0500383F30A
:101360001188BFF36F8FBFF34F8FFEE74FF050032D
:1013700083F31188BFF36F8FBFF34F8F019B002B57
:10138000FCD002B0704700BF080000200848006889
:10139000006880F308884FF0000080F3148862B67C
:1013A00061B6BFF34F8FBFF36F8F00DF00BF000048
:1013B00008ED00E0DFF80C00016841F47001016005
:1013C0007047000088ED00E04FF0807340F8043C67
:1013D000074B40F80C3C21F001016FF0020340F88C
:1013E000081C40F8202C40F8243C4438704700BFCB
:1013F0004D13000800000000000000000000000085
:10140000074B19680868B0E8F04F80F30988BFF30C
:101410006F8F4FF0000080F311887047AFF30080AA
:10142000084300204FF0500383F31188BFF36F8F00
:10143000BFF34F8F0A4A13680133012B13600DD19C
:10144000084B1B6813F0FF0F08D04FF0500383F3D5
:101450001188BFF36F8FBFF34F8FFEE7704700BF58
:101460000800002004ED00E0084A136843B94FF07B
:10147000500383F31188BFF36F8FBFF34F8FFEE7E5
:10148000013B13600BB983F31188704708000020FB
:10149000EFF30980BFF36F8F154B1A681EF0100F22
:1014A00008BF20ED108A20E9F04F10602DE90900F7
:1014B0004FF0500080F31188BFF34F8FBFF36F8F51
:1014C00001F008F94FF0000080F3118809BC196899
:1014D0000868B0E8F04F1EF0100F08BFB0EC108A9B
:1014E00080F30988BFF36F8F704700BFAFF30080B0
:1014F0000843002008B54FF0500383F31188BFF371
:101500006F8FBFF34F8F00F071FF18B1034B4FF097
:1015100080521A60002383F3118808BD04ED00E0B7
:10152000084A0949002313600B60084B4FF47A7195
:101530001B68B3FBF1F30649013B0B600723136003
:10154000704700BF10E000E018E000E00C00002051
:1015500014E000E0394B3A4A13B51968914208D1BA
:101560004FF0500383F31188BFF36F8FBFF34F8F9A
:10157000FEE71A68334B9A4208D14FF0500383F3C9
:101580001188BFF36F8FBFF34F8FFEE72E4B1A7892
:10159000D2B20192FF221A701B782C4ADBB28DF86E
:1015A00003309DF8033003F050031370284B0722DB
:1015B0001A6000219DF80300000602F1FF340DD4EB
:1015C00001B11A601A68032A11D04FF0500383F357
:1015D0001188BFF36F8FBFF34F8FFEE79DF8032095
:1015E0005200D2B28DF8032001212246E2E7120216
:1015F00002F4E0621A60019B134ADBB21370154BD0
:101600001A6842F470021A601A6842F070421A6056
:10161000FFF786FF104B00241C60FFF7CBFE0F4A3C
:10162000136843F040431360FFF7B0FE01F052F837
:10163000FFF78CFE204602B010BD00BF00ED00E0B9
:1016400071C20F4170C20F4100E400E0E8060020C3
:10165000EC06002020ED00E00800002034EF00E060
:10166000EFF305830F2B0ED9104A9B5C104A1278BA
:101670009A4208D94FF0500383F31188BFF36F8F5C
:10168000BFF34F8FFEE70B4B0B4A1B68126803F446
:10169000E063934208D94FF0500383F31188BFF3FE
:1016A0006F8FBFF34F8FFEE7704700BFF0E300E09E
:1016B000E80600200CED00E0EC06002010B50F4B12
:1016C0001A68824218D35C681919884201BF4168C0
:1016D000184609195960446801198A4207D1084916
:1016E00009688A421FBF516812680919416098420F
:1016F000026018BF186010BD1346E1E700430020E8
:10170000F00600202DE9F041044600F061FE3E495C
:101710003E4D0B680BBB3E4A56071FBFD01D20F045
:10172000070002F570531B1A14BF02464FF47053A2
:101730001344083B23F00703364E0B600020706013
:10174000326058601860981A1360334B506018600C
:10175000324B18604FF000432B602F68274216D1A0
:10176000002C41D004F1080358071CBF23F00703E5
:10177000083363B1294A1668B342904607D8254A10
:1017800015686868834204D809688D4207D100242F
:101790002AE02C68002CF7D02A462546F1E7296874
:1017A00014681160C21A102A0FD9E818410708D02E
:1017B0004FF0500383F31188BFF36F8FBFF34F8F48
:1017C000FEE742606B60FFF779FF13496B680868BA
:1017D000F61A1F4386424FF00003C8F8006038BF76
:1017E0000E6008346F602B6000F090FE630708D035
:1017F0004FF0500383F31188BFF36F8FBFF34F8F08
:10180000FEE72046BDE8F081F0060020F44200200B
:10181000F406002000430020FC420020F842002093
:1018200010B5044670B3184A50F8043C12681342CD
:1018300008D14FF0500383F31188BFF36F8FBFF3CC
:101840004F8FFEE750F8081C41B14FF0500383F36F
:101850001188BFF36F8FBFF34F8FFEE723EA0203B8
:1018600040F8043C00F0B4FD084A54F8043C116808
:10187000A4F108000B441360FFF720FFBDE81040FF
:1018800000F044BE10BD00BFF4420020F84200202A
:1018900010B50446FFF7C6FDA46BFFF7E5FDB4FAEB
:1018A00084F0400910BD70B51546026C866B044685
:1018B00042B905689DB9406801F03AF865600136A3
:1018C000A66370BD6DB9806801F0EEFCA368226C60
:1018D00013446268A360934201D32368A36000208D
:1018E000EDE7C06801F0E0FC236CE26821685B4230
:1018F0001A448A42E2603EBF62689B18E360022D90
:10190000EDD10EB1013EEAE73046D8E7034610B408
:101910001A6C084662B1D9685C681144A142D9606A
:1019200024BF1968D960D9685DF8044B01F0BCBCCC
:101930005DF8044B704770B50446FFF773FD94F8EB
:10194000455004F124066DB2002D14DCFF2384F809
:101950004530FFF789FDFFF765FD94F8445004F129
:1019600010066DB2002D12DCFF2384F84430BDE870
:101970007040FFF779BD636A002BE7D0304600F076
:101980001DFF08B100F0BEFF013D6DB2DCE7236929
:10199000002BE9D0304600F011FF08B100F0B2FF93
:1019A000013D6DB2DEE7000038B50D46044640B992
:1019B0004FF0500383F31188BFF36F8FBFF34F8F46
:1019C000FEE7FFF72FFD206CE36B2268A260434324
:1019D000D1181B1A13446160E3600021FF23A16347
:1019E00084F8443084F8453095B9236963B104F133
:1019F000100000F0E3FE38B10A4B4FF080521A603D
:101A0000BFF34F8FBFF36F8FFFF72EFD012038BD5F
:101A100004F11000FFF758FC04F12400FFF754FC18
:101A2000F2E700BF04ED00E013B51C4640B94FF0EB
:101A3000500383F31188BFF36F8FBFF34F8FFEE71F
:101A400043B94FF0500383F31188BFF36F8FBFF397
:101A50004F8FFEE74AB1D9B94FF0500383F3118895
:101A6000BFF36F8FBFF34F8FFEE789B14FF0500385
:101A700083F31188BFF36F8FBFF34F8FFEE74FF0F3
:101A8000500383F31188BFF36F8FBFF34F8FFEE7CF
:101A900050230193019B502BF1D10123002908BF52
:101AA000224684F84630E0632164226019462046CD
:101AB000FFF77AFF9DF8103084F84C30204602B0D2
:101AC00010BDF8B50D461746064640B94FF0500315
:101AD00083F31188BFF36F8FBFF34F8FFEE7484347
:101AE0005030FFF70FFE044660B1002380F8463007
:101AF00055B92060E663256401212046FFF754FFB5
:101B000084F84C702046F8BD00F150030360F1E703
:101B100013B513460C4640B94FF0500383F31188B8
:101B2000BFF36F8FBFF34F8FFEE7884208D24FF0AD
:101B3000500383F31188BFF36F8FBFF34F8FFEE71E
:101B40000222009200221146FFF76EFF00B184636B
:101B500002B010BD10B50C4640B94FF0500383F3EE
:101B60001188BFF36F8FBFF34F8FFEE7884208D213
:101B70004FF0500383F31188BFF36F8FBFF34F8F84
:101B8000FEE702220021FFF79CFF00B1846310BD35
:101B90002DE9FF47894601921F46044640B94FF0A0
:101BA000500383F31188BFF36F8FBFF34F8FFEE7AE
:101BB000002940F08880036C002B00F084804FF0F7
:101BC000500383F31188BFF36F8FBFF34F8FFEE78E
:101BD000019E002E00F082804FF0500383F31188A5
:101BE000BFF36F8FBFF34F8FFEE7019D1DB9FFF766
:101BF0003BFC002058E016B902A800F03BFEFFF7BE
:101C000033FC00F0E5FBFFF70DFC94F84430FF2BAC
:101C100008BF84F8448094F84530FF2B08BF84F84F
:101C20004580FFF721FC01A902A800F02FFE002843
:101C300043D1FFF7F7FBA66BE56BFFF715FCAE4250
:101C400035D1019904F1100000F080FD2046FFF726
:101C500072FE00F05BFC38B94FF08053CAF80030D8
:101C6000BFF34F8FBFF36F8F0126FFF7DBFBA26B34
:101C7000E36B9A4201D3022FB7D13A464946204638
:101C8000FFF711FE636A1BB104F1240000F096FD1A
:101C900038B1194B4FF080521A60BFF34F8FBFF32A
:101CA0006F8FFFF7E1FB012004B0BDE8F08720460D
:101CB000FFF741FE00F02AFCD6E72046FFF73BFE87
:101CC00000F024FC95E7022F02D1E36B012B0AD12F
:101CD00000F01EFE00283FF47BAF00264FF0000806
:101CE000DFF814A0C1E74FF0500383F31188BFF36E
:101CF0006F8FBFF34F8FFEE704ED00E02DE9F8434F
:101D0000884691461F46044640B94FF0500383F37E
:101D10001188BFF36F8FBFF34F8FFEE709BB036CD2
:101D2000FBB14FF0500383F31188BFF36F8FBFF304
:101D30004F8FFEE704F1240000F040FD002834D06E
:101D4000B9F1000F31D00120C9F8000086F31188E5
:101D5000BDE8F88301356DB284F8455025E00020D8
:101D6000F4E7022F02D1E36B012B20D1FFF778FCBF
:101D7000EFF311864FF0500383F31188BFF36F8F99
:101D8000BFF34F8FA26BE36B9A4201D3022FE6D1D0
:101D900094F845503A466DB241462046FFF783FD20
:101DA0006B1CD7D1636A002BC4D10120CEE74FF062
:101DB000500383F31188BFF36F8FBFF34F8FFEE79C
:101DC0002DE9F04385B088460192044640B94FF0B2
:101DD000500383F31188BFF36F8FBFF34F8FFEE77C
:101DE000002940F08680036C002B00F082804FF0C9
:101DF000500383F31188BFF36F8FBFF34F8FFEE75C
:101E0000019E002E7AD04FF0500383F31188BFF368
:101E10006F8FBFF34F8FFEE7019D1DB9FFF724FBC6
:101E2000002052E016B902A800F024FDFFF71CFBC9
:101E300000F0CEFAFFF7F6FA94F84430FF2B08BF13
:101E400084F8447094F84530FF2B08BF84F845703F
:101E5000FFF70AFB01A902A800F018FD00283DD1F8
:101E60002046FFF715FD98B3019904F1240000F016
:101E70006DFC2046FFF75FFD00F048FB38B94FF0DE
:101E80008053C9F80030BFF34F8FBFF36F8F012627
:101E9000FFF7C8FAA56B002DBED041462046013D94
:101EA000FFF734FDA563236963B104F1100000F06E
:101EB00085FC38B1134B4FF080521A60BFF34F8F3F
:101EC000BFF36F8FFFF7D0FA012005B0BDE8F083B4
:101ED0002046FFF730FD00F019FBD8E72046FFF75A
:101EE0002AFD00F013FB2046FFF7D2FC0028CED0DD
:101EF00096E700F00DFD002882D000260027DFF8CD
:101F00000490C5E704ED00E030B5074A002352F81D
:101F1000335002EBC3041DB942F83310606030BD8A
:101F20000133082BF3D130BD3449002010B5084AE5
:101F3000002302EBC3014C68844204D1002042F824
:101F40003300486010BD0133082BF2D110BD00BF33
:101F50003449002010B5044640B94FF0500383F3D4
:101F60001188BFF36F8FBFF34F8FFEE7FFF7DEFFE0
:101F700094F8463023B92046BDE81040FFF750BC26
:101F800010BD70B504460D461646FFF74BFA94F89F
:101F90004430FF2B04BF002384F8443094F84530CC
:101FA000FF2B04BF002384F84530FFF75DFAA36BD5
:101FB0002BB93246294604F1240000F0E1FB20460B
:101FC000BDE87040FFF7B7BC2DE9F0410446FFF7CC
:101FD00029FA2E4B2E4D1A682E4F01321A602E68A8
:101FE000002E47D12C601B68012B1DD1B819143667
:101FF000FFF76AF9B6F58C6FF8D1DFF8C480264E8A
:102000004046FFF761F93046FFF75EF92348FFF7D6
:102010005BF92348FFF758F92248FFF755F9224B9F
:10202000C3F80080214B1E60214A136801331360FE
:10203000204A63641168E36A14208B4200FB03703A
:1020400004F1040188BF1360FFF74CF9FFF70CFAA5
:10205000194B1B6863B12B68DA6AE36A9A4207D2AC
:10206000164B4FF080521A60BFF34F8FBFF36F8F44
:10207000BDE8F081104B1B68002BD5D12B68DA6AC4
:10208000E36A9A4298BF2C60CEE700BF74470020F5
:102090000843002014430020A0470020BC47002034
:1020A000E8470020D44700200C43002010430020C4
:1020B0008447002088470020D047002004ED00E03E
:1020C0008C470020064A13681968064B19B94FF06F
:1020D000FF321A6070471268D268D2685268F8E717
:1020E0000C430020B44700202DE9F0470A9C099FCB
:1020F00096000D4632468046A521206B994601F098
:10210000DEF8236B043E1E4426F007066B1E04F126
:1021100034020F35597802F8011B13F8011F09B179
:10212000AB42F7D1089D372D28BF37254FF0000A65
:10213000E562E564201D84F843A0C4F850A0FFF7D1
:10214000CEF8C5F1380504F11800FFF7C8F8C4F857
:1021500054A02461A561646284F858A04A464146AF
:102160003046FFF731F9206007B13C60BDE8F087E9
:1021700010B590F8593004463BB9006BFFF750FB9F
:102180002046BDE81040FFF74BBB012BF9D0022BD6
:1021900008D04FF0500383F31188BFF36F8FBFF364
:1021A0004F8FFEE710BD000080B5DFF85C80124F56
:1021B000124C134D236863B9124B1B68012BF8D9DD
:1021C0004FF08053C8F80030BFF34F8FBFF36F8FCD
:1021D000EEE7FFF727F9FB68DE68301DFFF7A5F88B
:1021E0002B68013B2B602368013B2360FFF73CF920
:1021F0003046FFF7BDFFDDE7E847002078470020C5
:10220000744700201443002004ED00E0F8B5164B9D
:10221000164D1E680446286804300F46FFF785F8FF
:10222000631C2B4607D137B1296811480431BDE83A
:10223000F840FFF757B834441A68A642546007D9EB
:102240000C4A10681968BDE8F8400431FFF756B829
:10225000094A106819680431FFF750F8074B1A68EB
:10226000944238BF1C60F8BDFC47002008430020A2
:10227000D4470020104300200C430020B447002026
:1022800070B586B00B9D0C9C45B94FF0500383F39D
:102290001188BFF36F8FBFF34F8FFEE744B94FF044
:1022A000500383F31188BFF36F8FBFF34F8FFEE7A7
:1022B0005C260496049E5C2E08D04FF0500383F3F6
:1022C0001188BFF36F8FBFF34F8FFEE725630225A1
:1022D00084F8595005AD01950A9D02940095FFF7C9
:1022E00003FF2046FFF770FE059806B070BD2DE98C
:1022F000F043074685B09000884616469946FFF79A
:1023000001FA0546E8B15C20FFF7FCF90446A8B1E4
:10231000002380F859300D9B056301930C9B0290BC
:10232000009332464B4641463846FFF7DDFE2046D5
:10233000FFF74AFE012005B0BDE8F0832846FFF70D
:102340006FFA4FF0FF30F6E710B588B0002407AA07
:1023500006A905A805940694FEF79EFF059B029327
:10236000069B019300942346079A14491448FFF7EB
:1023700087FFA0B908B010BD4FF0500383F3118858
:10238000BFF36F8FBFF34F8F0E4B4FF0FF321A60CA
:102390000D4B18600D4B1C60FFF7DCF8EAE700F00E
:1023A0005BFB0128E8D00130E4D14FF0500383F308
:1023B0001188BFF36F8FBFF34F8FFEE7E83200083D
:1023C000A9210008B4470020D0470020FC47002086
:1023D000024A136801331360704700BF8047002032
:1023E000014B1868704700BFFC4700202DE9F84FEB
:1023F0003B4B1B68002B51D13A4B1C6801341C60CD
:10240000BCB9394B1A68126842B14FF0500383F3DC
:102410001188BFF36F8FBFF34F8FFEE7334A196800
:10242000106818601160324A136801331360FFF7B7
:1024300049FE304D304F2B689C424FF0000B3CD38F
:10244000DFF8A480DFF8C090D8F80020126862BBE3
:102450004FF0FF322A6030E006F1040A5046FEF7E2
:1024600064FFB16A19B106F11800FEF75EFFF06A69
:10247000D9F80010214B88424FF0140288BFC9F8E8
:102480000000514602FB0030FEF72CFF3868F16A6D
:10249000C26A914228BF4FF0010BD5E7184A136872
:1024A000013313604FF0000B11E0D8F80020D26820
:1024B000D66871688C42CFD229603A680F4BD16AD6
:1024C00014224A439A58022A28BF4FF0010B0D4AA2
:1024D0001268002A18BF4FF0010B5846BDE8F88F6C
:1024E00080470020FC4700200C43002010430020C0
:1024F000B8470020B44700200843002014430020C0
:102500007C47002000480020884700202DE9F0414A
:102510002F4C236843B94FF0500383F31188BFF366
:102520006F8FBFF34F8FFEE7FEF77CFF2368013B01
:10253000236024682CB10024FEF796FF2046BDE8F6
:10254000F081244B1B68002BF5D0234E234FDFF87E
:10255000A0803368E3B90CB1FFF7B4FD204D2C68BF
:1025600044B1204E0127FFF741FF00B13760013C25
:10257000F9D12C601B4B1B68002BDCD01A4B4FF0A1
:1025800080521A60BFF34F8FBFF36F8F0124D3E7E0
:10259000F368DC68251D04F11800FEF7C6FE284626
:1025A000FEF7C3FEE36A3A681420934200FB0380FF
:1025B000294688BF3B60FEF795FE0C4BE26A1B681C
:1025C000DB6A9A4222BF074B01221A60C1E700BFB3
:1025D0008047002074470020BC4700208847002027
:1025E0007C4700200048002004ED00E00843002064
:1025F0001443002038B540B94FF0500383F31188DD
:10260000BFF36F8FBFF34F8FFEE741B94FF0500319
:1026100083F31188BFF36F8FBFF34F8FFEE7184B23
:102620001C6844B14FF0500383F31188BFF36F8FE0
:10263000BFF34F8FFEE7FFF7CBFE124B02681D681A
:10264000954201EB020317D29A4203D99D422CBF57
:102650000024012403601CB10021581BFFF7D6FDA4
:10266000FFF754FF38B9084B4FF080521A60BFF3A0
:102670004F8FBFF36F8F38BD9A42E7D90124E9E746
:1026800080470020FC47002004ED00E008B540B979
:102690000E4B4FF080521A60BFF34F8FBFF36F8F16
:1026A00008BD0B4B196841B14FF0500383F31188FB
:1026B000BFF36F8FBFF34F8FFEE7FFF789FEFFF782
:1026C000A5FDFFF723FF0028E2D008BD04ED00E0E0
:1026D00080470020184B1A68184BF0B512B1012240
:1026E0001A60F0BD164D1A60164A2B68142716465C
:1026F00007FB03F1501854588CB1446808316468E2
:1027000044600A44944204BF62684260142202FB9F
:1027100003625268D1680C4A11602B60F0BD43B966
:102720004FF0500383F31188BFF36F8FBFF34F8FC8
:10273000FEE7013BDCE700BF8047002000480020A7
:1027400088470020144300200843002010B50C46A1
:1027500040B94FF0500383F31188BFF36F8FBFF37D
:102760004F8FFEE7054B19681831FEF7C7FD20466D
:102770000121BDE81040FFF749BD00BF084300201C
:1027800038B50D46144640B94FF0500383F3118815
:10279000BFF36F8FBFF34F8FFEE7074B19681831F8
:1027A000FEF7A0FD002C21460CBF28464FF0FF305D
:1027B000BDE83840FFF72ABD0843002038B5C3689C
:1027C000DC6844B94FF0500383F31188BFF36F8F77
:1027D000BFF34F8FFEE704F118052846FEF7A5FD6D
:1027E000104B1B68DBB9251D2846FEF79EFD0E4ADF
:1027F000E36A11688B4288BF13600C4A1420294693
:1028000000FB0320FEF76EFD094BE26A1B68DB6AE2
:102810009A4283BF074B01201860002038BD29462B
:102820000548EFE780470020884700201443002038
:102830000843002000480020BC47002010B5044693
:1028400040B94FF0500383F31188BFF36F8FBFF38C
:102850004F8FFEE7FEF7E6FD044B1B682360044B39
:102860001B686360BDE81040FEF7FEBDB84700205E
:10287000FC470020034B1B680360034B1B6843604D
:10288000704700BFB8470020FC47002070B50C46D9
:10289000054640B94FF0500383F31188BFF36F8FA3
:1028A000BFF34F8FFEE741B94FF0500383F3118818
:1028B000BFF36F8FBFF34F8FFEE7FEF7B3FD0F4BF4
:1028C00069681A682368581C0ED00D482E68006885
:1028D000864201D08A420ED2521A9A4209D29B1ADB
:1028E00023602846FFF7C6FF0024FEF7BDFD204603
:1028F00070BD002323600124F7E700BFFC470020E0
:10290000B8470020014B01221A60704700480020A0
:10291000054B1B6833B1054B1B68002B0CBF022015
:102920000020704701207047D047002080470020DA
:1029300038B5044608B9002038BD1B4B1B689842C7
:1029400008D04FF0500383F31188BFF36F8FBFF3AC
:102950004F8FFEE7036D43B94FF0500383F31188A7
:10296000BFF36F8FBFF34F8FFEE7C16AC26C013BAD
:1029700091420365DFD0002BDDD1051D2846FEF70F
:10298000D4FCE36CE362C3F13802A261074A116828
:102990008B4288BF1360064A142000FB032029469F
:1029A000FEF7A0FC012038BD084300208847002026
:1029B00014430020F7B5114CFEF734FD2568BDB96E
:1029C0000F4F104E3846FEF77FFC3046FEF77CFC7A
:1029D0000D4B0E4A1F600E4B10211E600A20009501
:1029E0000C4BFFF721F8206010B10B49FFF78CFA70
:1029F00003B0BDE8F040FEF737BD00BF2849002016
:102A0000AC480020C0480020044800200C480020AA
:102A100008480020D8480020ED320008914208B54F
:102A2000416000610AD8D21A83699A420DD2084BDC
:102A3000011D1868FEF762FC002008BD9A4201D211
:102A4000994202D2011D034BF3E7012008BD00BFEC
:102A5000084800200448002010B588B0FFF7AAFFFE
:102A6000134B1B6843B94FF0500383F31188BFF336
:102A70006F8FBFF34F8FFEE7002407AA06A905A8B2
:102A800005940694FEF714FC059B0293069B0193A4
:102A900002230093079A074907482346FFF7F0FBF4
:102AA000064B18600028DED0012008B010BD00BF22
:102AB00028490020F23200085D2C00082C49002033
:102AC0002DE9F041804630200D4617461E46FEF7A0
:102AD00019FE0446C0B145B94FF0500383F3118885
:102AE000BFF36F8FBFF34F8FFEE7FFF763FF069BC8
:102AF0006362C4F80080A561E7612662201DFEF7CD
:102B0000EEFB002384F82C302046BDE8F0812DE94F
:102B1000F3411E4630230193019B099C302B8046D4
:102B20000D46174608D04FF0500383F31188BFF3CA
:102B30006F8FBFF34F8FFEE744B94FF0500383F31D
:102B40001188BFF36F8FBFF34F8FFEE741B94FF08E
:102B5000500383F31188BFF36F8FBFF34F8FFEE7EE
:102B6000FFF728FF089B6362201DC4F80080A56161
:102B7000E7612662FEF7B3FB0123204684F82C3080
:102B800002B0BDE8F081000030B5154685B01A46A8
:102B9000034640B94FF0500383F31188BFF36F8FA2
:102BA000BFF34F8FFEE70D4C206880B105298DE8FB
:102BB000220002930DDCFFF7ABFE0023022808BFC2
:102BC000089A206818BF1A466946FEF7E1FF05B06B
:102BD00030BD00236946FFF791F8F8E72849002047
:102BE0002DE9F3411B4D4FF000082B681A6832B9EC
:102BF000194A11682960136002B0BDE8F081DB68F2
:102C0000DC681E68271D3846FEF78FFB636A204686
:102C10009847E369012BE8D1A36933449E4206D269
:102C20006360246139462868FEF768FBDDE700230E
:102C3000CDF80080324619462046FFF7A5FF002850
:102C4000D3D14FF0500383F31188BFF36F8FBFF3DD
:102C50004F8FFEE704480020084800202DE9F04F80
:102C6000724DDFF8D88189B02F462B68D3F800B0B9
:102C7000BBF1000F44D0DB68D3F80090FFF7A8FB4E
:102C8000FFF7AEFB6A4B1A68904282461E4639D265
:102C90000393FFF7A5FF039B0124C3F800A0002CBA
:102CA00040F08A80BBF1000F6BD0D14500F28280EA
:102CB000FFF72CFC3B68DB68D3F80CB00BF1040089
:102CC000FEF733FBDBF81C30012B1DD1DBF81810AD
:102CD0004B46524649445846FFF7A0FEA0B1009427
:102CE00023464A4621465846FFF74EFF60B94FF04B
:102CF000500383F31188BFF36F8FBFF34F8FFEE74D
:102D0000D946BBE70024C8E7DBF82430584698478B
:102D1000DFF82491D9F80000002204A9FFF750F849
:102D20000028A2D0049B002B03DA07990698059B84
:102D30009847049B002BEDDB069C636913B1201DB3
:102D4000FEF7F3FAFFF74CFB33689842834601D253
:102D5000FFF746FF049AC6F800B0092ADAD8012323
:102D6000934013F4047A4ED113F0C70F27D19B067A
:102D7000D0D594F82C30002BCCD12046FEF750FD56
:102D8000C8E72C4B1B681A68B2FA82F252092A4B28
:102D9000A9EB0A011868FFF7F4F8FFF7B7FB002862
:102DA000B6D14FF08053C8F80030BFF34F8FBFF358
:102DB0006F8FADE72246EAE7FFF7A8FBA8E7A16916
:102DC000059B5A4619442046FFF728FE0028A1D04B
:102DD000636A20469847E369012B9BD1A269059954
:102DE000CDF800A00A44534651462046FFF7CCFEDA
:102DF00000288FD14FF0500383F31188BFF36F8FFA
:102E0000BFF34F8FFEE70599A16141B94FF0500321
:102E100083F31188BFF36F8FBFF34F8FFEE75B46DD
:102E20005A4659442046FFF7F9FD73E7044800204D
:102E3000D4480020084800202849002004ED00E084
:102E400010B5044640B94FF0500383F31188BFF327
:102E50006F8FBFF34F8FFEE7FEF7E4FA246AFEF7A9
:102E600003FB204610BD704708B50120FEF762F94C
:102E7000FBE7000073B5FFF7B3FA00901348144C5A
:102E8000144D124EFFF7DAFC40F6B83301930221DD
:102E90002046FDF785FC012805D101A93046FFF742
:102EA000F5FC0028F3D002212046FDF779FC01282B
:102EB00005D14FF4FA616846FFF79CFBE7E7012272
:102EC0004FF480512846FDF771FCF2E77849002065
:102ED00000040240000C024030B595B030220021C1
:102EE00008A800F0ECF90021142203A800F0E7F98B
:102EF00000251C4B01951A6C42F080521A641B6C21
:102F000003F080530193019B174B02951A6842F41A
:102F100080421A601B6803F480430293029B0123E2
:102F200008934FF4803309934FF480030F930423E5
:102F3000109340230224119308A8072313930E949F
:102F40001294FDF739FC0F23039321464FF4A0534D
:102F500003A80494059506930793FDF701FE15B0A9
:102F600030BD00BF003802400070004000B589B09D
:102F7000FDF7B6FAFFF7B0FF1422002103A800F016
:102F80009EF900243A4B00941A6B3A483A4D42F0AD
:102F900080021A631A6B02F080020092009A019478
:102FA0001A6B42F001021A631A6B02F001020192DD
:102FB000019A02941A6B42F008021A631B6B03F029
:102FC0000803224602934FF4E0410126029BFDF7DD
:102FD000EDFB2A4B2A48049303A903960594FDF7B9
:102FE000FFFA4FF4E04303A92248039304960594A3
:102FF0000694FDF7F5FA234A0394102385E80C00A4
:1030000028468023AB610494AC60EC60FDF78EFF32
:1030100003A9284603940494FDF7A2FFFDF7EEFFF1
:10302000194A31463046FEF7DFF8184B184A186047
:1030300002210846FEF7D8F8164B224618603146A2
:10304000154B1648FEF790F8154B164A18602146A6
:103050001548FEF70FF8154B154A1860214615481C
:10306000FEF708F8144B1860FDF7E4FFFEE700BF19
:1030700000380240000C024090490020000011106E
:10308000000002400010004020330008D449002016
:10309000303300088C49002064330008672E000894
:1030A000D0490020FC320008692E00087449002035
:1030B00040330008752E0008844900200268034B45
:1030C0009A4201D1FDF726BA704700BF00000140C7
:1030D00007B50F4B00220092596C41F480415964AE
:1030E000596C01F48041009100990192196C41F0F2
:1030F000805119641B6C03F0805301930F216FF012
:103100000100019BFDF72AFA03B05DF804FB00BF44
:103110000038024007B50D4B02689A4213D103F5FF
:103120000A3300220192196C41F0100119641B6CE2
:1031300003F01003019336200521019BFDF70EFAE1
:103140003620FDF73FFA03B05DF804FB00100040A5
:1031500030B5014689B000221920FDF7FFF919208A
:10316000FDF730FA0025154B02955A6C144C42F0CD
:1031700001025A645B6C03F00103029301A903A8E6
:10318000029BFDF799FDFDF787FD0E4B236040F292
:10319000E733E36040000C4BB0FBF3F001386060B4
:1031A00020462561A560FDF7C1FE20B92046FDF748
:1031B000A1FD09B030BD0120FBE700BF003802408F
:1031C000DC4900200000014040420F007047FEE74C
:1031D000FEE7FEE7FEE770470148FDF79FBD00BF31
:1031E000DC4900200148FDF799BD00BF904900204F
:1031F000054BD3F8882042F47002C3F888204FF0C2
:1032000000629A60704700BF00ED00E0DFF834D044
:10321000002103E00C4B5B58435004310B480C4B2E
:1032200042189A42F6D30B4A02E0002342F8043BCC
:10323000094B9A42F9D3FFF7DBFF00F011F8FFF7D3
:1032400095FE704700000220DC33000800000020DB
:1032500010000020100000201C4A0020FEE70000A3
:1032600070B50D4E0D4CA41BA4100025A54209D12C
:103270000B4E0C4C00F02CF8A41BA4100025A5420A
:1032800005D170BD56F8253098470135EEE756F860
:10329000253098470135F2E7D4330008D4330008CD
:1032A000D4330008D833000810B5431E0A449142B5
:1032B00000D110BD11F8014B03F8014FF7E70244AC
:1032C0000346934200D1704703F8011BF9E7000061
:1032D000F8B500BFF8BC08BC9E467047F8B500BF03
:0832E000F8BC08BC9E467047D3
:1032E80049444C4500546D725100546D7220537618
:1032F80063000000A5330008000000000000000083
:10330800000000000000000080000000180000001D
:1033180000000000000000008433000800000000E6
:1033280000000000000000007433000800000000E6
:1033380000000000000000009C33000800000000AE
:1033480000000000000000000000000080000000F5
:103358000800000000000000000000009233000890
:103368000000000000000000000000006D79436FBD
:10337800756E74696E6753656D3031006D79426999
:103388006E61727953656D3031006D7954696D6580
:10339800723031006D795461736B30320064656648
:1033A80061756C745461736B0000000000000000CC
:1033B80000010203040607080900000000010203D7
:0433C80004000000FD
:0833CC0034CEFF7F0100000078
:0433D400B501000837
:0433D8009101000857
:1033DC000100000010000000AAAAAAAA0024F40010
:040000050800320DB0
:00000001FF
