:020000040800F2
:1000000000000220454E0008D94D0008DB4D0008D5
:10001000DD4D0008DF4D0008E14D00080000000044
:10002000000000000000000000000000212B00087C
:10003000E34D000800000000B12B0008152C00085B
:10004000954E0008954E0008954E0008954E000804
:10005000954E0008954E0008E54D0008954E0008A5
:10006000954E0008954E0008954E0008954E0008E4
:10007000954E0008954E0008954E0008954E0008D4
:10008000ED4D0008F94D0008054E0008954E00089A
:10009000954E0008954E0008954E0008954E0008B4
:1000A000954E0008114E0008954E0008954E000828
:1000B000954E0008954E0008954E0008954E000894
:1000C000954E0008954E0008954E0008954E000884
:1000D000954E0008954E0008954E0008954E000874
:1000E000954E0008954E0008954E0008954E000864
:1000F000954E0008954E0008954E0008954E000854
:10010000954E0008954E0008954E0008954E000843
:10011000954E0008954E0008954E0008954E000833
:100120001D4E0008954E0008954E0008954E00089B
:10013000954E0008954E0008954E0008954E000813
:10014000954E0008954E0008954E0008954E000803
:10015000954E0008954E0008954E0008954E0008F3
:10016000954E0008954E0008954E0008954E0008E3
:10017000954E0008954E0008954E000800000000BE
:08018000954E0008954E0008A1
:1001900010B5054C237833B9044B13B10448AFF3C1
:1001A00000800123237010BD10000020000000001B
:1001B000084F000808B5034B1BB103490348AFF3D0
:1001C000008008BD0000000014000020084F000857
:1001D00081F0004102E000BF83F0004330B54FEAF8
:1001E00041044FEA430594EA050F08BF90EA020F65
:1001F0001FBF54EA000C55EA020C7FEA645C7FEAF8
:10020000655C00F0E2804FEA5454D4EB5555B8BF1A
:100210006D420CDD2C4480EA020281EA030382EA8B
:10022000000083EA010180EA020281EA0303362D1D
:1002300088BF30BD11F0004F4FEA01314FF4801CF0
:100240004CEA113102D0404261EB410113F0004F02
:100250004FEA03334CEA133302D0524263EB4303B9
:1002600094EA050F00F0A780A4F10104D5F1200E57
:100270000DDB02FA0EFC22FA05F2801841F10001B2
:1002800003FA0EF2801843FA05F359410EE0A5F186
:1002900020050EF1200E012A03FA0EFC28BF4CF0B7
:1002A000020C43FA05F3C01851EBE37101F000456D
:1002B00007D54FF0000EDCF1000C7EEB00006EEB7A
:1002C0000101B1F5801F1BD3B1F5001F0CD3490804
:1002D0005FEA30004FEA3C0C04F101044FEA44525B
:1002E00012F5800F80F09A80BCF1004F08BF5FEAE2
:1002F000500C50F1000041EB045141EA050130BDC2
:100300005FEA4C0C404141EB010111F4801FA4F164
:100310000104E9D191F0000F04BF01460020B1FAB9
:1003200081F308BF2033A3F10B03B3F120020CDAF1
:100330000C3208DD02F1140CC2F10C0201FA0CF0CF
:1003400021FA02F10CE002F11402D8BFC2F1200C34
:1003500001FA02F120FA0CFCDCBF41EA0C019040EA
:10036000E41AA2BF01EB0451294330BD6FEA040433
:100370001F3C1CDA0C340EDC04F11404C4F120021E
:1003800020FA04F001FA02F340EA030021FA04F330
:1003900045EA030130BDC4F10C04C4F1200220FA87
:1003A00002F001FA04F340EA0300294630BD21FAC5
:1003B00004F0294630BD94F0000F83F4801306BF8B
:1003C00081F480110134013D4EE77FEA645C18BF7F
:1003D0007FEA655C29D094EA050F08BF90EA020F16
:1003E00005D054EA000C04BF1946104630BD91EA0E
:1003F000030F1EBF0021002030BD5FEA545C05D111
:100400004000494128BF41F0004130BD14F580044F
:100410003CBF01F5801130BD01F0004545F0FE41C3
:1004200041F470014FF0000030BD7FEA645C1ABFF8
:10043000194610467FEA655C1CBF0B46024650EA2F
:10044000013406BF52EA033591EA030F41F400215B
:1004500030BD00BF90F0000F04BF0021704730B5E1
:100460004FF4806404F132044FF000054FF00001B6
:1004700050E700BF90F0000F04BF0021704730B577
:100480004FF4806404F1320410F0004548BF40424C
:100490004FF000013EE700BF42004FEAE2014FEAA1
:1004A00031014FEA02701FBF12F07F4393F07F4F7C
:1004B00081F06051704792F0000F14BF93F07F4FAE
:1004C000704730B54FF4607401F0004521F00041F1
:1004D00020E700BF50EA010208BF704730B54FF077
:1004E00000050AE050EA010208BF704730B511F07C
:1004F000004502D5404261EB41014FF4806404F1B4
:1005000032045FEA915C3FF4DCAE4FF003025FEA35
:10051000DC0C18BF03325FEADC0C18BF033202EBBD
:10052000DC02C2F1200300FA03FC20FA02F001FA17
:1005300003FE40EA0E0021FA02F11444C1E600BFB6
:1005400070B54FF0FF0C4CF4E06C1CEA11541DBF69
:100550001CEA135594EA0C0F95EA0C0F00F0DEF834
:100560002C4481EA030621EA4C5123EA4C5350EA19
:10057000013518BF52EA033541F4801143F480136A
:1005800038D0A0FB02CE4FF00005E1FB02E506F0FB
:100590000042E0FB03E54FF00006E1FB03569CF050
:1005A000000F18BF4EF0010EA4F1FF04B6F5007F56
:1005B00064F5407404D25FEA4E0E6D4146EB0606C8
:1005C00042EAC62141EA55514FEAC52040EA5E5051
:1005D0004FEACE2EB4F1FD0C88BFBCF5E06F1ED8FB
:1005E000BEF1004F08BF5FEA500E50F1000041EB32
:1005F000045170BD06F0004646EA010140EA0200DF
:1006000081EA0301B4EB5C04C2BFD4EB0C0541EA00
:10061000045170BD41F480114FF0000E013C00F315
:10062000AB8014F1360FDEBF002001F0004170BD39
:10063000C4F10004203C35DA0C341BDC04F1140452
:10064000C4F1200500FA05F320FA04F001FA05F2DE
:1006500040EA020001F0004221F0004110EBD370AB
:1006600021FA04F642EB06015EEA430E08BF20EAD7
:10067000D37070BDC4F10C04C4F1200500FA04F37A
:1006800020FA05F001FA04F240EA020001F000410C
:1006900010EBD37041F100015EEA430E08BF20EA7F
:1006A000D37070BDC4F1200500FA05F24EEA020EC7
:1006B00020FA04F301FA05F243EA020321FA04F0F6
:1006C00001F0004121FA04F220EA020000EBD370AD
:1006D0005EEA430E08BF20EAD37070BD94F0000FAD
:1006E0000FD101F00046400041EB010111F4801FE1
:1006F00008BF013CF7D041EA060195F0000F18BF92
:10070000704703F00046520043EB030313F4801FCD
:1007100008BF013DF7D043EA0603704794EA0C0F87
:100720000CEA135518BF95EA0C0F0CD050EA41069D
:1007300018BF52EA4306D1D181EA030101F000411A
:100740004FF0000070BD50EA410606BF1046194642
:1007500052EA430619D094EA0C0F02D150EA01364E
:1007600013D195EA0C0F05D152EA03361CBF10468F
:1007700019460AD181EA030101F0004141F0FE412E
:1007800041F470014FF0000070BD41F0FE4141F4B2
:10079000780170BD70B54FF0FF0C4CF4E06C1CEAB2
:1007A00011541DBF1CEA135594EA0C0F95EA0C0F67
:1007B00000F0A7F8A4EB050481EA030E52EA033522
:1007C0004FEA013100F088804FEA03334FF0805543
:1007D00045EA131343EA12634FEA022245EA111570
:1007E00045EA10654FEA00260EF000419D4208BF21
:1007F000964244F1FD0404F5407402D25B084FEACE
:100800003202B61A65EB03055B084FEA32024FF479
:1008100080104FF4002CB6EB020E75EB030E22BFD6
:10082000B61A754640EA0C005B084FEA3202B6EB96
:10083000020E75EB030E22BFB61A754640EA5C0045
:100840005B084FEA3202B6EB020E75EB030E22BFD5
:10085000B61A754640EA9C005B084FEA3202B6EBD6
:10086000020E75EB030E22BFB61A754640EADC0095
:1008700055EA060E18D04FEA051545EA16754FEAF7
:1008800006164FEAC30343EA52734FEAC2025FEA15
:100890001C1CC0D111F4801F0BD141EA00014FF0A4
:1008A00000004FF0004CB6E711F4801F04BF014375
:1008B0000020B4F1FD0C88BFBCF5E06F3FF6AFAE91
:1008C000B5EB030C04BFB6EB020C5FEA500C50F121
:1008D000000041EB045170BD0EF0004E4EEA1131A4
:1008E00014EB5C04C2BFD4EB0C0541EA045170BDAB
:1008F00041F480114FF0000E013C90E645EA060EEF
:100900008DE60CEA135594EA0C0F08BF95EA0C0F1C
:100910003FF43BAF94EA0C0F0AD150EA01347FF464
:1009200034AF95EA0C0F7FF425AF104619462CE73B
:1009300095EA0C0F06D152EA03353FF4FDAE10469E
:10094000194622E750EA410618BF52EA43067FF4EF
:10095000C5AE50EA41047FF40DAF52EA43057FF47F
:10096000EBAE12E74A0011D212F5001211D20DD5EA
:100970006FF47873B3EB62520ED44FEAC12343F0A5
:10098000004343EA505323FA02F070474FF000004F
:10099000704750EA013002D14FF0FF3070474FF0FE
:1009A0000000704753B94AB9002908BF00281CBF8E
:1009B0004FF0FF314FF0FF3000F07AB9ADF1080C85
:1009C0006DE904CE00F006F8DDF804E0DDE902236D
:1009D00004B070472DE9F0478C460D460446089E4A
:1009E000002B51D18A4217466DD9B2FA82FEBEF170
:1009F000000F0BD0CEF1200C01FA0EF520FA0CFC02
:100A000002FA0EF74CEA050C00FA0EF44FEA174A08
:100A1000250CBCFBFAF81FFA87F90AFB18CC45EA4B
:100A20000C4508FB09F3AB420AD9ED1908F1FF3276
:100A300080F02381AB4240F22081A8F102083D44BE
:100A4000ED1AA4B2B5FBFAF00AFB105544EA0544CE
:100A500000FB09F9A14509D9E41900F1FF3380F041
:100A60000A81A14540F2078102383C44A4EB090405
:100A700040EA08400021002E61D024FA0EF4002341
:100A800034607360BDE8F0878B4207D9002E54D0E4
:100A9000002186E821000846BDE8F087B3FA83F11B
:100AA000002940F08E80AB4202D3824200F2FA80ED
:100AB000841A65EB03050120AC46002E3FD086E882
:100AC0001010BDE8F08712B90127B7FBF2F7B7FAAB
:100AD00087FEBEF1000F34D1EB1B3A0C1FFA87FCE6
:100AE0000121B3FBF2F8250C02FB183345EA03455C
:100AF0000CFB08F3AB4207D9ED1908F1FF3002D225
:100B0000AB4200F2D1808046ED1AA3B2B5FBF2F001
:100B100002FB105543EA05440CFB00FCA44507D931
:100B2000E41900F1FF3302D2A44500F2B880184660
:100B3000A4EB0C0440EA08409DE731463046BDE88E
:100B4000F087CEF1200405FA0EF307FA0EF720FA2B
:100B500004F83A0C25FA04F448EA0308B4FBF2F16D
:100B60004FEA184502FB11441FFA87FC45EA044589
:100B700001FB0CF3AB4200FA0EF409D9ED1901F1B7
:100B8000FF3080F08A80AB4240F2878002393D44DA
:100B9000EB1A1FFA88F5B3FBF2F002FB103345EABB
:100BA000034500FB0CF3AB4207D9ED1900F1FF3808
:100BB0006FD2AB426DD902383D44EB1A40EA014195
:100BC0008FE7C1F1200722FA07F88B4005FA01F4FC
:100BD00048EA030320FA07FE4FEA134CFD404EEAB1
:100BE000040EB5FBFCF94FEA1E440CFB19551FFA25
:100BF00083F844EA054509FB08F4AC4202FA01F225
:100C000000FA01FA08D9ED1809F1FF3043D2AC42DD
:100C100041D9A9F102091D442D1B1FFA8EFEB5FB17
:100C2000FCF00CFB10554EEA054400FB08F8A0450B
:100C300007D9E41800F1FF3529D2A04527D9023899
:100C40001C4440EA0940A4EB0804A0FB02894C457F
:100C5000C6464D4615D312D056B1BAEB0E0364EB1F
:100C6000050404FA07F7CB401F43CC40376074609B
:100C70000021BDE8F0871846F8E69046E0E6C24558
:100C8000EAD2B8EB020E69EB03050138E4E7284627
:100C9000D7E7404691E78146BEE7014678E702384C
:100CA0003C4445E7084608E7A8F102083D442BE725
:100CB000704700BF08B50B4B1A6842F400721A6007
:100CC0001A6842F480621A601A6842F480721A60EC
:100CD000032000F071FC002004F040F803F008FF4E
:100CE000002008BD003C0240034A044B11681B78F9
:100CF0000B441360704700BF3449002000000020FF
:100D0000014B1868704700BF3449002038B50446CD
:100D1000FFF7F6FF631C1CBF054B1B78054618BF89
:100D2000E418FFF7EDFF401B8442FAD838BD00BF3E
:100D30000000002038B50446002800F09B80056CB8
:100D400025B903F0F7FE656484F83C50236CDB069C
:100D500000F18E80236C23F4885323F0020343F0C8
:100D600002032364444B5A6822F440325A605A68A2
:100D700061680A435A60236821695A6822F48072C4
:100D80005A605A6842EA01225A605A68A16822F001
:100D900040725A605A680A435A609A68E16822F4BD
:100DA00000629A609A680A439A603449A26A8A4249
:100DB00052D0996821F07061996099680A439A60ED
:100DC0009A68E16A22F040529A609A680A439A60EF
:100DD0009A68217E22F002029A609A6842EA4102F1
:100DE0009A6094F82020002A3ED05A68616A42F442
:100DF00000625A605A6822F460425A605A680139A7
:100E000042EA41325A60DA6AE16922F47002DA6237
:100E1000DA6A013942EA0152DA629A6894F83010CB
:100E200022F400729A609A6842EA41229A609A68B3
:100E3000616922F480629A609A68002042EA812205
:100E40009A606064236C23F0030343F0010323647E
:100E5000002384F83C3038BD9A6822F070629A60B2
:100E60009A6822F04052B2E75A6822F40062C9E759
:100E70000120EDE7012038BD002301400100000FF3
:100E800037B513460022019290F83C20012A04460F
:100E900077D00568012280F83C20AA68D00705D5E4
:100EA000AA68D20715D4002003B030BDAA6842F06A
:100EB0000102AA60344A1068344AB0FBF2F000EB39
:100EC00040000190019A002AEAD0019A013A019269
:100ED000F8E7206C20F4E06020F0010040F480701E
:100EE00020646A68500541BF206C20F4405040F4F3
:100EF00080502064226CA06B12F480521CBF626C84
:100F000022F006026264002284F83C20204AC26378
:100F1000204A0264204AC2646FF022022A606A6892
:100F200042F080626A60AA6842F48072AA600A464F
:100F300005F14C0100F028FC184A1949536813F0D8
:100F40001F0F23681AD18B4206D001F580718B42A6
:100F50000BD15268D206A6D1986810F04050A2D1A9
:100F60009A6842F080429A609EE70E498B429AD17D
:100F7000526802F01F020F2AEED994E78B4292D1F9
:100F8000EAE7022090E700BF0C00002040420F007B
:100F9000FF100008B30F0008E9100008002301400B
:100FA00000200140002201400368D86C7047704760
:100FB000704708B5806BFFF7FBFF08BD70477047AF
:100FC00038B5036819685A688D0704462BD5900612
:100FD00029D5226CD1065EBF226C42F400722264D5
:100FE0009A6812F0405F17D1227EAAB9DA6A12F429
:100FF000700F02D09A6852050ED45A6822F020026F
:101000005A60236C23F480732364236CDB045EBF7B
:10101000236C43F0010323642046FFF7C8FF2368D5
:101020006FF012021A60236819685A684D0732D5AA
:10103000100630D5226CD1065EBF226C42F40052FD
:1010400022649A6812F4401F1ED19A6B12F4401F5A
:1010500002D09A68520517D45A68550514D49A6874
:1010600012F0405F10D1227E72B95A6822F08002DD
:101070005A60236C23F480532364236CD8055EBF2D
:10108000236C43F001032364204600F005F9236834
:101090006FF00C021A60236819685A68C9070FD5E7
:1010A00055060DD51B68D8070AD5236C43F4803349
:1010B00023642046FFF782FF23686FF001021A6065
:1010C000236819685A6889060DD552010BD5626CE0
:1010D0006FF0200542F00202626420461D60FFF7B7
:1010E0006EFF23681D6038BD806B08B54023036424
:1010F000436C43F004034364FFF761FF08BD836B57
:101100001A6C12F0500F10B51A6C23D142F4007211
:101110001A641A68916811F0405F17D1197EA9B955
:10112000D16A11F4700F02D0916848050ED451684D
:1011300021F0200151601A6C22F480721A641A6C3A
:10114000D1045EBF1A6C42F001021A641846FFF720
:101150002EFF10BDD20603D51846FFF730FF10BD95
:101160009B6BBDE81040DB6C18470000F7B500230F
:10117000019390F83C30012B00F083800D680468E7
:101180008A680123092D80F83C30AEB22AD906EBDB
:101190004603E7681E3B4FF0070E0EFA03FE27EAF0
:1011A0000E07E760E76802FA03F33B43E3604A682F
:1011B000062A4FEA820325D81344676B591F1F2361
:1011C0008B4027EA03036363626B06FA01F1114364
:1011D00061632D4B9C4234D0002380F83C3018468C
:1011E00003B0F0BD276905EB45034FF0070E0EFA7B
:1011F00003FE27EA0E072761276902FA03F33B4340
:101200002361D4E70C2A0ED81344216BA3F12302E7
:101210001F23934021EA03032363236B06FA02F2A0
:101220001A432263D5E71344E16A413B1F229A40E7
:1012300021EA0202E262E26A06FA03F11143E16284
:10124000C7E7122D04D1114A536843F48003536059
:10125000A5F11003012BBFD80C4A5368102D43F49D
:1012600000035360B8D10A4B0A4A1B68B3FBF2F281
:101270000A2353430193019B002BADD0019B013BFB
:10128000F8E70220ACE700BF002001400023014046
:101290000C00002040420F00704738B5044600287B
:1012A0006ED090F820300BB903F09CFC22681368D4
:1012B00023F002031360FFF723FD054623685A68F5
:1012C000910751D41A6842F001021A60FFF718FD25
:1012D000054623685A68D20754D5227E012A1A6827
:1012E0000CBF42F0800222F080021A60627E012A66
:1012F0001A680CBF42F0400222F040021A60A27E3F
:10130000012A1A680CBF42F0200222F020021A6063
:10131000E27E012A1A680CBF22F0100242F010028D
:101320001A60227F012A1A680CBF42F0080222F0DC
:1013300008021A60627F012A1A680CBF42F0040298
:1013400022F004021A60E168A2680A4321690A4394
:1013500061690A43616801390A43DA6100200123A7
:10136000606284F8203038BDFFF7CAFC401B0A28B1
:10137000A4D9636A43F400336362052384F8203000
:10138000012038BDFFF7BCFC401B0A28A1D9F0E7BB
:1013900090F82030013B012B30B579D83F4BD3F882
:1013A000002242F00102C3F80022D3F8002222F406
:1013B0007C52C3F80022D3F80022486A42EA002295
:1013C000C3F800224869D3F81C5200F01F02012420
:1013D0009440E2431540C3F81C52CD69002D36D12C
:1013E000D3F80C521540C3F80C52C000CD688B885E
:1013F00000F1804000F5C84043EA0543C0F84032A0
:101400008D680B8843EA0543C0F844328869234B52
:10141000002835D1D3F804021040C3F8040208694B
:1014200090BBD3F814020240C3F814220B6A1B4A83
:10143000012B02BFD2F81C322343C2F81C32D2F86F
:10144000003223F00103C2F80032002030BD012D2C
:10145000DCD1D3F80C522543C3F80C520B688D88AD
:1014600045EA0345C30003F1804303F5C843888977
:10147000C3F840528D6840EA0540C3F84402C5E70E
:10148000D3F804022043C8E7D3F814222243CBE761
:10149000436A43F480234362012030BD006400406E
:1014A00038B590F82030012B04461FD10268022382
:1014B00080F82030136823F001031360FFF720FC4D
:1014C00005462368586810F0010001D1606238BDFC
:1014D000FFF716FC401B0A28F3D9636A43F4003374
:1014E0006362052384F82030012038BD436A43F449
:1014F00000234362F8E7F0B590F820500668013DFC
:10150000012DB46840D814F0E05F39D0C4F3016411
:10151000032C4FF0010505D1436A43F400034362F5
:101520000120F0BDA5401D608868CF6804F1180354
:1015300008BB086847EA40501B012401F0503319EA
:101540000869097DC3F88401012902BFD3F8841119
:1015500041F48071C3F8841134445168C4F88C118B
:101560001268C4F88821D3F8802142F00102C3F840
:1015700080210020F0BD4D68384340EAC500DBE71C
:10158000436A43F40013CAE7436A43F48023C6E77F
:1015900090F82030013B012B0CD8036898689A68BA
:1015A0009B681201C0F3806048BF0130DB0002D5A8
:1015B0000130704700207047074AD36823F4E06386
:1015C0001B041B0C43F0BF63000243F4003300F420
:1015D000E0600343D360704700ED00E0174B30B587
:1015E000DC68C4F30224C4F10703251D042B28BFC3
:1015F0000423062D4FF0010505FA03F303F1FF3331
:101600008CBF033C00241940A14005FA04F4013CBE
:101610002240002842EA01024FEA0212ADBF00F167
:10162000604000F00F00064B00F56140B5BFD2B23C
:10163000D2B21A5480F8002330BD00BF00ED00E0A4
:1016400014ED00E0002808DB4209012300F01F0030
:1016500003FA00F0014B43F82200704700E100E07C
:101660000368DAB223F47F7323F003031821103ADE
:10167000B2FBF1F20449032A88BF0433895C836515
:10168000C165806D704700BF204F000870B50446EB
:10169000FFF736FB0546002C71D0002384F8343068
:1016A0002268022384F83530136823F001031360A5
:1016B00021680B68D8073CD40B68324D6268A0697A
:1016C0001D40A3681343E268134322691343626910
:1016D0001343E26903431343226A1343626A042AF1
:1016E00043EA050301BF266BE56A35432B430B60D4
:1016F0004B69042A23F0070343EA02030BD1A26AD1
:10170000E56A13433DB1F8B9012A2DD001D3022A6D
:1017100001D1EA012BD44B612046FFF7A1FFE26D16
:101720003F239340836000200123606584F83530B7
:1017300070BDFFF7E5FA401B0528B9D92023636582
:10174000032084F8350070BDB0F5005F13D1032A83
:10175000E1D801A050F822F06F1700081317000815
:101760006F17000869170008B5F1C07FD3D1402377
:1017700063650120E5E7022AF9D9032AC8E70120B9
:1017800070BD00BF3F8010F070B590F83440012C60
:1017900032D0012480F8344090F83540866D012C19
:1017A0004FF000054FF0020424D180F83540046862
:1017B0004565256825F48025256063608368402B96
:1017C0000EBFA260A160E260C26D08BFE1603F236E
:1017D0009340B360236843F016032360036C1BB18E
:1017E000236843F008032360236843F00103236068
:1017F000002070BD80F83450022070BDF7B5002382
:1018000001935A4B856D1F68C36D2E6808229A405C
:10181000164204460CD001680868400708D50868DD
:1018200020F004000860AA60626D42F00102626567
:1018300001229A40164208D021684969090641BF31
:10184000AA60626D42F00202626504229A4016426A
:1018500008D021680968880741BFAA60626D42F01C
:101860000402626510229A40164210D0236819685B
:1018700009070CD5AA601A68500335D51B681903EF
:1018800001D4236C00E0A36C0BB120469847E16DB6
:1018900020228A40164238D023681868C60634D5FC
:1018A000AA6094F83520052A1A6825D122F016027C
:1018B0001A605A6922F080025A61226C0AB9A26C3D
:1018C0001AB11A6822F008021A603F238B40AB60FD
:1018D000002384F83430012384F83530236D0BB1B4
:1018E0002046984703B0F0BD1A68D2055EBF1A685B
:1018F00022F008021A60C4E7500328D51B681903B8
:1019000032D4636C0BB120469847636D002BE9D04D
:10191000636DDA0719D50523226884F8353013681A
:1019200023F0010313604FF41653B7FBF3F7019B49
:1019300001339F42019302D31368DB07F7D40023DE
:1019400084F83430012384F83530E36CC7E71A6833
:1019500012F4807208D1196821F010011960012376
:1019600084F8342084F83530E36BCBE70C0000209A
:101970002DE9F04F85B00B68DFF8AC81684ADFF8DD
:10198000AC91019300230124019D9C402540AC4271
:1019900040F0B0804C6824F0100C0CF1FF36012EA2
:1019A0004FEA430E12D88768032606FA0EF627EA96
:1019B0000607CE6806FA0EF63E4386604768C4F313
:1019C000001627EA05079E403E4346600326C76887
:1019D00006FA0EF6F64307EA060A8F6807FA0EF7CC
:1019E00047EA0A07BCF1020FC76016D14FEAD30AD3
:1019F00000EB8A0A03F0070BDAF820704FEA8B0B32
:101A00004FF00F0C0CFA0BFC27EA0C0C0F6907FACD
:101A10000BF747EA0C07CAF8207007683E4004F04D
:101A2000030707FA0EFE4EEA06060660E60061D5D9
:101A30004FF0000BCDF80CB0D8F84470394E47F495
:101A40008047C8F84470D8F8447007F4804703977B
:101A5000039F23F0030707F1804707F59C3703F046
:101A6000030CD7F808A04FEA8C0C4FF00F0E0EFABB
:101A70000CFEB0422AEA0E0E43D006F58066B04254
:101A800041D006F58066B0423FD006F58066B04290
:101A90003DD006F58066B0423BD048453BD006F5C8
:101AA0000066B04239D006F58066B04214BF082601
:101AB000072606FA0CF646EA0E06BE601668EF43E5
:101AC00014F4803F0CBF3E402E431660566814F459
:101AD000003F0CBF3E402E435660966814F4801FB2
:101AE0000CBF3E402E439660D668A40254BF3E40D1
:101AF0002E43D6600133102B7FF445AF05B0BDE80F
:101B0000F08F5E46D5E70126D3E70226D1E703260C
:101B1000CFE70426CDE70526CBE70626C9E700BFB9
:101B2000003C014000000240003802400014024026
:101B30000369194214BF0120002070470AB1816176
:101B400070470904FBE7436931EA030308BF09044E
:101B5000816170477047000008B5044B5969014224
:101B600002D05861FFF7F6FF08BD00BF003C0140FE
:101B70002DE9F341044608B901203FE00368DD0781
:101B800010D4236898075AD423681A0700F19C8060
:101B900023685B0700F1BA80A069002840F01B8130
:101BA00000202BE0A44B9A6802F00C02042A07D014
:101BB0009A6802F00C02082A0AD15B68590207D51C
:101BC0009D4B1B689A03DCD56368002BD9D1D3E702
:101BD0006368994DB3F5803F13D12B6843F480338C
:101BE0002B60FFF78DF8944D06462B689B03C8D4F5
:101BF000FFF786F8801B6428F7D9032002B0BDE800
:101C0000F081B3F5A02F04D12B6843F480232B601F
:101C1000E3E72A6822F480322A602A6822F48022CC
:101C20002A60002BDDD1FFF76BF806462B689F0377
:101C3000A7D5FFF765F8801B6428F7D9DDE77E4B51
:101C40009A6812F00C0F07D09A6802F00C02082A6A
:101C500011D15B685E020ED4774B1A68950702D5E6
:101C6000E268012A88D11A68216922F0F80242EA62
:101C7000C1021A6088E7E268704BB2B101221A60B3
:101C8000FFF73EF86C4D06462B68980707D52B6882
:101C9000226923F0F80343EAC2032B6074E7FFF7DD
:101CA0002FF8801B0228EFD9A7E71A60FFF728F862
:101CB000614D06462B6899077FF566AFFFF720F860
:101CC000801B0228F6D998E762695D4B7AB1012240
:101CD0001A60FFF715F8584D06466B6F9F073FF5E2
:101CE00057AFFFF70DF8801B0228F6D985E71A6079
:101CF000FFF706F8504D06466B6F98077FF548AF23
:101D0000FEF7FEFF801B0228F6D976E74A4B1A6CD5
:101D100012F0805228D101921A6C42F080521A645B
:101D20001B6C03F080530193019B0126454D2B68EA
:101D3000D9051BD5A368404D012B27D12B6F43F04C
:101D400001032B67FEF7DCFF3B4D074641F2883865
:101D50002B6F9B0739D5002E3FF41EAF364A136C0C
:101D600023F08053136417E70026DFE72B6843F462
:101D700080732B60FEF7C4FF07462B68DA05D9D4C1
:101D8000FEF7BEFFC01B0228F7D936E7052B04D1AA
:101D90002B6F43F004032B67D0E72A6F22F0010278
:101DA0002A672A6F22F004022A67002BCAD1FEF7A5
:101DB000A7FF41F2883807462B6F9807CBD5FEF76F
:101DC0009FFFC01B4045F7D917E7FEF799FFC01BDF
:101DD0004045BDD911E7184DAB6803F00C03082B43
:101DE00047D0194E00230228336035D1FEF788FF13
:101DF00007462B68990129D4226AE3691343626A72
:101E000043EA8213E26A43EA0263A26A0A4C520876
:101E1000013A43EA02436B6001233360FEF770FF2F
:101E2000054623689A013FF5BBAEFEF769FF401BEC
:101E30000228F6D9E1E600BF003802400000474220
:101E4000800E47420070004060004742FEF758FF96
:101E5000C01B0228CDD9D0E6FEF752FF04462B68FE
:101E60009B017FF59DAEFEF74BFF001B0228F6D9C4
:101E7000C3E601283FF4C2AEA868E36900F480021B
:101E80009A427FF479AE226A00F03F0393427FF4D6
:101E900073AE626A47F6C073034093427FF46CAE40
:101EA000A26A00F4403393427FF466AEE36A00F026
:101EB0007060C01A18BF0120A0E600BF134908B522
:101EC0008B6803F00C03042B03D0082B03D01048BD
:101ED00008BD104808BD4A684B68496813F4800380
:101EE00014BF0C480A48C1F3881118BF002302F040
:101EF0003F02A1FB0001FEF755FD044B5B68C3F3F5
:101F0000014301335B00B0FBF3F008BD0038024031
:101F10000024F40000127A002DE9F0410D46044639
:101F200010B90120BDE8F081444B1A6802F00F029D
:101F30008A4229D321688F072ED4C80741D43F4B4A
:101F40001A6802F00F02954267D3226851076DD4D8
:101F5000130707D53A4A2169936823F4604343EA9B
:101F6000C1039360FFF7AAFF354B364A9B68C3F362
:101F70000313D35CD840344B1860344B186802F01C
:101F8000EDFE0020BDE8F081CAB21A701B6803F0B4
:101F90000F039942C5D1CDE7294B11F0040F1EBFA5
:101FA0009A6842F4E0529A600E0742BF9A6842F47F
:101FB00060429A609A68A06822F0F00202439A6038
:101FC000BBE762681E4B012A1DD11B6813F4003F5A
:101FD000A7D01B4EB36823F003031343B360FEF78F
:101FE0008FFE41F288380746B368626803F00C033D
:101FF000B3EB820FA3D0FEF783FEC01B4045F3D99D
:102000000320BDE8F081911E01291B6802D813F05E
:10201000007FDDE713F0020FDAE7EAB21A701B68FF
:1020200003F00F039D427FF47CAF8EE70449E06824
:102030008B6823F4E05303438B6089E7003C024044
:1020400000380240735000080C00002004000020FB
:10205000044B054A9B68C3F38223D35C034A106890
:10206000D840704700380240835000080C00002020
:10207000044B054A9B68C3F34233D35C034A1068A0
:10208000D840704700380240835000080C00002000
:102090000F2303600B4B9A6802F0030242609A68B8
:1020A00002F0F00282609A6802F4E052C2609B681B
:1020B000DB0803F4E0530361034B1B6803F00F03D9
:1020C0000B60704700380240003C02400368DA6849
:1020D00042F00102DA609A6802F00702062A1EBF87
:1020E0001A6842F001021A6000207047704770477A
:1020F0007047704703681A69910710B504460ED5FA
:10210000DA6892070BD56FF002021A619B6901220F
:102110009B07027777D0FFF7EAFF00232377236836
:102120001A69500710D5DA6851070DD56FF004020F
:102130001A619B69022213F4407F2277204668D0FF
:10214000FFF7D5FF0023237723681A6912070FD5FD
:10215000DA6810070CD56FF008021A61DB690422F7
:102160009907227720465AD0FFF7C1FF0023237733
:1021700023681A69D20610D5DA68D0060DD56FF03B
:1021800010021A61DB69082213F4407F227720468F
:102190004BD0FFF7ACFF0023237723681A69D107E0
:1021A00008D5DA68D20705D56FF001021A6120461A
:1021B00002F092FC23681A69100608D5DA68110645
:1021C00005D56FF080021A61204600F096F9236869
:1021D0001A69520608D5DA68500605D56FF0400234
:1021E0001A612046FFF785FF23681A69910622D5F8
:1021F000DA6892061FD56FF0200220461A61BDE80A
:10220000104000F079B9FFF771FF2046FFF770FF2B
:1022100083E7FFF76BFF2046FFF76AFF92E7FFF7C0
:1022200065FF2046FFF764FFA0E7FFF75FFF20464A
:10223000FFF75EFFAFE710BD304A0368904212D04F
:10224000B0F1804F0FD0A2F57C4290420BD002F546
:102250008062904207D002F58062904203D002F57E
:102260007842904219D14A6823F070031343234AFD
:10227000904229D0B0F1804F26D0A2F57C42904206
:1022800022D002F5806290421ED002F58062904218
:102290001AD002F57842904216D0194A904213D0D3
:1022A00002F5806290420FD002F5806290420BD01E
:1022B000A2F59832904207D002F58062904203D096
:1022C00002F58062904203D1CA6823F4407313433D
:1022D0004A6923F08003134303608B68C3620B6871
:1022E0008362064B984203D003F58063984201D184
:1022F0000B69036301234361704700BF0000014085
:102300000040014010B50446A0B190F83D3003F004
:10231000FF021BB980F83C2002F098FC022384F8ED
:102320003D302068211DFFF787FF012384F83D30F1
:10233000002010BD012010BD10B584680A4324F4AC
:102340007F4442EA03232343836010BD90F83C306E
:10235000012B70B504464FF0020019D084F83D00FF
:102360002068012384F83C30836823F47F4323F002
:10237000770383600B68402B65D015D8102B0CD0E9
:1023800007D853B10123002084F83D3084F83C0085
:1023900070BD202B01D0302BF4D1826843F00703AD
:1023A00022F0700213431AE0602B34D019D8502B5E
:1023B000E8D14A68CE68016A056A25F00105056220
:1023C000836921F00A0123F0F00343EA06130A436C
:1023D00083610262836823F0700343F057038360D4
:1023E000D0E7702B0CD0B3F5005FCBD1CB684A6837
:1023F0008968FFF7A1FF2268936843F4804308E0EF
:10240000CB684A688968FFF797FF2268936843F0B2
:1024100077039360B6E74D68CE68016A21F010013A
:1024200001628269036A22F4704223F0A00343EA46
:10243000051342EA063282610362836823F0700367
:1024400043F06703CBE74A68CE68016A056A25F066
:1024500001050562836921F00A0123F0F00343EAD4
:1024600006130A4383610262836823F0700343F01A
:102470004703B4E790F83C30012B30B54FF002032E
:1024800035D080F83D3003680D685C6824F0700436
:1024900001222C4380F83C209A685C60154CA342D2
:1024A0001AD0B3F1804F17D0A4F57C44A34213D0C7
:1024B00004F58064A3420FD004F58064A3420BD0DE
:1024C00004F57844A34207D004F57054A34203D026
:1024D000A4F59434A34204D1496822F080020A434F
:1024E0009A60012380F83D30002380F83C30184684
:1024F00030BD00BF000001407047704738B5036829
:10250000C1681A69044622F440520A431A612569D7
:10251000A268D968C0692A43656921F416412A4333
:1025200021F00C0102430A43DA605A69A16922F4DE
:1025300040720A43B0F5004F5A61254A29D19342AF
:1025400003D002F58062934220D1FFF791FD6268CB
:10255000256892184FF000034FF019015B41A0FB72
:102560000101FEF71FFA6421B0FBF1F401FB140333
:10257000DB003233B3FBF1F303F007025B0002EB45
:10258000041203F4F8731344AB6038BDFFF760FD29
:10259000DDE7934202D00F4A934216D1FFF768FD60
:1025A0006368256819219A00A0FB01019B0FFEF7C3
:1025B000F9F96422B0FBF2F102FB11031B01323383
:1025C000B3FBF2F303EB0113DEE7FFF741FDE7E7AF
:1025D0000010014000140140F8B504460E461746AD
:1025E0001D4621680B6836EA030301D10020F8BDBF
:1025F0006B1CF7D095B92368DA6822F4D072DA60E0
:102600005A6922F001025A61202384F8393084F893
:102610003A30002384F838300320F8BDFEF770FB11
:10262000C01B8542DDD2E6E710B5044640B390F802
:10263000393003F0FF021BB980F8382002F01EFB8E
:102640002268242384F83930D36823F40053D360FC
:102650002046FFF753FF23681A6922F490421A615B
:102660005A6922F02A025A61DA6842F40052DA60AA
:1026700000202023E06384F8393084F83A3010BD1C
:10268000012010BD2DE9F8431F4690F83930202B6A
:1026900004460D46904651D100294CD0002A4AD01C
:1026A00090F83830012B49D0012380F838304FF0B2
:1026B00000092123C0F83C9080F83930FEF720FB58
:1026C000A4F824800646A4F8268084F83890E38C89
:1026D0009BB25BB93B46324640212046FFF77CFF68
:1026E000A0B9202384F83930BDE8F883E38C013B9E
:1026F0009BB2E384A368B3F5805F32463B464FF05C
:10270000800120460ED1FFF767FF10B10320BDE81E
:10271000F8832B882268C3F308035360236943B905
:102720000235D4E7FFF758FF0028EFD123682A7855
:102730005A600135CBE70120BDE8F8830220BDE8EF
:10274000F88310B501F0E8FE20B103684068BDE8E9
:102750001040184710BD0000EFF3058313B16FF070
:1027600005007047EFF31083002BF8D1074B186872
:10277000022806D1EFF31183002BF0D14FF0FF3088
:1027800070470028FAD101221A60704788020020A1
:1027900010B5EFF3058313B16FF0050010BDEFF333
:1027A0001084002CF8D1094B1A68022A06D1EFF3E5
:1027B0001183002BF0D14FF0FF3010BD012AFAD168
:1027C00002221A6001F050F9204610BD8802002054
:1027D000F0B587B0144600220B460592EFF3058250
:1027E00072BBEFF310825ABB284A1268022A02D148
:1027F000EFF3118222BB18B300228DF81320002CB6
:102800003CD0216809B90DF11301A569002D08BF5D
:1028100018256A1E372A2F4635D86268D20732D467
:10282000666986B1B208D4F808E0D4F80CC0BEF1ED
:10283000000F0AD0BCF15B0F02D9246904B1AEB914
:10284000059807B0F0BD8022EDE7BCF1000FF7D18D
:102850002469002CF4D105AC0194009792B201F0E8
:10286000D6F801281CBF00230593E9E7CDF808E05E
:102870000194009501F094F80590E1E71827802273
:102880000DF11301E7E70020DBE700BF880200201D
:10289000F7B506460D4617461C46EFF3058313B100
:1028A000002003B0F0BDEFF31083002BF8D1164BDE
:1028B0001B68022B03D1EFF31183002BF0D1002E04
:1028C000EED0082000F0AEFA03460028E8D02A1C1B
:1028D00080E8C00018BF0122A4B1A1682068E468A4
:1028E00041B12F2CDCD9019108490091012101F05F
:1028F0007AFCD6E7002CD3D104490091012101F0E4
:102900004BFCCEE72046F7E788020020432700086B
:1029100073B50E461546EFF305831BB10024204620
:1029200002B070BDEFF31083002BF7D1234B1B686F
:10293000022B03D1EFF31183002BEFD10028EDD050
:10294000B042EBD37DB1AB68EA6853B14F2AE5D909
:10295000012810D01A46314600F06AFC044630BB0C
:10296000DCE7002ADAD101281AD103220021012054
:1029700000F037FC05E0032200920022114600F02F
:10298000E3FB04460028C9D086B100231A46194645
:1029900000F08EFC012809D0204600F06BFEBDE758
:1029A000314600F067FC04460028B7D025B12968FD
:1029B000204600F039FEB2E72946F9E788020020F8
:1029C000034B0360034B0B6080231360704700BF11
:1029D0002C0200202C000020034B0360034B0B60F3
:1029E0004FF48073136070478C0600208C02002027
:1029F00000F1080343604FF0FF32C360036100231E
:102A000082600360704700230361704743684B6036
:102A10009A688A609A685160996003680861013316
:102A2000036070470A68531C30B50AD103695A68BD
:102A30004A6091608B6059600368086101330360EC
:102A400030BD00F108035C682568AA42EFD3234635
:102A5000F9E74168826803698A6082685160596851
:102A6000884208BF5A60002202611A68013A1A605F
:102A70001868704782B0002301930D4B1B68013327
:102A800008D04FF0500383F31188BFF36F8FBFF36B
:102A90004F8FFEE74FF0500383F31188BFF36F8F22
:102AA000BFF34F8F019B002BFCD002B0704700BFDB
:102AB0000800002008480068006880F308884FF08C
:102AC000000080F3148862B661B6BFF34F8FBFF386
:102AD0006F8F00DF00BF000008ED00E0DFF80C00A2
:102AE000016841F4700101607047000088ED00E06A
:102AF0004FF0807340F8043C074B40F80C3C21F049
:102B000001016FF0020340F8081C40F8202C40F847
:102B1000243C4438704700BF752A000800000000BC
:102B2000074B19680868B0E8F04F80F30988BFF3D5
:102B30006F8F4FF0000080F311887047AFF3008073
:102B4000084300204FF0500383F31188BFF36F8FC9
:102B5000BFF34F8F0A4A13680133012B13600DD165
:102B6000084B1B6813F0FF0F08D04FF0500383F39E
:102B70001188BFF36F8FBFF34F8FFEE7704700BF21
:102B80000800002004ED00E0084A136843B94FF044
:102B9000500383F31188BFF36F8FBFF34F8FFEE7AE
:102BA000013B13600BB983F31188704708000020C4
:102BB000EFF30980BFF36F8F154B1A681EF0100FEB
:102BC00008BF20ED108A20E9F04F10602DE90900C0
:102BD0004FF0500080F31188BFF34F8FBFF36F8F1A
:102BE00001F0E4F84FF0000080F3118809BC196887
:102BF0000868B0E8F04F1EF0100F08BFB0EC108A64
:102C000080F30988BFF36F8F704700BFAFF3008078
:102C10000843002008B54FF0500383F31188BFF339
:102C20006F8FBFF34F8F00F071FF18B1034B4FF060
:102C300080521A60002383F3118808BD04ED00E080
:102C4000084A0949002313600B60084B4FF47A715E
:102C50001B68B3FBF1F30649013B0B6007231360CC
:102C6000704700BF10E000E018E000E00C0000201A
:102C700014E000E0394B3A4A13B51968914208D183
:102C80004FF0500383F31188BFF36F8FBFF34F8F63
:102C9000FEE71A68334B9A4208D14FF0500383F392
:102CA0001188BFF36F8FBFF34F8FFEE72E4B1A785B
:102CB000D2B20192FF221A701B782C4ADBB28DF837
:102CC00003309DF8033003F050031370284B0722A4
:102CD0001A6000219DF80300000602F1FF340DD4B4
:102CE00001B11A601A68032A11D04FF0500383F320
:102CF0001188BFF36F8FBFF34F8FFEE79DF803205E
:102D00005200D2B28DF8032001212246E2E71202DE
:102D100002F4E0621A60019B134ADBB21370154B98
:102D20001A6842F470021A601A6842F070421A601F
:102D3000FFF786FF104B00241C60FFF7CFFE0F4A01
:102D4000136843F040431360FFF7B4FE01F02EF820
:102D5000FFF790FE204602B010BD00BF00ED00E07E
:102D600071C20F4170C20F4100E400E0E80600208C
:102D7000EC06002020ED00E00800002034EF00E029
:102D8000EFF305830F2B0ED9104A9B5C104A127883
:102D90009A4208D94FF0500383F31188BFF36F8F25
:102DA000BFF34F8FFEE70B4B0B4A1B68126803F40F
:102DB000E063934208D94FF0500383F31188BFF3C7
:102DC0006F8FBFF34F8FFEE7704700BFF0E300E067
:102DD000E80600200CED00E0EC06002010B50F4BDB
:102DE0001A68824218D35C681919884201BF416889
:102DF000184609195960446801198A4207D10849DF
:102E000009688A421FBF51681268091941609842D7
:102E1000026018BF186010BD1346E1E700430020B0
:102E2000F00600202DE9F041044600F061FE3E4925
:102E30003E4D0B680BBB3E4A56071FBFD01D20F00E
:102E4000070002F570531B1A14BF02464FF470536B
:102E50001344083B23F00703364E0B6000207060DC
:102E6000326058601860981A1360334B50601860D5
:102E7000324B18604FF000432B602F68274216D169
:102E8000002C41D004F1080358071CBF23F00703AE
:102E9000083363B1294A1668B342904607D8254AD9
:102EA00015686868834204D809688D4207D10024F8
:102EB0002AE02C68002CF7D02A462546F1E729683D
:102EC00014681160C21A102A0FD9E818410708D0F7
:102ED0004FF0500383F31188BFF36F8FBFF34F8F11
:102EE000FEE742606B60FFF779FF13496B68086883
:102EF000F61A1F4386424FF00003C8F8006038BF3F
:102F00000E6008346F602B6000F090FE630708D0FD
:102F10004FF0500383F31188BFF36F8FBFF34F8FD0
:102F2000FEE72046BDE8F081F0060020F4420020D4
:102F3000F406002000430020FC420020F84200205C
:102F400010B5044670B3184A50F8043C1268134296
:102F500008D14FF0500383F31188BFF36F8FBFF395
:102F60004F8FFEE750F8081C41B14FF0500383F338
:102F70001188BFF36F8FBFF34F8FFEE723EA020381
:102F800040F8043C00F0B4FD084A54F8043C1168D1
:102F9000A4F108000B441360FFF720FFBDE81040C8
:102FA00000F044BE10BD00BFF4420020F8420020F3
:102FB00010B50446FFF7C6FDA46BFFF7E5FDB4FAB4
:102FC00084F0400910BD70B51546026C866B04464E
:102FD00042B905689DB9406801F016F86560013690
:102FE000A66370BD6DB9806801F07AFFA368226C9A
:102FF00013446268A360934201D32368A360002056
:10300000EDE7C06801F06CFF236CE26821685B4269
:103010001A448A42E2603EBF62689B18E360022D58
:10302000EDD10EB1013EEAE73046D8E7034610B4D1
:103030001A6C084662B1D9685C681144A142D96033
:1030400024BF1968D960D9685DF8044B01F048BF06
:103050005DF8044B704770B50446FFF773FD94F8B4
:10306000455004F124066DB2002D14DCFF2384F8D2
:103070004530FFF789FDFFF765FD94F8445004F1F2
:1030800010066DB2002D12DCFF2384F84430BDE839
:103090007040FFF779BD636A002BE7D0304600F03F
:1030A000F9FE08B100F09AFF013D6DB2DCE723693B
:1030B000002BE9D0304600F0EDFE08B100F08EFFA5
:1030C000013D6DB2DEE7000038B50D46044640B95B
:1030D0004FF0500383F31188BFF36F8FBFF34F8F0F
:1030E000FEE7FFF72FFD206CE36B2268A2604343ED
:1030F000D1181B1A13446160E3600021FF23A16310
:1031000084F8443084F8453095B9236963B104F1FB
:10311000100000F0BFFE38B10A4B4FF080521A6029
:10312000BFF34F8FBFF36F8FFFF72EFD012038BD28
:1031300004F11000FFF75CFC04F12400FFF758FCD9
:10314000F2E700BF04ED00E013B51C4640B94FF0B4
:10315000500383F31188BFF36F8FBFF34F8FFEE7E8
:1031600043B94FF0500383F31188BFF36F8FBFF360
:103170004F8FFEE74AB1D9B94FF0500383F311885E
:10318000BFF36F8FBFF34F8FFEE789B14FF050034E
:1031900083F31188BFF36F8FBFF34F8FFEE74FF0BC
:1031A000500383F31188BFF36F8FBFF34F8FFEE798
:1031B00050230193019B502BF1D10123002908BF1B
:1031C000224684F84630E063216422601946204696
:1031D000FFF77AFF9DF8103084F84C30204602B09B
:1031E00010BDF8B50D461746064640B94FF05003DE
:1031F00083F31188BFF36F8FBFF34F8FFEE7484310
:103200005030FFF70FFE044660B1002380F84630CF
:1032100055B92060E663256401212046FFF754FF7D
:1032200084F84C702046F8BD00F150030360F1E7CC
:1032300013B513460C4640B94FF0500383F3118881
:10324000BFF36F8FBFF34F8FFEE7884208D24FF076
:10325000500383F31188BFF36F8FBFF34F8FFEE7E7
:103260000222009200221146FFF76EFF00B1846334
:1032700002B010BD10B50C4640B94FF0500383F3B7
:103280001188BFF36F8FBFF34F8FFEE7884208D2DC
:103290004FF0500383F31188BFF36F8FBFF34F8F4D
:1032A000FEE702220021FFF79CFF00B1846310BDFE
:1032B0002DE9FF47894601921F46044640B94FF069
:1032C000500383F31188BFF36F8FBFF34F8FFEE777
:1032D000002940F08880036C002B00F084804FF0C0
:1032E000500383F31188BFF36F8FBFF34F8FFEE757
:1032F000019E002E00F082804FF0500383F311886E
:10330000BFF36F8FBFF34F8FFEE7019D1DB9FFF72E
:103310003BFC002058E016B902A800F017FEFFF7AA
:1033200033FC00F0E5FBFFF70DFC94F84430FF2B75
:1033300008BF84F8448094F84530FF2B08BF84F818
:103340004580FFF721FC01A902A800F00BFE002830
:1033500043D1FFF7F7FBA66BE56BFFF715FCAE4219
:1033600035D1019904F1100000F05CFD2046FFF713
:1033700072FE00F05BFC38B94FF08053CAF80030A1
:10338000BFF34F8FBFF36F8F0126FFF7DBFBA26BFD
:10339000E36B9A4201D3022FB7D13A464946204601
:1033A000FFF711FE636A1BB104F1240000F072FD07
:1033B00038B1194B4FF080521A60BFF34F8FBFF3F3
:1033C0006F8FFFF7E1FB012004B0BDE8F0872046D6
:1033D000FFF741FE00F02AFCD6E72046FFF73BFE50
:1033E00000F024FC95E7022F02D1E36B012B0AD1F8
:1033F00000F0FAFD00283FF47BAF00264FF00008F4
:10340000DFF814A0C1E74FF0500383F31188BFF336
:103410006F8FBFF34F8FFEE704ED00E02DE9F84317
:10342000884691461F46044640B94FF0500383F347
:103430001188BFF36F8FBFF34F8FFEE709BB036C9B
:10344000FBB14FF0500383F31188BFF36F8FBFF3CD
:103450004F8FFEE704F1240000F01CFD002834D05B
:10346000B9F1000F31D00120C9F8000086F31188AE
:10347000BDE8F88301356DB284F8455025E00020A1
:10348000F4E7022F02D1E36B012B20D1FFF778FC88
:10349000EFF311864FF0500383F31188BFF36F8F62
:1034A000BFF34F8FA26BE36B9A4201D3022FE6D199
:1034B00094F845503A466DB241462046FFF783FDE9
:1034C0006B1CD7D1636A002BC4D10120CEE74FF02B
:1034D000500383F31188BFF36F8FBFF34F8FFEE765
:1034E0002DE9F04385B088460192044640B94FF07B
:1034F000500383F31188BFF36F8FBFF34F8FFEE745
:10350000002940F08680036C002B00F082804FF091
:10351000500383F31188BFF36F8FBFF34F8FFEE724
:10352000019E002E7AD04FF0500383F31188BFF331
:103530006F8FBFF34F8FFEE7019D1DB9FFF724FB8F
:10354000002052E016B902A800F000FDFFF71CFBB6
:1035500000F0CEFAFFF7F6FA94F84430FF2B08BFDC
:1035600084F8447094F84530FF2B08BF84F8457008
:10357000FFF70AFB01A902A800F0F4FC00283DD1E6
:103580002046FFF715FD98B3019904F1240000F0DF
:1035900049FC2046FFF75FFD00F048FB38B94FF0CB
:1035A0008053C9F80030BFF34F8FBFF36F8F0126F0
:1035B000FFF7C8FAA56B002DBED041462046013D5D
:1035C000FFF734FDA563236963B104F1100000F037
:1035D00061FC38B1134B4FF080521A60BFF34F8F2C
:1035E000BFF36F8FFFF7D0FA012005B0BDE8F0837D
:1035F0002046FFF730FD00F019FBD8E72046FFF723
:103600002AFD00F013FB2046FFF7D2FC0028CED0A5
:1036100096E700F0E9FC002882D000260027DFF8BA
:103620000490C5E704ED00E030B5074A002352F8E6
:10363000335002EBC3041DB942F83310606030BD53
:103640000133082BF3D130BD3849002010B5084AAA
:10365000002302EBC3014C68844204D1002042F8ED
:103660003300486010BD0133082BF2D110BD00BFFC
:103670003849002010B5044640B94FF0500383F399
:103680001188BFF36F8FBFF34F8FFEE7FFF7DEFFA9
:1036900094F8463023B92046BDE81040FFF750BCEF
:1036A00010BD70B504460D461646FFF74BFA94F868
:1036B0004430FF2B04BF002384F8443094F8453095
:1036C000FF2B04BF002384F84530FFF75DFAA36B9E
:1036D0002BB93246294604F1240000F0BDFB2046F8
:1036E000BDE87040FFF7B7BC2DE9F0410446FFF795
:1036F00029FA2E4B2E4D1A682E4F01321A602E6871
:10370000002E47D12C601B68012B1DD1B81914362F
:10371000FFF76EF9B6F58C6FF8D1DFF8C480264E4E
:103720004046FFF765F93046FFF762F92348FFF797
:103730005FF92348FFF75CF92248FFF759F9224B5C
:10374000C3F80080214B1E60214A136801331360C7
:10375000204A63641168E36A14208B4200FB037003
:1037600004F1040188BF1360FFF750F9FFF70CFA6A
:10377000194B1B6863B12B68DA6AE36A9A4207D275
:10378000164B4FF080521A60BFF34F8FBFF36F8F0D
:10379000BDE8F081104B1B68002BD5D12B68DA6A8D
:1037A000E36A9A4298BF2C60CEE700BF74470020BE
:1037B0000843002014430020A0470020BC470020FD
:1037C000E8470020D44700200C430020104300208D
:1037D0008447002088470020D047002004ED00E007
:1037E0008C470020064A13681968064B19B94FF038
:1037F000FF321A6070471268D268D2685268F8E7E0
:103800000C430020B44700202DE9F0470A9C099F93
:1038100096000D4632468046A521206B994601F060
:103820006AFB236B043E1E4426F007066B1E04F160
:1038300034020F35597802F8011B13F8011F09B142
:10384000AB42F7D1089D372D28BF37254FF0000A2E
:10385000E562E564201D84F843A0C4F850A0FFF79A
:10386000D2F8C5F1380504F11800FFF7CCF8C4F818
:1038700054A02461A561646284F858A04A46414678
:103880003046FFF735F9206007B13C60BDE8F087AE
:1038900010B590F8593004463BB9006BFFF750FB68
:1038A0002046BDE81040FFF74BBB012BF9D0022B9F
:1038B00008D04FF0500383F31188BFF36F8FBFF32D
:1038C0004F8FFEE710BD000080B5DFF85C80124F1F
:1038D000124C134D236863B9124B1B68012BF8D9A6
:1038E0004FF08053C8F80030BFF34F8FBFF36F8F96
:1038F000EEE7FFF727F9FB68DE68301DFFF7A9F850
:103900002B68013B2B602368013B2360FFF73CF9E8
:103910003046FFF7BDFFDDE7E8470020784700208D
:10392000744700201443002004ED00E0F8B5164B66
:10393000164D1E680446286804300F46FFF789F8C4
:10394000631C2B4607D137B1296811480431BDE803
:10395000F840FFF75BB834441A68A642546007D9B0
:103960000C4A10681968BDE8F8400431FFF75AB8EE
:10397000094A106819680431FFF754F8074B1A68B0
:10398000944238BF1C60F8BDFC470020084300206B
:10399000D4470020104300200C430020B4470020EF
:1039A00070B586B00B9D0C9C45B94FF0500383F366
:1039B0001188BFF36F8FBFF34F8FFEE744B94FF00D
:1039C000500383F31188BFF36F8FBFF34F8FFEE770
:1039D0005C260496049E5C2E08D04FF0500383F3BF
:1039E0001188BFF36F8FBFF34F8FFEE7256302256A
:1039F00084F8595005AD01950A9D02940095FFF792
:103A000003FF2046FFF770FE059806B070BD2DE954
:103A1000F043074685B09000884616469946FFF762
:103A200001FA0546E8B15C20FFF7FCF90446A8B1AD
:103A3000002380F859300D9B056301930C9B029085
:103A4000009332464B4641463846FFF7DDFE20469E
:103A5000FFF74AFE012005B0BDE8F0832846FFF7D6
:103A60006FFA4FF0FF30F6E710B588B0002407AAD0
:103A700006A905A805940694FEF7A2FF059B0293EC
:103A8000069B019300942346079A14491448FFF7B4
:103A900087FFA0B908B010BD4FF0500383F3118821
:103AA000BFF36F8FBFF34F8F0E4B4FF0FF321A6093
:103AB0000D4B18600D4B1C60FFF7DCF8EAE700F0D7
:103AC00037FB0128E8D00130E4D14FF0500383F3F5
:103AD0001188BFF36F8FBFF34F8FFEE7284F0008A9
:103AE000C9380008B4470020D0470020FC47002018
:103AF000024A136801331360704700BF80470020FB
:103B0000014B1868704700BFFC4700202DE9F84FB3
:103B10003B4B1B68002B51D13A4B1C6801341C6095
:103B2000BCB9394B1A68126842B14FF0500383F3A5
:103B30001188BFF36F8FBFF34F8FFEE7334A1968C9
:103B4000106818601160324A136801331360FFF780
:103B500049FE304D304F2B689C424FF0000B3CD358
:103B6000DFF8A480DFF8C090D8F80020126862BBAC
:103B70004FF0FF322A6030E006F1040A5046FEF7AB
:103B800068FFB16A19B106F11800FEF762FFF06A2A
:103B9000D9F80010214B88424FF0140288BFC9F8B1
:103BA0000000514602FB0030FEF730FF3868F16A32
:103BB000C26A914228BF4FF0010BD5E7184A13683B
:103BC000013313604FF0000B11E0D8F80020D268E9
:103BD000D66871688C42CFD229603A680F4BD16A9F
:103BE00014224A439A58022A28BF4FF0010B0D4A6B
:103BF0001268002A18BF4FF0010B5846BDE8F88F35
:103C000080470020FC4700200C4300201043002088
:103C1000B8470020B4470020084300201443002088
:103C20007C47002000480020884700202DE9F04113
:103C30002F4C236843B94FF0500383F31188BFF32F
:103C40006F8FBFF34F8FFEE7FEF77CFF2368013BCA
:103C5000236024682CB10024FEF796FF2046BDE8BF
:103C6000F081244B1B68002BF5D0234E234FDFF847
:103C7000A0803368E3B90CB1FFF7B4FD204D2C6888
:103C800044B1204E0127FFF741FF00B13760013CEE
:103C9000F9D12C601B4B1B68002BDCD01A4B4FF06A
:103CA00080521A60BFF34F8FBFF36F8F0124D3E7A9
:103CB000F368DC68251D04F11800FEF7CAFE2846EB
:103CC000FEF7C7FEE36A3A681420934200FB0380C4
:103CD000294688BF3B60FEF799FE0C4BE26A1B68E1
:103CE000DB6A9A4222BF074B01221A60C1E700BF7C
:103CF0008047002074470020BC47002088470020F0
:103D00007C4700200048002004ED00E0084300202C
:103D10001443002038B540B94FF0500383F31188A5
:103D2000BFF36F8FBFF34F8FFEE741B94FF05003E2
:103D300083F31188BFF36F8FBFF34F8FFEE7184BEC
:103D40001C6844B14FF0500383F31188BFF36F8FA9
:103D5000BFF34F8FFEE7FFF7CBFE124B02681D68E3
:103D6000954201EB020317D29A4203D99D422CBF20
:103D70000024012403601CB10021581BFFF7D6FD6D
:103D8000FFF754FF38B9084B4FF080521A60BFF369
:103D90004F8FBFF36F8F38BD9A42E7D90124E9E70F
:103DA00080470020FC47002004ED00E0184B1A6813
:103DB000184BF0B512B101221A60F0BD164D1A6011
:103DC000164A2B681427164607FB03F1501854585F
:103DD0008CB144680831646844600A44944204BF6A
:103DE00062684260142202FB03625268D1680C4A86
:103DF00011602B60F0BD43B94FF0500383F311887D
:103E0000BFF36F8FBFF34F8FFEE7013BDCE700BFCF
:103E100080470020004800208847002014430020ED
:103E20000843002010B50C4640B94FF0500383F30F
:103E30001188BFF36F8FBFF34F8FFEE7054B1968F3
:103E40001831FEF7EFFD20460121BDE81040FFF7D5
:103E50006DBD00BF0843002038B50D46144640B97B
:103E60004FF0500383F31188BFF36F8FBFF34F8F71
:103E7000FEE7074B19681831FEF7C8FD002C2146F4
:103E80000CBF28464FF0FF30BDE83840FFF74EBD6D
:103E90000843002038B5C368DC6844B94FF05003CC
:103EA00083F31188BFF36F8FBFF34F8FFEE704F1E9
:103EB00018052846FEF7CDFD104B1B68DBB9251D04
:103EC0002846FEF7C6FD0E4AE36A11688B4288BF9A
:103ED00013600C4A1420294600FB0320FEF796FDD0
:103EE000094BE26A1B68DB6A9A4283BF074B0120D9
:103EF0001860002038BD29460548EFE780470020BC
:103F00008847002014430020084300200048002078
:103F1000BC47002010B5044640B94FF0500383F36E
:103F20001188BFF36F8FBFF34F8FFEE7FEF70AFED6
:103F3000044B1B682360044B1B686360BDE81040A2
:103F4000FEF722BEB8470020FC470020034B1B6849
:103F50000360034B1B684360704700BFB8470020F5
:103F6000FC47002070B50C46054640B94FF05003A1
:103F700083F31188BFF36F8FBFF34F8FFEE741B913
:103F80004FF0500383F31188BFF36F8FBFF34F8F50
:103F9000FEE7FEF7D7FD0F4B69681A682368581CC7
:103FA0000ED00D482E680068864201D08A420ED29B
:103FB000521A9A4209D29B1A23602846FFF7C6FF7D
:103FC0000024FEF7E1FD204670BD0023236001249C
:103FD000F7E700BFFC470020B8470020014B012253
:103FE0001A60704700480020054B1B6833B1054B31
:103FF0001B68002B0CBF0220002070470120704777
:10400000D04700208047002038B5044608B900207A
:1040100038BD1B4B1B68984208D04FF0500383F308
:104020001188BFF36F8FBFF34F8FFEE7036D43B966
:104030004FF0500383F31188BFF36F8FBFF34F8F9F
:10404000FEE7C16AC26C013B91420365DFD0002BE1
:10405000DDD1051D2846FEF7FCFCE36CE362C3F1ED
:104060003802A261074A11688B4288BF1360064A72
:10407000142000FB03202946FEF7C8FC012038BDB0
:10408000084300208847002014430020F7B5114C56
:10409000FEF758FD2568BDB90F4F104E3846FEF7A4
:1040A000A7FC3046FEF7A4FC0D4B0E4A1F600E4BDA
:1040B00010211E600A2000950C4BFFF745F8206088
:1040C00010B10B49FFF7B0FA03B0BDE8F040FEF7BE
:1040D0005BBD00BF28490020AC480020C04800203C
:1040E000044800200C48002008480020D848002040
:1040F0002D4F0008914208B5416000610AD8D21ADC
:1041000083699A420DD2084B011D1868FEF78AFC9C
:10411000002008BD9A4201D2994202D2011D034BF0
:10412000F3E7012008BD00BF084800200448002034
:1041300010B588B0FFF7AAFF134B1B6843B94FF0C7
:10414000500383F31188BFF36F8FBFF34F8FFEE7E8
:10415000002407AA06A905A805940694FEF73CFCCE
:10416000059B0293069B019302230093079A07493C
:1041700007482346FFF714FC064B18600028DED0E2
:10418000012008B010BD00BF28490020324F0008B0
:10419000354300082C4900202DE9F04180463020AD
:1041A0000D4617461E46FEF73DFE0446C0B145B912
:1041B0004FF0500383F31188BFF36F8FBFF34F8F1E
:1041C000FEE7FFF763FF069B6362C4F80080A5610A
:1041D000E7612662201DFEF716FC002384F82C30D0
:1041E0002046BDE8F0812DE9F3411E4630230193BE
:1041F000019B099C302B80460D46174608D04FF096
:10420000500383F31188BFF36F8FBFF34F8FFEE727
:1042100044B94FF0500383F31188BFF36F8FBFF39E
:104220004F8FFEE741B94FF0500383F31188BFF37E
:104230006F8FBFF34F8FFEE7FFF728FF089B636286
:10424000201DC4F80080A561E7612662FEF7DBFB54
:104250000123204684F82C3002B0BDE8F081000034
:1042600030B5154685B01A46034640B94FF05003A5
:1042700083F31188BFF36F8FBFF34F8FFEE70D4CB1
:10428000206880B105298DE8220002930DDCFFF73C
:10429000ABFE0023022808BF089A206818BF1A4600
:1042A0006946FFF705F805B030BD00236946FFF702
:1042B000B5F8F8E7284900202DE9F3411B4D4FF0F0
:1042C00000082B681A6832B9194A1168296013600E
:1042D00002B0BDE8F081DB68DC681E68271D384647
:1042E000FEF7B7FB636A20469847E369012BE8D1E4
:1042F000A36933449E4206D263602461394628682C
:10430000FEF790FBDDE70023CDF80080324619462A
:104310002046FFF7A5FF0028D3D14FF0500383F3C9
:104320001188BFF36F8FBFF34F8FFEE70448002063
:10433000084800202DE9F04F724DDFF8D88189B090
:104340002F462B68D3F800B0BBF1000F44D0DB68D8
:10435000D3F80090FFF7CCFBFFF7D2FB6A4B1A684B
:10436000904282461E4639D20393FFF7A5FF039B76
:104370000124C3F800A0002C40F08A80BBF1000F9C
:104380006BD0D14500F28280FFF750FC3B68DB68C0
:10439000D3F80CB00BF10400FEF75BFBDBF81C302C
:1043A000012B1DD1DBF818104B46524649445846A4
:1043B000FFF7A0FEA0B1009423464A462146584686
:1043C000FFF74EFF60B94FF0500383F31188BFF33E
:1043D0006F8FBFF34F8FFEE7D946BBE70024C8E7D6
:1043E000DBF8243058469847DFF82491D9F80000CC
:1043F000002204A9FFF774F80028A2D0049B002B28
:1044000003DA07990698059B9847049B002BEDDB80
:10441000069C636913B1201DFEF71BFBFFF770FBC1
:1044200033689842834601D2FFF746FF049AC6F8E4
:1044300000B0092ADAD80123934013F4047A4ED14C
:1044400013F0C70F27D19B06D0D594F82C30002B42
:10445000CCD12046FEF774FDC8E72C4B1B681A68C8
:10446000B2FA82F252092A4BA9EB0A011868FFF747
:1044700018F9FFF7DBFB0028B6D14FF08053C8F8DE
:104480000030BFF34F8FBFF36F8FADE72246EAE7EF
:10449000FFF7CCFBA8E7A169059B5A4619442046C3
:1044A000FFF728FE0028A1D0636A20469847E369F9
:1044B000012B9BD1A2690599CDF800A00A4453466F
:1044C00051462046FFF7CCFE00288FD14FF0500315
:1044D00083F31188BFF36F8FBFF34F8FFEE705990A
:1044E000A16141B94FF0500383F31188BFF36F8F7F
:1044F000BFF34F8FFEE75B465A4659442046FFF70D
:10450000F9FD73E704480020D44800200848002043
:104510002849002004ED00E010B5044640B94FF0F2
:10452000500383F31188BFF36F8FBFF34F8FFEE704
:10453000FEF708FB246AFEF727FB204610BD7047F4
:104540007FB5FFF7DDFA294D019002A8FFF7E2FCE5
:10455000274C40F6B83303932E462B78012B36D0E8
:1045600002212046FDF7E4FA01280FD1022120465E
:10457000FDF7DEFA0028F9D11E4A1F4913781F48BB
:10458000013313700A230722FEF77CF8022120462C
:10459000FDF7CEFA012805D102212046FDF7C8FA21
:1045A000012814D103A902A8FFF7DCFC0028EDD0F4
:1045B0004FF0FF33112212491048FEF763F83378A9
:1045C000104A01333370012313700F4A53700F4B9D
:1045D0004FF080521A60BFF34F8FBFF36F8F4FF4CD
:1045E0007A7101A8FFF796FBB7E700BF30490020BA
:1045F00000040240704B00206C4F0008944B0020D8
:10460000754F0008084B0020784B002004ED00E0B7
:1046100073B5FFF775FA194E194C1A4D01904FF406
:1046200080513046FDF78FFA4FF4FA70FCF76EFBBD
:104630000523236140F25D6323600023A360E360F0
:10464000114B124A1B781370114B0D491B78537094
:104650002846104BFCF74FFF2846FCF799FF03282C
:10466000FAD10A230C220C490C48FEF70BF84FF440
:104670007A7101A8FFF74EFBD1E700BF000C0240A2
:10468000FC4B0020D44B0020194A0020784B00201E
:10469000084B00208C4B00203A4F0008944B002020
:1046A000F7B5FFF72DFA1FA7D7E90067164D174C8E
:1046B0000190012214492046FCF7E2FB4FF400412F
:1046C0001348FDF740FA6420FCF720FB2046FCF776
:1046D0006BFC2860FBF7BEFE32463B46FCF75AF8FF
:1046E000FCF740F90B4B0C49C0B218700B4B082279
:1046F00018700A230A48FDF7C5FF4FF4FA6101A8B4
:10470000FFF708FBD5E700BF884B00205C4A00207C
:10471000000C0240194A0020AC4F0008784B0020E2
:10472000944B0020CDCCCCCCCCCC284030B595B02F
:104730003022002108A800F0DEFB0021142203A88B
:1047400000F0D9FB00251D4B01951A6C42F08052F8
:104750001A641B6C03F080530193019B184B029564
:104760001A6842F480421A601B6803F48043029383
:10477000029B012308934FF4803309934FF4800385
:104780000F930423109354230224119308A80723A2
:1047900013930E941294FDF7EBF90F2303934FF448
:1047A0008053069321464FF4A05303A80494059523
:1047B0000793FDF7B1FB15B030BD00BF00380240D4
:1047C0000070004080B58EB00024A34DA34FFCF7CD
:1047D00071FAFFF7ABFF1422002109A800F08BFB50
:1047E00002942B6B9E4843F080032B632B6B03F0EA
:1047F00080030293029B03942B6B43F001032B6312
:104800002B6B03F001030393039B04942B6B43F086
:1048100002032B632B6B03F002030493049B0594A8
:104820002B6B43F008032B632B6B03F008030593FA
:10483000059B06942B6B43F010032B632B6B03F04B
:104840001003224606934FF47041069B4FF0020876
:10485000FDF774F909A983480A970126CDF8248049
:104860000B94FDF785F84FF4704309A97C48099330
:104870000A960B940C94FDF77BF809A97A480A97DD
:1048800009960B94FDF774F8224605210620FCF7E3
:10489000A5FE0620FCF7D6FE00942B6B43F48003A4
:1048A0002B632B6B03F480030093009B01942B6B11
:1048B00043F400132B632B6B6C4D03F4001322465F
:1048C000052101931020019BFCF788FE1020FCF7C6
:1048D000B9FE224605211120FCF780FE1120FCF7CD
:1048E000B1FE224605213820FCF778FE102738203B
:1048F000FCF7A8FE3A46214609A800F0FCFA5C4AFB
:10490000AC604FF4803385E80C002846594BAB620D
:104910002E612E7685F82040EC62EC60EE6185F821
:1049200030406E61FCF706FA09A9284609940A96F8
:104930000B94FCF71BFC3A46214609A800F0DBFA71
:104940004D4D4E4BAC6085E8880028466423EB60F3
:104950002C61AC6107940894FDF7D4FC4FF48053AC
:1049600009A928460993FDF7F1FC07A92846444FF9
:1049700007940894FDF77EFD4249434DBC604FF417
:10498000E13387E80A004FF40053FB6038460C23FC
:104990007B613C61BC61FC61FDF746FE3B48AC605D
:1049A0007E2385E809004FF430232B6128464FF41D
:1049B00040136B61EC602C766C76AC76EC762C77E1
:1049C0006C77FCF76AFC32490E2328464B624C6137
:1049D0008C61CE610C604C608C60CC600C610E62AE
:1049E000FCF7D6FC2846FCF75BFD0A232022294968
:1049F0003846FDF747FEFDF7AFFE274A3146304601
:104A0000FDF786FF254B264A186041464046FDF7D4
:104A10007FFF244B224618603146234B2348FDF785
:104A200037FF234B234A186021462348FDF7D0FE69
:104A3000224B234A186021462248FDF7C9FE224B2B
:104A4000224A186021462248FDF7C2FE214B186019
:104A5000FDF79EFEFEE700BF003802400000111087
:104A6000000C024000040240001002405C4A00209A
:104A7000002001400100000F1C4A002000040040FB
:104A8000944B002000440040D44B002000640040C0
:104A900078490020DC4F000800500008844B0020BB
:104AA00010500008744B0020205000083F450008BB
:104AB000804B0020884F000841450008344C0020FE
:104AC000484F0008114600080C4B0020B84F000862
:104AD000A1460008A44A00200268034B9A4201D173
:104AE000FCF702B9704700BF0000014070470000AA
:104AF00007B50F4B00220092596C41F48041596474
:104B0000596C01F48041009100990192196C41F0B7
:104B1000805119641B6C03F0805301930F216FF0D7
:104B20000100019BFCF75AFD03B05DF804FB00BFD8
:104B30000038024070B5064688B01422002103A850
:104B400000F0D9F93268234B9A4240D1002503F591
:104B50008C3301955A6C2048204C42F480725A6480
:104B60005A6C02F480720192019A02951A6B42F01B
:104B700001021A631B6B03F001030293029B0123E2
:104B8000039303A903230493FCF7F2FE144BA560DF
:104B900084E828004FF4806323614FF4006363616D
:104BA00020464FF40053E560A361E561256265622C
:104BB000FCF76CFD08B1FFF799FFB46312200022E7
:104BC0000521A663FCF70AFD1220FCF73BFD08B0A7
:104BD00070BD00BF0020014000000240104B0020CB
:104BE0001064024010B5044688B01422002103A8C6
:104BF00000F081F92268134B9A4221D103F5EA3380
:104C0000002101911A6C104842F000721A641A6C6B
:104C100002F000720192019A02911A6B42F00802AE
:104C20001A631B6B03F008030293029B0323039395
:104C30000222069303A9092304920793FCF798FE26
:104C400008B010BD00640040000C02400268094B2F
:104C50009A4282B00BD100230193074B1A6C42F0A9
:104C600002021A641B6C03F002030193019B02B061
:104C7000704700BF000400400038024070B506468F
:104C800088B01422002103A800F035F932682D4BBA
:104C90009A4254D1002503F5FA3301951A6C2A483B
:104CA0002A4C42F400321A641A6C02F40032019267
:104CB000019A02951A6B42F001021A631B6B03F012
:104CC00001030293029B0C23039302230493032307
:104CD000069303A907230793FCF74AFE1C4BA56024
:104CE0004FF0006C84E8081020464FF48063E560C4
:104CF00023616561A561E56125626562FCF7C6FC1B
:104D000008B1FFF7F3FE7463124BA663124C4FF029
:104D100000654FF0400E84E828404FF48062002385
:104D20002046E36022616361A361E3612362636201
:104D3000FCF7ACFC08B1FFF7D9FE3463A66308B0FA
:104D400070BD00BF0044004000000240A0490020A8
:104D500088600240A0600240A84A002030B50146A9
:104D600089B000221920FCF739FC1920FCF76AFCF5
:104D70000025154B02955A6C144C42F001025A64FE
:104D80005B6C03F00103029301A903A8029BFDF7EA
:104D90007FF9FDF76DF90E4B236040F2E733E360D6
:104DA00040000C4BB0FBF3F00138606020462561F9
:104DB000A560FDF7A7FA20B92046FDF787F909B0ED
:104DC00030BD0120FBE700BF00380240384C002016
:104DD0000000014040420F007047FEE7FEE7FEE79B
:104DE000FEE770470120FCF7B7BE00000148FCF762
:104DF00005BD00BFA04900200148FCF7FFBC00BF73
:104E0000A84A00200148FCF7DBB800BF5C4A00203C
:104E10000148FDF76FB900BF384C00200148FCF78E
:104E2000EDBC00BF104B0020054BD3F8882042F4A6
:104E30007002C3F888204FF000629A60704700BF8C
:104E400000ED00E0DFF834D0002103E00C4B5B58AC
:104E5000435004310B480C4B42189A42F6D30B4A8C
:104E600002E0002342F8043B094B9A42F9D3FFF7D2
:104E7000DBFF00F011F8FFF7A5FC704700000220EF
:104E80009C500008000000201000002010000020AE
:104E9000784C0020FEE7000070B50D4E0D4CA41BB1
:104EA000A4100025A54209D10B4E0C4C00F02CF8A3
:104EB000A41BA4100025A54205D170BD56F82530CD
:104EC00098470135EEE756F8253098470135F2E767
:104ED000945000089450000894500008985000081E
:104EE00010B5431E0A44914200D110BD11F8014B88
:104EF00003F8014FF7E702440346934200D170479D
:104F000003F8011BF9E70000F8B500BFF8BC08BCC6
:104F10009E467047F8B500BFF8BC08BC9E46704777
:104F2000000610160006101649444C4500546D72D8
:104F30005100546D7220537663005472616E736D2C
:104F400069747465640D0A00645000080000000074
:104F500000000000000000000000000080000000D1
:104F6000180000000000000000000000496E204909
:104F700052310D0A0056656869636C652073746F61
:104F8000707065640D0A00006B500008000000009E
:104F90000000000000000000000000008000000091
:104FA000080000000000000000000000496E2054CE
:104FB000656D700D0A0000005850000800000000E8
:104FC0000000000000000000000000008000000061
:104FD0001800000000000000000000005265616C35
:104FE0002054696D65204163636964656E74204176
:104FF0006C6572742053797374656D0D0A0000003E
:105000004050000800000000000000000000000008
:105010003050000800000000000000000000000008
:105020004E500008000000000000000000000000DA
:105030006D79436F756E74696E6753656D303100BD
:105040006D7942696E61727953656D3031006D79A9
:1050500054696D657230310054656D7065726174AC
:105060007572650043616E5F54780049525F455820
:10507000543100000000000000000001020304069B
:0C50800007080900000000010203040002
:08508C0048B9FF7F010000009C
:04509400B50100085A
:04509800910100087A
:10509C000100000010000000AAAAAAAA0024F40033
:0400000508004E455C
:00000001FF
